{
	"27_abi/abiTest.sol": {
		"abiDemo": {
			"abi": [
				{
					"inputs": [
						{
							"internalType": "bytes",
							"name": "data",
							"type": "bytes"
						}
					],
					"name": "decode",
					"outputs": [
						{
							"internalType": "uint256",
							"name": "dx",
							"type": "uint256"
						},
						{
							"internalType": "address",
							"name": "daddr",
							"type": "address"
						},
						{
							"internalType": "string",
							"name": "dname",
							"type": "string"
						},
						{
							"internalType": "uint256[2]",
							"name": "darray",
							"type": "uint256[2]"
						}
					],
					"stateMutability": "pure",
					"type": "function"
				},
				{
					"inputs": [
						{
							"internalType": "bytes",
							"name": "data",
							"type": "bytes"
						}
					],
					"name": "decode2",
					"outputs": [
						{
							"internalType": "string",
							"name": "ss",
							"type": "string"
						}
					],
					"stateMutability": "pure",
					"type": "function"
				},
				{
					"inputs": [],
					"name": "encode",
					"outputs": [
						{
							"internalType": "bytes",
							"name": "result",
							"type": "bytes"
						}
					],
					"stateMutability": "view",
					"type": "function"
				},
				{
					"inputs": [],
					"name": "encodePacked",
					"outputs": [
						{
							"internalType": "bytes",
							"name": "result",
							"type": "bytes"
						}
					],
					"stateMutability": "view",
					"type": "function"
				},
				{
					"inputs": [],
					"name": "encodeWithSelector",
					"outputs": [
						{
							"internalType": "bytes",
							"name": "result",
							"type": "bytes"
						}
					],
					"stateMutability": "view",
					"type": "function"
				},
				{
					"inputs": [],
					"name": "encodeWithSignature",
					"outputs": [
						{
							"internalType": "bytes",
							"name": "result",
							"type": "bytes"
						}
					],
					"stateMutability": "view",
					"type": "function"
				}
			],
			"devdoc": {
				"kind": "dev",
				"methods": {},
				"version": 1
			},
			"evm": {
				"assembly": "    /* \"27_abi/abiTest.sol\":714:1880  contract abiDemo {... */\n  mstore(0x40, 0x80)\n    /* \"27_abi/abiTest.sol\":746:748  10 */\n  0x0a\n    /* \"27_abi/abiTest.sol\":737:748  uint x = 10 */\n  0x00\n  sstore\n    /* \"27_abi/abiTest.sol\":769:811  0x7A58c0Be72BE218B41C608b7Fe7C5bB630736C71 */\n  0x7a58c0be72be218b41c608b7fe7c5bb630736c71\n    /* \"27_abi/abiTest.sol\":754:811  address addr = 0x7A58c0Be72BE218B41C608b7Fe7C5bB630736C71 */\n  0x01\n  exp(0x0100, 0x00)\n  dup2\n  sload\n  dup2\n  0xffffffffffffffffffffffffffffffffffffffff\n  mul\n  not\n  and\n  swap1\n  dup4\n  0xffffffffffffffffffffffffffffffffffffffff\n  and\n  mul\n  or\n  swap1\n  sstore\n  pop\n    /* \"27_abi/abiTest.sol\":817:837  string name = \"0xAA\" */\n  mload(0x40)\n  dup1\n  0x40\n  add\n  0x40\n  mstore\n  dup1\n  0x04\n  dup2\n  mstore\n  0x20\n  add\n  0x3078414100000000000000000000000000000000000000000000000000000000\n  dup2\n  mstore\n  pop\n  0x02\n  swap1\n  dup2\n  tag_1\n  swap2\n  swap1\n  tag_2\n  jump\t// in\ntag_1:\n  pop\n    /* \"27_abi/abiTest.sol\":843:865  uint[2] array = [5, 6] */\n  mload(0x40)\n  dup1\n  0x40\n  add\n  0x40\n  mstore\n  dup1\n    /* \"27_abi/abiTest.sol\":860:861  5 */\n  0x05\n    /* \"27_abi/abiTest.sol\":843:865  uint[2] array = [5, 6] */\n  0xff\n  and\n  dup2\n  mstore\n  0x20\n  add\n    /* \"27_abi/abiTest.sol\":863:864  6 */\n  0x06\n    /* \"27_abi/abiTest.sol\":843:865  uint[2] array = [5, 6] */\n  0xff\n  and\n  dup2\n  mstore\n  pop\n  0x03\n  swap1\n  0x02\n  tag_3\n  swap3\n  swap2\n  swap1\n  tag_4\n  jump\t// in\ntag_3:\n  pop\n    /* \"27_abi/abiTest.sol\":714:1880  contract abiDemo {... */\n  callvalue\n  dup1\n  iszero\n  tag_5\n  jumpi\n  0x00\n  dup1\n  revert\ntag_5:\n  pop\n  jump(tag_6)\ntag_4:\n  dup3\n  0x02\n  dup2\n  add\n  swap3\n  dup3\n  iszero\n  tag_7\n  jumpi\n  swap2\n  0x20\n  mul\n  dup3\n  add\ntag_8:\n  dup3\n  dup2\n  gt\n  iszero\n  tag_9\n  jumpi\n  dup3\n  mload\n  dup3\n  swap1\n  0xff\n  and\n  swap1\n  sstore\n  swap2\n  0x20\n  add\n  swap2\n  swap1\n  0x01\n  add\n  swap1\n  jump(tag_8)\ntag_9:\ntag_7:\n  pop\n  swap1\n  pop\n  tag_10\n  swap2\n  swap1\n  tag_11\n  jump\t// in\ntag_10:\n  pop\n  swap1\n  jump\t// out\ntag_11:\ntag_12:\n  dup1\n  dup3\n  gt\n  iszero\n  tag_13\n  jumpi\n  0x00\n  dup2\n  0x00\n  swap1\n  sstore\n  pop\n  0x01\n  add\n  jump(tag_12)\ntag_13:\n  pop\n  swap1\n  jump\t// out\n    /* \"#utility.yul\":7:106   */\ntag_14:\n    /* \"#utility.yul\":59:65   */\n  0x00\n    /* \"#utility.yul\":93:98   */\n  dup2\n    /* \"#utility.yul\":87:99   */\n  mload\n    /* \"#utility.yul\":77:99   */\n  swap1\n  pop\n    /* \"#utility.yul\":7:106   */\n  swap2\n  swap1\n  pop\n  jump\t// out\n    /* \"#utility.yul\":112:292   */\ntag_15:\n    /* \"#utility.yul\":160:237   */\n  0x4e487b7100000000000000000000000000000000000000000000000000000000\n    /* \"#utility.yul\":157:158   */\n  0x00\n    /* \"#utility.yul\":150:238   */\n  mstore\n    /* \"#utility.yul\":257:261   */\n  0x41\n    /* \"#utility.yul\":254:255   */\n  0x04\n    /* \"#utility.yul\":247:262   */\n  mstore\n    /* \"#utility.yul\":281:285   */\n  0x24\n    /* \"#utility.yul\":278:279   */\n  0x00\n    /* \"#utility.yul\":271:286   */\n  revert\n    /* \"#utility.yul\":298:478   */\ntag_16:\n    /* \"#utility.yul\":346:423   */\n  0x4e487b7100000000000000000000000000000000000000000000000000000000\n    /* \"#utility.yul\":343:344   */\n  0x00\n    /* \"#utility.yul\":336:424   */\n  mstore\n    /* \"#utility.yul\":443:447   */\n  0x22\n    /* \"#utility.yul\":440:441   */\n  0x04\n    /* \"#utility.yul\":433:448   */\n  mstore\n    /* \"#utility.yul\":467:471   */\n  0x24\n    /* \"#utility.yul\":464:465   */\n  0x00\n    /* \"#utility.yul\":457:472   */\n  revert\n    /* \"#utility.yul\":484:804   */\ntag_17:\n    /* \"#utility.yul\":528:534   */\n  0x00\n    /* \"#utility.yul\":565:566   */\n  0x02\n    /* \"#utility.yul\":559:563   */\n  dup3\n    /* \"#utility.yul\":555:567   */\n  div\n    /* \"#utility.yul\":545:567   */\n  swap1\n  pop\n    /* \"#utility.yul\":612:613   */\n  0x01\n    /* \"#utility.yul\":606:610   */\n  dup3\n    /* \"#utility.yul\":602:614   */\n  and\n    /* \"#utility.yul\":633:651   */\n  dup1\n    /* \"#utility.yul\":623:704   */\n  tag_39\n  jumpi\n    /* \"#utility.yul\":689:693   */\n  0x7f\n    /* \"#utility.yul\":681:687   */\n  dup3\n    /* \"#utility.yul\":677:694   */\n  and\n    /* \"#utility.yul\":667:694   */\n  swap2\n  pop\n    /* \"#utility.yul\":623:704   */\ntag_39:\n    /* \"#utility.yul\":751:753   */\n  0x20\n    /* \"#utility.yul\":743:749   */\n  dup3\n    /* \"#utility.yul\":740:754   */\n  lt\n    /* \"#utility.yul\":720:738   */\n  dup2\n    /* \"#utility.yul\":717:755   */\n  sub\n    /* \"#utility.yul\":714:798   */\n  tag_40\n  jumpi\n    /* \"#utility.yul\":770:788   */\n  tag_41\n  tag_16\n  jump\t// in\ntag_41:\n    /* \"#utility.yul\":714:798   */\ntag_40:\n    /* \"#utility.yul\":535:804   */\n  pop\n    /* \"#utility.yul\":484:804   */\n  swap2\n  swap1\n  pop\n  jump\t// out\n    /* \"#utility.yul\":810:951   */\ntag_18:\n    /* \"#utility.yul\":859:863   */\n  0x00\n    /* \"#utility.yul\":882:885   */\n  dup2\n    /* \"#utility.yul\":874:885   */\n  swap1\n  pop\n    /* \"#utility.yul\":905:908   */\n  dup2\n    /* \"#utility.yul\":902:903   */\n  0x00\n    /* \"#utility.yul\":895:909   */\n  mstore\n    /* \"#utility.yul\":939:943   */\n  0x20\n    /* \"#utility.yul\":936:937   */\n  0x00\n    /* \"#utility.yul\":926:944   */\n  keccak256\n    /* \"#utility.yul\":918:944   */\n  swap1\n  pop\n    /* \"#utility.yul\":810:951   */\n  swap2\n  swap1\n  pop\n  jump\t// out\n    /* \"#utility.yul\":957:1050   */\ntag_19:\n    /* \"#utility.yul\":994:1000   */\n  0x00\n    /* \"#utility.yul\":1041:1043   */\n  0x20\n    /* \"#utility.yul\":1036:1038   */\n  0x1f\n    /* \"#utility.yul\":1029:1034   */\n  dup4\n    /* \"#utility.yul\":1025:1039   */\n  add\n    /* \"#utility.yul\":1021:1044   */\n  div\n    /* \"#utility.yul\":1011:1044   */\n  swap1\n  pop\n    /* \"#utility.yul\":957:1050   */\n  swap2\n  swap1\n  pop\n  jump\t// out\n    /* \"#utility.yul\":1056:1163   */\ntag_20:\n    /* \"#utility.yul\":1100:1108   */\n  0x00\n    /* \"#utility.yul\":1150:1155   */\n  dup3\n    /* \"#utility.yul\":1144:1148   */\n  dup3\n    /* \"#utility.yul\":1140:1156   */\n  shl\n    /* \"#utility.yul\":1119:1156   */\n  swap1\n  pop\n    /* \"#utility.yul\":1056:1163   */\n  swap3\n  swap2\n  pop\n  pop\n  jump\t// out\n    /* \"#utility.yul\":1169:1562   */\ntag_21:\n    /* \"#utility.yul\":1238:1244   */\n  0x00\n    /* \"#utility.yul\":1288:1289   */\n  0x08\n    /* \"#utility.yul\":1276:1286   */\n  dup4\n    /* \"#utility.yul\":1272:1290   */\n  mul\n    /* \"#utility.yul\":1311:1408   */\n  tag_46\n    /* \"#utility.yul\":1341:1407   */\n  0xffffffffffffffffffffffffffffffffffffffffffffffffffffffffffffffff\n    /* \"#utility.yul\":1330:1339   */\n  dup3\n    /* \"#utility.yul\":1311:1408   */\n  tag_20\n  jump\t// in\ntag_46:\n    /* \"#utility.yul\":1429:1468   */\n  tag_47\n    /* \"#utility.yul\":1459:1467   */\n  dup7\n    /* \"#utility.yul\":1448:1457   */\n  dup4\n    /* \"#utility.yul\":1429:1468   */\n  tag_20\n  jump\t// in\ntag_47:\n    /* \"#utility.yul\":1417:1468   */\n  swap6\n  pop\n    /* \"#utility.yul\":1501:1505   */\n  dup1\n    /* \"#utility.yul\":1497:1506   */\n  not\n    /* \"#utility.yul\":1490:1495   */\n  dup5\n    /* \"#utility.yul\":1486:1507   */\n  and\n    /* \"#utility.yul\":1477:1507   */\n  swap4\n  pop\n    /* \"#utility.yul\":1550:1554   */\n  dup1\n    /* \"#utility.yul\":1540:1548   */\n  dup7\n    /* \"#utility.yul\":1536:1555   */\n  and\n    /* \"#utility.yul\":1529:1534   */\n  dup5\n    /* \"#utility.yul\":1526:1556   */\n  or\n    /* \"#utility.yul\":1516:1556   */\n  swap3\n  pop\n    /* \"#utility.yul\":1245:1562   */\n  pop\n  pop\n    /* \"#utility.yul\":1169:1562   */\n  swap4\n  swap3\n  pop\n  pop\n  pop\n  jump\t// out\n    /* \"#utility.yul\":1568:1645   */\ntag_22:\n    /* \"#utility.yul\":1605:1612   */\n  0x00\n    /* \"#utility.yul\":1634:1639   */\n  dup2\n    /* \"#utility.yul\":1623:1639   */\n  swap1\n  pop\n    /* \"#utility.yul\":1568:1645   */\n  swap2\n  swap1\n  pop\n  jump\t// out\n    /* \"#utility.yul\":1651:1711   */\ntag_23:\n    /* \"#utility.yul\":1679:1682   */\n  0x00\n    /* \"#utility.yul\":1700:1705   */\n  dup2\n    /* \"#utility.yul\":1693:1705   */\n  swap1\n  pop\n    /* \"#utility.yul\":1651:1711   */\n  swap2\n  swap1\n  pop\n  jump\t// out\n    /* \"#utility.yul\":1717:1859   */\ntag_24:\n    /* \"#utility.yul\":1767:1776   */\n  0x00\n    /* \"#utility.yul\":1800:1853   */\n  tag_51\n    /* \"#utility.yul\":1818:1852   */\n  tag_52\n    /* \"#utility.yul\":1827:1851   */\n  tag_53\n    /* \"#utility.yul\":1845:1850   */\n  dup5\n    /* \"#utility.yul\":1827:1851   */\n  tag_22\n  jump\t// in\ntag_53:\n    /* \"#utility.yul\":1818:1852   */\n  tag_23\n  jump\t// in\ntag_52:\n    /* \"#utility.yul\":1800:1853   */\n  tag_22\n  jump\t// in\ntag_51:\n    /* \"#utility.yul\":1787:1853   */\n  swap1\n  pop\n    /* \"#utility.yul\":1717:1859   */\n  swap2\n  swap1\n  pop\n  jump\t// out\n    /* \"#utility.yul\":1865:1940   */\ntag_25:\n    /* \"#utility.yul\":1908:1911   */\n  0x00\n    /* \"#utility.yul\":1929:1934   */\n  dup2\n    /* \"#utility.yul\":1922:1934   */\n  swap1\n  pop\n    /* \"#utility.yul\":1865:1940   */\n  swap2\n  swap1\n  pop\n  jump\t// out\n    /* \"#utility.yul\":1946:2215   */\ntag_26:\n    /* \"#utility.yul\":2056:2095   */\n  tag_56\n    /* \"#utility.yul\":2087:2094   */\n  dup4\n    /* \"#utility.yul\":2056:2095   */\n  tag_24\n  jump\t// in\ntag_56:\n    /* \"#utility.yul\":2117:2208   */\n  tag_57\n    /* \"#utility.yul\":2166:2207   */\n  tag_58\n    /* \"#utility.yul\":2190:2206   */\n  dup3\n    /* \"#utility.yul\":2166:2207   */\n  tag_25\n  jump\t// in\ntag_58:\n    /* \"#utility.yul\":2158:2164   */\n  dup5\n    /* \"#utility.yul\":2151:2155   */\n  dup5\n    /* \"#utility.yul\":2145:2156   */\n  sload\n    /* \"#utility.yul\":2117:2208   */\n  tag_21\n  jump\t// in\ntag_57:\n    /* \"#utility.yul\":2111:2115   */\n  dup3\n    /* \"#utility.yul\":2104:2209   */\n  sstore\n    /* \"#utility.yul\":2022:2215   */\n  pop\n    /* \"#utility.yul\":1946:2215   */\n  pop\n  pop\n  pop\n  jump\t// out\n    /* \"#utility.yul\":2221:2294   */\ntag_27:\n    /* \"#utility.yul\":2266:2269   */\n  0x00\n    /* \"#utility.yul\":2221:2294   */\n  swap1\n  jump\t// out\n    /* \"#utility.yul\":2300:2489   */\ntag_28:\n    /* \"#utility.yul\":2377:2409   */\n  tag_61\n  tag_27\n  jump\t// in\ntag_61:\n    /* \"#utility.yul\":2418:2483   */\n  tag_62\n    /* \"#utility.yul\":2476:2482   */\n  dup2\n    /* \"#utility.yul\":2468:2474   */\n  dup5\n    /* \"#utility.yul\":2462:2466   */\n  dup5\n    /* \"#utility.yul\":2418:2483   */\n  tag_26\n  jump\t// in\ntag_62:\n    /* \"#utility.yul\":2353:2489   */\n  pop\n    /* \"#utility.yul\":2300:2489   */\n  pop\n  pop\n  jump\t// out\n    /* \"#utility.yul\":2495:2681   */\ntag_29:\n    /* \"#utility.yul\":2555:2675   */\ntag_64:\n    /* \"#utility.yul\":2572:2575   */\n  dup2\n    /* \"#utility.yul\":2565:2570   */\n  dup2\n    /* \"#utility.yul\":2562:2576   */\n  lt\n    /* \"#utility.yul\":2555:2675   */\n  iszero\n  tag_66\n  jumpi\n    /* \"#utility.yul\":2626:2665   */\n  tag_67\n    /* \"#utility.yul\":2663:2664   */\n  0x00\n    /* \"#utility.yul\":2656:2661   */\n  dup3\n    /* \"#utility.yul\":2626:2665   */\n  tag_28\n  jump\t// in\ntag_67:\n    /* \"#utility.yul\":2599:2600   */\n  0x01\n    /* \"#utility.yul\":2592:2597   */\n  dup2\n    /* \"#utility.yul\":2588:2601   */\n  add\n    /* \"#utility.yul\":2579:2601   */\n  swap1\n  pop\n    /* \"#utility.yul\":2555:2675   */\n  jump(tag_64)\ntag_66:\n    /* \"#utility.yul\":2495:2681   */\n  pop\n  pop\n  jump\t// out\n    /* \"#utility.yul\":2687:3230   */\ntag_30:\n    /* \"#utility.yul\":2788:2790   */\n  0x1f\n    /* \"#utility.yul\":2783:2786   */\n  dup3\n    /* \"#utility.yul\":2780:2791   */\n  gt\n    /* \"#utility.yul\":2777:3223   */\n  iszero\n  tag_69\n  jumpi\n    /* \"#utility.yul\":2822:2860   */\n  tag_70\n    /* \"#utility.yul\":2854:2859   */\n  dup2\n    /* \"#utility.yul\":2822:2860   */\n  tag_18\n  jump\t// in\ntag_70:\n    /* \"#utility.yul\":2906:2935   */\n  tag_71\n    /* \"#utility.yul\":2924:2934   */\n  dup5\n    /* \"#utility.yul\":2906:2935   */\n  tag_19\n  jump\t// in\ntag_71:\n    /* \"#utility.yul\":2896:2904   */\n  dup2\n    /* \"#utility.yul\":2892:2936   */\n  add\n    /* \"#utility.yul\":3089:3091   */\n  0x20\n    /* \"#utility.yul\":3077:3087   */\n  dup6\n    /* \"#utility.yul\":3074:3092   */\n  lt\n    /* \"#utility.yul\":3071:3120   */\n  iszero\n  tag_72\n  jumpi\n    /* \"#utility.yul\":3110:3118   */\n  dup2\n    /* \"#utility.yul\":3095:3118   */\n  swap1\n  pop\n    /* \"#utility.yul\":3071:3120   */\ntag_72:\n    /* \"#utility.yul\":3133:3213   */\n  tag_73\n    /* \"#utility.yul\":3189:3211   */\n  tag_74\n    /* \"#utility.yul\":3207:3210   */\n  dup6\n    /* \"#utility.yul\":3189:3211   */\n  tag_19\n  jump\t// in\ntag_74:\n    /* \"#utility.yul\":3179:3187   */\n  dup4\n    /* \"#utility.yul\":3175:3212   */\n  add\n    /* \"#utility.yul\":3162:3173   */\n  dup3\n    /* \"#utility.yul\":3133:3213   */\n  tag_29\n  jump\t// in\ntag_73:\n    /* \"#utility.yul\":2792:3223   */\n  pop\n  pop\n    /* \"#utility.yul\":2777:3223   */\ntag_69:\n    /* \"#utility.yul\":2687:3230   */\n  pop\n  pop\n  pop\n  jump\t// out\n    /* \"#utility.yul\":3236:3353   */\ntag_31:\n    /* \"#utility.yul\":3290:3298   */\n  0x00\n    /* \"#utility.yul\":3340:3345   */\n  dup3\n    /* \"#utility.yul\":3334:3338   */\n  dup3\n    /* \"#utility.yul\":3330:3346   */\n  shr\n    /* \"#utility.yul\":3309:3346   */\n  swap1\n  pop\n    /* \"#utility.yul\":3236:3353   */\n  swap3\n  swap2\n  pop\n  pop\n  jump\t// out\n    /* \"#utility.yul\":3359:3528   */\ntag_32:\n    /* \"#utility.yul\":3403:3409   */\n  0x00\n    /* \"#utility.yul\":3436:3487   */\n  tag_77\n    /* \"#utility.yul\":3484:3485   */\n  0x00\n    /* \"#utility.yul\":3480:3486   */\n  not\n    /* \"#utility.yul\":3472:3477   */\n  dup5\n    /* \"#utility.yul\":3469:3470   */\n  0x08\n    /* \"#utility.yul\":3465:3478   */\n  mul\n    /* \"#utility.yul\":3436:3487   */\n  tag_31\n  jump\t// in\ntag_77:\n    /* \"#utility.yul\":3432:3488   */\n  not\n    /* \"#utility.yul\":3517:3521   */\n  dup1\n    /* \"#utility.yul\":3511:3515   */\n  dup4\n    /* \"#utility.yul\":3507:3522   */\n  and\n    /* \"#utility.yul\":3497:3522   */\n  swap2\n  pop\n    /* \"#utility.yul\":3410:3528   */\n  pop\n    /* \"#utility.yul\":3359:3528   */\n  swap3\n  swap2\n  pop\n  pop\n  jump\t// out\n    /* \"#utility.yul\":3533:3828   */\ntag_33:\n    /* \"#utility.yul\":3609:3613   */\n  0x00\n    /* \"#utility.yul\":3755:3784   */\n  tag_79\n    /* \"#utility.yul\":3780:3783   */\n  dup4\n    /* \"#utility.yul\":3774:3778   */\n  dup4\n    /* \"#utility.yul\":3755:3784   */\n  tag_32\n  jump\t// in\ntag_79:\n    /* \"#utility.yul\":3747:3784   */\n  swap2\n  pop\n    /* \"#utility.yul\":3817:3820   */\n  dup3\n    /* \"#utility.yul\":3814:3815   */\n  0x02\n    /* \"#utility.yul\":3810:3821   */\n  mul\n    /* \"#utility.yul\":3804:3808   */\n  dup3\n    /* \"#utility.yul\":3801:3822   */\n  or\n    /* \"#utility.yul\":3793:3822   */\n  swap1\n  pop\n    /* \"#utility.yul\":3533:3828   */\n  swap3\n  swap2\n  pop\n  pop\n  jump\t// out\n    /* \"#utility.yul\":3833:5228   */\ntag_2:\n    /* \"#utility.yul\":3950:3987   */\n  tag_81\n    /* \"#utility.yul\":3983:3986   */\n  dup3\n    /* \"#utility.yul\":3950:3987   */\n  tag_14\n  jump\t// in\ntag_81:\n    /* \"#utility.yul\":4052:4070   */\n  0xffffffffffffffff\n    /* \"#utility.yul\":4044:4050   */\n  dup2\n    /* \"#utility.yul\":4041:4071   */\n  gt\n    /* \"#utility.yul\":4038:4094   */\n  iszero\n  tag_82\n  jumpi\n    /* \"#utility.yul\":4074:4092   */\n  tag_83\n  tag_15\n  jump\t// in\ntag_83:\n    /* \"#utility.yul\":4038:4094   */\ntag_82:\n    /* \"#utility.yul\":4118:4156   */\n  tag_84\n    /* \"#utility.yul\":4150:4154   */\n  dup3\n    /* \"#utility.yul\":4144:4155   */\n  sload\n    /* \"#utility.yul\":4118:4156   */\n  tag_17\n  jump\t// in\ntag_84:\n    /* \"#utility.yul\":4203:4270   */\n  tag_85\n    /* \"#utility.yul\":4263:4269   */\n  dup3\n    /* \"#utility.yul\":4255:4261   */\n  dup3\n    /* \"#utility.yul\":4249:4253   */\n  dup6\n    /* \"#utility.yul\":4203:4270   */\n  tag_30\n  jump\t// in\ntag_85:\n    /* \"#utility.yul\":4297:4298   */\n  0x00\n    /* \"#utility.yul\":4321:4325   */\n  0x20\n    /* \"#utility.yul\":4308:4325   */\n  swap1\n  pop\n    /* \"#utility.yul\":4353:4355   */\n  0x1f\n    /* \"#utility.yul\":4345:4351   */\n  dup4\n    /* \"#utility.yul\":4342:4356   */\n  gt\n    /* \"#utility.yul\":4370:4371   */\n  0x01\n    /* \"#utility.yul\":4365:4983   */\n  dup2\n  eq\n  tag_87\n  jumpi\n    /* \"#utility.yul\":5027:5028   */\n  0x00\n    /* \"#utility.yul\":5044:5050   */\n  dup5\n    /* \"#utility.yul\":5041:5118   */\n  iszero\n  tag_88\n  jumpi\n    /* \"#utility.yul\":5093:5102   */\n  dup3\n    /* \"#utility.yul\":5088:5091   */\n  dup8\n    /* \"#utility.yul\":5084:5103   */\n  add\n    /* \"#utility.yul\":5078:5104   */\n  mload\n    /* \"#utility.yul\":5069:5104   */\n  swap1\n  pop\n    /* \"#utility.yul\":5041:5118   */\ntag_88:\n    /* \"#utility.yul\":5144:5211   */\n  tag_89\n    /* \"#utility.yul\":5204:5210   */\n  dup6\n    /* \"#utility.yul\":5197:5202   */\n  dup3\n    /* \"#utility.yul\":5144:5211   */\n  tag_33\n  jump\t// in\ntag_89:\n    /* \"#utility.yul\":5138:5142   */\n  dup7\n    /* \"#utility.yul\":5131:5212   */\n  sstore\n    /* \"#utility.yul\":5000:5222   */\n  pop\n    /* \"#utility.yul\":4335:5222   */\n  jump(tag_86)\n    /* \"#utility.yul\":4365:4983   */\ntag_87:\n    /* \"#utility.yul\":4417:4421   */\n  0x1f\n    /* \"#utility.yul\":4413:4422   */\n  not\n    /* \"#utility.yul\":4405:4411   */\n  dup5\n    /* \"#utility.yul\":4401:4423   */\n  and\n    /* \"#utility.yul\":4451:4488   */\n  tag_90\n    /* \"#utility.yul\":4483:4487   */\n  dup7\n    /* \"#utility.yul\":4451:4488   */\n  tag_18\n  jump\t// in\ntag_90:\n    /* \"#utility.yul\":4510:4511   */\n  0x00\n    /* \"#utility.yul\":4524:4732   */\ntag_91:\n    /* \"#utility.yul\":4538:4545   */\n  dup3\n    /* \"#utility.yul\":4535:4536   */\n  dup2\n    /* \"#utility.yul\":4532:4546   */\n  lt\n    /* \"#utility.yul\":4524:4732   */\n  iszero\n  tag_93\n  jumpi\n    /* \"#utility.yul\":4617:4626   */\n  dup5\n    /* \"#utility.yul\":4612:4615   */\n  dup10\n    /* \"#utility.yul\":4608:4627   */\n  add\n    /* \"#utility.yul\":4602:4628   */\n  mload\n    /* \"#utility.yul\":4594:4600   */\n  dup3\n    /* \"#utility.yul\":4587:4629   */\n  sstore\n    /* \"#utility.yul\":4668:4669   */\n  0x01\n    /* \"#utility.yul\":4660:4666   */\n  dup3\n    /* \"#utility.yul\":4656:4670   */\n  add\n    /* \"#utility.yul\":4646:4670   */\n  swap2\n  pop\n    /* \"#utility.yul\":4715:4717   */\n  0x20\n    /* \"#utility.yul\":4704:4713   */\n  dup6\n    /* \"#utility.yul\":4700:4718   */\n  add\n    /* \"#utility.yul\":4687:4718   */\n  swap5\n  pop\n    /* \"#utility.yul\":4561:4565   */\n  0x20\n    /* \"#utility.yul\":4558:4559   */\n  dup2\n    /* \"#utility.yul\":4554:4566   */\n  add\n    /* \"#utility.yul\":4549:4566   */\n  swap1\n  pop\n    /* \"#utility.yul\":4524:4732   */\n  jump(tag_91)\ntag_93:\n    /* \"#utility.yul\":4760:4766   */\n  dup7\n    /* \"#utility.yul\":4751:4758   */\n  dup4\n    /* \"#utility.yul\":4748:4767   */\n  lt\n    /* \"#utility.yul\":4745:4924   */\n  iszero\n  tag_94\n  jumpi\n    /* \"#utility.yul\":4818:4827   */\n  dup5\n    /* \"#utility.yul\":4813:4816   */\n  dup10\n    /* \"#utility.yul\":4809:4828   */\n  add\n    /* \"#utility.yul\":4803:4829   */\n  mload\n    /* \"#utility.yul\":4861:4909   */\n  tag_95\n    /* \"#utility.yul\":4903:4907   */\n  0x1f\n    /* \"#utility.yul\":4895:4901   */\n  dup10\n    /* \"#utility.yul\":4891:4908   */\n  and\n    /* \"#utility.yul\":4880:4889   */\n  dup3\n    /* \"#utility.yul\":4861:4909   */\n  tag_32\n  jump\t// in\ntag_95:\n    /* \"#utility.yul\":4853:4859   */\n  dup4\n    /* \"#utility.yul\":4846:4910   */\n  sstore\n    /* \"#utility.yul\":4768:4924   */\n  pop\n    /* \"#utility.yul\":4745:4924   */\ntag_94:\n    /* \"#utility.yul\":4970:4971   */\n  0x01\n    /* \"#utility.yul\":4966:4967   */\n  0x02\n    /* \"#utility.yul\":4958:4964   */\n  dup9\n    /* \"#utility.yul\":4954:4968   */\n  mul\n    /* \"#utility.yul\":4950:4972   */\n  add\n    /* \"#utility.yul\":4944:4948   */\n  dup9\n    /* \"#utility.yul\":4937:4973   */\n  sstore\n    /* \"#utility.yul\":4372:4983   */\n  pop\n  pop\n  pop\n    /* \"#utility.yul\":4335:5222   */\ntag_86:\n  pop\n    /* \"#utility.yul\":3925:5228   */\n  pop\n  pop\n  pop\n    /* \"#utility.yul\":3833:5228   */\n  pop\n  pop\n  jump\t// out\n    /* \"27_abi/abiTest.sol\":714:1880  contract abiDemo {... */\ntag_6:\n  dataSize(sub_0)\n  dup1\n  dataOffset(sub_0)\n  0x00\n  codecopy\n  0x00\n  return\nstop\n\nsub_0: assembly {\n        /* \"27_abi/abiTest.sol\":714:1880  contract abiDemo {... */\n      mstore(0x40, 0x80)\n      callvalue\n      dup1\n      iszero\n      tag_1\n      jumpi\n      0x00\n      dup1\n      revert\n    tag_1:\n      pop\n      jumpi(tag_2, lt(calldatasize, 0x04))\n      shr(0xe0, calldataload(0x00))\n      dup1\n      0x53d9c506\n      eq\n      tag_3\n      jumpi\n      dup1\n      0x78ea1d69\n      eq\n      tag_4\n      jumpi\n      dup1\n      0xbd14598f\n      eq\n      tag_5\n      jumpi\n      dup1\n      0xd1bd363d\n      eq\n      tag_6\n      jumpi\n      dup1\n      0xe4f2a84a\n      eq\n      tag_7\n      jumpi\n      dup1\n      0xe5c5e9a3\n      eq\n      tag_8\n      jumpi\n    tag_2:\n      0x00\n      dup1\n      revert\n        /* \"27_abi/abiTest.sol\":996:1125  function encodePacked() public view returns(bytes memory result) {... */\n    tag_3:\n      tag_9\n      tag_10\n      jump\t// in\n    tag_9:\n      mload(0x40)\n      tag_11\n      swap2\n      swap1\n      tag_12\n      jump\t// in\n    tag_11:\n      mload(0x40)\n      dup1\n      swap2\n      sub\n      swap1\n      return\n        /* \"27_abi/abiTest.sol\":1754:1878  function decode2(bytes memory data) public pure returns(string memory ss) {... */\n    tag_4:\n      tag_13\n      0x04\n      dup1\n      calldatasize\n      sub\n      dup2\n      add\n      swap1\n      tag_14\n      swap2\n      swap1\n      tag_15\n      jump\t// in\n    tag_14:\n      tag_16\n      jump\t// in\n    tag_13:\n      mload(0x40)\n      tag_17\n      swap2\n      swap1\n      tag_18\n      jump\t// in\n    tag_17:\n      mload(0x40)\n      dup1\n      swap2\n      sub\n      swap1\n      return\n        /* \"27_abi/abiTest.sol\":873:990  function encode() public view returns(bytes memory result) {... */\n    tag_5:\n      tag_19\n      tag_20\n      jump\t// in\n    tag_19:\n      mload(0x40)\n      tag_21\n      swap2\n      swap1\n      tag_12\n      jump\t// in\n    tag_21:\n      mload(0x40)\n      dup1\n      swap2\n      sub\n      swap1\n      return\n        /* \"27_abi/abiTest.sol\":1322:1524  function encodeWithSelector() public view returns(bytes memory result) {... */\n    tag_6:\n      tag_22\n      tag_23\n      jump\t// in\n    tag_22:\n      mload(0x40)\n      tag_24\n      swap2\n      swap1\n      tag_12\n      jump\t// in\n    tag_24:\n      mload(0x40)\n      dup1\n      swap2\n      sub\n      swap1\n      return\n        /* \"27_abi/abiTest.sol\":1131:1316  function encodeWithSignature() public view returns(bytes memory result) {... */\n    tag_7:\n      tag_25\n      tag_26\n      jump\t// in\n    tag_25:\n      mload(0x40)\n      tag_27\n      swap2\n      swap1\n      tag_12\n      jump\t// in\n    tag_27:\n      mload(0x40)\n      dup1\n      swap2\n      sub\n      swap1\n      return\n        /* \"27_abi/abiTest.sol\":1530:1749  function decode(bytes memory data) public pure returns(uint dx, address daddr, string memory dname, uint[2] memory darray) {... */\n    tag_8:\n      tag_28\n      0x04\n      dup1\n      calldatasize\n      sub\n      dup2\n      add\n      swap1\n      tag_29\n      swap2\n      swap1\n      tag_15\n      jump\t// in\n    tag_29:\n      tag_30\n      jump\t// in\n    tag_28:\n      mload(0x40)\n      tag_31\n      swap5\n      swap4\n      swap3\n      swap2\n      swap1\n      tag_32\n      jump\t// in\n    tag_31:\n      mload(0x40)\n      dup1\n      swap2\n      sub\n      swap1\n      return\n        /* \"27_abi/abiTest.sol\":996:1125  function encodePacked() public view returns(bytes memory result) {... */\n    tag_10:\n        /* \"27_abi/abiTest.sol\":1040:1059  bytes memory result */\n      0x60\n        /* \"27_abi/abiTest.sol\":1097:1098  x */\n      sload(0x00)\n        /* \"27_abi/abiTest.sol\":1100:1104  addr */\n      0x01\n      0x00\n      swap1\n      sload\n      swap1\n      0x0100\n      exp\n      swap1\n      div\n      0xffffffffffffffffffffffffffffffffffffffff\n      and\n        /* \"27_abi/abiTest.sol\":1106:1110  name */\n      0x02\n        /* \"27_abi/abiTest.sol\":1112:1117  array */\n      0x03\n        /* \"27_abi/abiTest.sol\":1080:1118  abi.encodePacked(x, addr, name, array) */\n      add(0x20, mload(0x40))\n      tag_34\n      swap5\n      swap4\n      swap3\n      swap2\n      swap1\n      tag_35\n      jump\t// in\n    tag_34:\n      mload(0x40)\n      0x20\n      dup2\n      dup4\n      sub\n      sub\n      dup2\n      mstore\n      swap1\n      0x40\n      mstore\n        /* \"27_abi/abiTest.sol\":1071:1118  result = abi.encodePacked(x, addr, name, array) */\n      swap1\n      pop\n        /* \"27_abi/abiTest.sol\":996:1125  function encodePacked() public view returns(bytes memory result) {... */\n      swap1\n      jump\t// out\n        /* \"27_abi/abiTest.sol\":1754:1878  function decode2(bytes memory data) public pure returns(string memory ss) {... */\n    tag_16:\n        /* \"27_abi/abiTest.sol\":1810:1826  string memory ss */\n      0x60\n        /* \"27_abi/abiTest.sol\":1856:1860  data */\n      dup2\n        /* \"27_abi/abiTest.sol\":1845:1871  abi.decode(data, (string)) */\n      dup1\n      0x20\n      add\n      swap1\n      mload\n      dup2\n      add\n      swap1\n      tag_37\n      swap2\n      swap1\n      tag_38\n      jump\t// in\n    tag_37:\n        /* \"27_abi/abiTest.sol\":1838:1871  (ss) = abi.decode(data, (string)) */\n      swap1\n      pop\n        /* \"27_abi/abiTest.sol\":1754:1878  function decode2(bytes memory data) public pure returns(string memory ss) {... */\n      swap2\n      swap1\n      pop\n      jump\t// out\n        /* \"27_abi/abiTest.sol\":873:990  function encode() public view returns(bytes memory result) {... */\n    tag_20:\n        /* \"27_abi/abiTest.sol\":911:930  bytes memory result */\n      0x60\n        /* \"27_abi/abiTest.sol\":962:963  x */\n      sload(0x00)\n        /* \"27_abi/abiTest.sol\":965:969  addr */\n      0x01\n      0x00\n      swap1\n      sload\n      swap1\n      0x0100\n      exp\n      swap1\n      div\n      0xffffffffffffffffffffffffffffffffffffffff\n      and\n        /* \"27_abi/abiTest.sol\":971:975  name */\n      0x02\n        /* \"27_abi/abiTest.sol\":977:982  array */\n      0x03\n        /* \"27_abi/abiTest.sol\":951:983  abi.encode(x, addr, name, array) */\n      add(0x20, mload(0x40))\n      tag_40\n      swap5\n      swap4\n      swap3\n      swap2\n      swap1\n      tag_41\n      jump\t// in\n    tag_40:\n      mload(0x40)\n      0x20\n      dup2\n      dup4\n      sub\n      sub\n      dup2\n      mstore\n      swap1\n      0x40\n      mstore\n        /* \"27_abi/abiTest.sol\":942:983  result = abi.encode(x, addr, name, array) */\n      swap1\n      pop\n        /* \"27_abi/abiTest.sol\":873:990  function encode() public view returns(bytes memory result) {... */\n      swap1\n      jump\t// out\n        /* \"27_abi/abiTest.sol\":1322:1524  function encodeWithSelector() public view returns(bytes memory result) {... */\n    tag_23:\n        /* \"27_abi/abiTest.sol\":1372:1391  bytes memory result */\n      0x60\n        /* \"27_abi/abiTest.sol\":1442:1493  keccak256(\"foo(uint256,address,string,uint256[2])\") */\n      0xe87082f1450a46f8f3150d7bda55bda41a2b08d68abde6797ccc68be30567335\n        /* \"27_abi/abiTest.sol\":1496:1497  x */\n      sload(0x00)\n        /* \"27_abi/abiTest.sol\":1499:1503  addr */\n      0x01\n      0x00\n      swap1\n      sload\n      swap1\n      0x0100\n      exp\n      swap1\n      div\n      0xffffffffffffffffffffffffffffffffffffffff\n      and\n        /* \"27_abi/abiTest.sol\":1505:1509  name */\n      0x02\n        /* \"27_abi/abiTest.sol\":1511:1516  array */\n      0x03\n        /* \"27_abi/abiTest.sol\":1412:1517  abi.encodeWithSelector(bytes4(keccak256(\"foo(uint256,address,string,uint256[2])\")), x, addr, name, array) */\n      add(0x24, mload(0x40))\n      tag_43\n      swap5\n      swap4\n      swap3\n      swap2\n      swap1\n      tag_41\n      jump\t// in\n    tag_43:\n      mload(0x40)\n      0x20\n      dup2\n      dup4\n      sub\n      sub\n      dup2\n      mstore\n      swap1\n      0x40\n      mstore\n      swap1\n      not(0xffffffffffffffffffffffffffffffffffffffffffffffffffffffff)\n      and\n      0x20\n      dup3\n      add\n      dup1\n      mload\n      0xffffffffffffffffffffffffffffffffffffffffffffffffffffffff\n      dup4\n      dup2\n      dup4\n      and\n      or\n      dup4\n      mstore\n      pop\n      pop\n      pop\n      pop\n        /* \"27_abi/abiTest.sol\":1403:1517  result = abi.encodeWithSelector(bytes4(keccak256(\"foo(uint256,address,string,uint256[2])\")), x, addr, name, array) */\n      swap1\n      pop\n        /* \"27_abi/abiTest.sol\":1322:1524  function encodeWithSelector() public view returns(bytes memory result) {... */\n      swap1\n      jump\t// out\n        /* \"27_abi/abiTest.sol\":1131:1316  function encodeWithSignature() public view returns(bytes memory result) {... */\n    tag_26:\n        /* \"27_abi/abiTest.sol\":1182:1201  bytes memory result */\n      0x60\n        /* \"27_abi/abiTest.sol\":1288:1289  x */\n      sload(0x00)\n        /* \"27_abi/abiTest.sol\":1291:1295  addr */\n      0x01\n      0x00\n      swap1\n      sload\n      swap1\n      0x0100\n      exp\n      swap1\n      div\n      0xffffffffffffffffffffffffffffffffffffffff\n      and\n        /* \"27_abi/abiTest.sol\":1297:1301  name */\n      0x02\n        /* \"27_abi/abiTest.sol\":1303:1308  array */\n      0x03\n        /* \"27_abi/abiTest.sol\":1222:1309  abi.encodeWithSignature(\"foo(uint256,address,string,uint256[2])\", x, addr, name, array) */\n      add(0x24, mload(0x40))\n      tag_45\n      swap5\n      swap4\n      swap3\n      swap2\n      swap1\n      tag_41\n      jump\t// in\n    tag_45:\n      mload(0x40)\n      0x20\n      dup2\n      dup4\n      sub\n      sub\n      dup2\n      mstore\n      swap1\n      0x40\n      mstore\n      and(not(0xffffffffffffffffffffffffffffffffffffffffffffffffffffffff), 0xe87082f100000000000000000000000000000000000000000000000000000000)\n      0x20\n      dup3\n      add\n      dup1\n      mload\n      0xffffffffffffffffffffffffffffffffffffffffffffffffffffffff\n      dup4\n      dup2\n      dup4\n      and\n      or\n      dup4\n      mstore\n      pop\n      pop\n      pop\n      pop\n        /* \"27_abi/abiTest.sol\":1213:1309  result = abi.encodeWithSignature(\"foo(uint256,address,string,uint256[2])\", x, addr, name, array) */\n      swap1\n      pop\n        /* \"27_abi/abiTest.sol\":1131:1316  function encodeWithSignature() public view returns(bytes memory result) {... */\n      swap1\n      jump\t// out\n        /* \"27_abi/abiTest.sol\":1530:1749  function decode(bytes memory data) public pure returns(uint dx, address daddr, string memory dname, uint[2] memory darray) {... */\n    tag_30:\n        /* \"27_abi/abiTest.sol\":1585:1592  uint dx */\n      0x00\n        /* \"27_abi/abiTest.sol\":1594:1607  address daddr */\n      dup1\n        /* \"27_abi/abiTest.sol\":1609:1628  string memory dname */\n      0x60\n        /* \"27_abi/abiTest.sol\":1630:1651  uint[2] memory darray */\n      tag_46\n      tag_47\n      jump\t// in\n    tag_46:\n        /* \"27_abi/abiTest.sol\":1703:1707  data */\n      dup5\n        /* \"27_abi/abiTest.sol\":1692:1742  abi.decode(data, (uint, address, string, uint[2])) */\n      dup1\n      0x20\n      add\n      swap1\n      mload\n      dup2\n      add\n      swap1\n      tag_49\n      swap2\n      swap1\n      tag_50\n      jump\t// in\n    tag_49:\n        /* \"27_abi/abiTest.sol\":1663:1742  (dx, daddr, dname, darray) = abi.decode(data, (uint, address, string, uint[2])) */\n      dup1\n      swap5\n      pop\n      dup2\n      swap6\n      pop\n      dup3\n      swap7\n      pop\n      dup4\n      swap8\n      pop\n      pop\n      pop\n      pop\n      pop\n        /* \"27_abi/abiTest.sol\":1530:1749  function decode(bytes memory data) public pure returns(uint dx, address daddr, string memory dname, uint[2] memory darray) {... */\n      swap2\n      swap4\n      pop\n      swap2\n      swap4\n      jump\t// out\n    tag_47:\n      mload(0x40)\n      dup1\n      0x40\n      add\n      0x40\n      mstore\n      dup1\n      0x02\n      swap1\n      0x20\n      dup3\n      mul\n      dup1\n      calldatasize\n      dup4\n      calldatacopy\n      dup1\n      dup3\n      add\n      swap2\n      pop\n      pop\n      swap1\n      pop\n      pop\n      swap1\n      jump\t// out\n        /* \"#utility.yul\":7:105   */\n    tag_51:\n        /* \"#utility.yul\":58:64   */\n      0x00\n        /* \"#utility.yul\":92:97   */\n      dup2\n        /* \"#utility.yul\":86:98   */\n      mload\n        /* \"#utility.yul\":76:98   */\n      swap1\n      pop\n        /* \"#utility.yul\":7:105   */\n      swap2\n      swap1\n      pop\n      jump\t// out\n        /* \"#utility.yul\":111:279   */\n    tag_52:\n        /* \"#utility.yul\":194:205   */\n      0x00\n        /* \"#utility.yul\":228:234   */\n      dup3\n        /* \"#utility.yul\":223:226   */\n      dup3\n        /* \"#utility.yul\":216:235   */\n      mstore\n        /* \"#utility.yul\":268:272   */\n      0x20\n        /* \"#utility.yul\":263:266   */\n      dup3\n        /* \"#utility.yul\":259:273   */\n      add\n        /* \"#utility.yul\":244:273   */\n      swap1\n      pop\n        /* \"#utility.yul\":111:279   */\n      swap3\n      swap2\n      pop\n      pop\n      jump\t// out\n        /* \"#utility.yul\":285:424   */\n    tag_53:\n        /* \"#utility.yul\":374:380   */\n      dup3\n        /* \"#utility.yul\":369:372   */\n      dup2\n        /* \"#utility.yul\":364:367   */\n      dup4\n        /* \"#utility.yul\":358:381   */\n      mcopy\n        /* \"#utility.yul\":415:416   */\n      0x00\n        /* \"#utility.yul\":406:412   */\n      dup4\n        /* \"#utility.yul\":401:404   */\n      dup4\n        /* \"#utility.yul\":397:413   */\n      add\n        /* \"#utility.yul\":390:417   */\n      mstore\n        /* \"#utility.yul\":285:424   */\n      pop\n      pop\n      pop\n      jump\t// out\n        /* \"#utility.yul\":430:532   */\n    tag_54:\n        /* \"#utility.yul\":471:477   */\n      0x00\n        /* \"#utility.yul\":522:524   */\n      0x1f\n        /* \"#utility.yul\":518:525   */\n      not\n        /* \"#utility.yul\":513:515   */\n      0x1f\n        /* \"#utility.yul\":506:511   */\n      dup4\n        /* \"#utility.yul\":502:516   */\n      add\n        /* \"#utility.yul\":498:526   */\n      and\n        /* \"#utility.yul\":488:526   */\n      swap1\n      pop\n        /* \"#utility.yul\":430:532   */\n      swap2\n      swap1\n      pop\n      jump\t// out\n        /* \"#utility.yul\":538:911   */\n    tag_55:\n        /* \"#utility.yul\":624:627   */\n      0x00\n        /* \"#utility.yul\":652:690   */\n      tag_125\n        /* \"#utility.yul\":684:689   */\n      dup3\n        /* \"#utility.yul\":652:690   */\n      tag_51\n      jump\t// in\n    tag_125:\n        /* \"#utility.yul\":706:776   */\n      tag_126\n        /* \"#utility.yul\":769:775   */\n      dup2\n        /* \"#utility.yul\":764:767   */\n      dup6\n        /* \"#utility.yul\":706:776   */\n      tag_52\n      jump\t// in\n    tag_126:\n        /* \"#utility.yul\":699:776   */\n      swap4\n      pop\n        /* \"#utility.yul\":785:850   */\n      tag_127\n        /* \"#utility.yul\":843:849   */\n      dup2\n        /* \"#utility.yul\":838:841   */\n      dup6\n        /* \"#utility.yul\":831:835   */\n      0x20\n        /* \"#utility.yul\":824:829   */\n      dup7\n        /* \"#utility.yul\":820:836   */\n      add\n        /* \"#utility.yul\":785:850   */\n      tag_53\n      jump\t// in\n    tag_127:\n        /* \"#utility.yul\":875:904   */\n      tag_128\n        /* \"#utility.yul\":897:903   */\n      dup2\n        /* \"#utility.yul\":875:904   */\n      tag_54\n      jump\t// in\n    tag_128:\n        /* \"#utility.yul\":870:873   */\n      dup5\n        /* \"#utility.yul\":866:905   */\n      add\n        /* \"#utility.yul\":859:905   */\n      swap2\n      pop\n        /* \"#utility.yul\":628:911   */\n      pop\n        /* \"#utility.yul\":538:911   */\n      swap3\n      swap2\n      pop\n      pop\n      jump\t// out\n        /* \"#utility.yul\":917:1226   */\n    tag_12:\n        /* \"#utility.yul\":1028:1032   */\n      0x00\n        /* \"#utility.yul\":1066:1068   */\n      0x20\n        /* \"#utility.yul\":1055:1064   */\n      dup3\n        /* \"#utility.yul\":1051:1069   */\n      add\n        /* \"#utility.yul\":1043:1069   */\n      swap1\n      pop\n        /* \"#utility.yul\":1115:1124   */\n      dup2\n        /* \"#utility.yul\":1109:1113   */\n      dup2\n        /* \"#utility.yul\":1105:1125   */\n      sub\n        /* \"#utility.yul\":1101:1102   */\n      0x00\n        /* \"#utility.yul\":1090:1099   */\n      dup4\n        /* \"#utility.yul\":1086:1103   */\n      add\n        /* \"#utility.yul\":1079:1126   */\n      mstore\n        /* \"#utility.yul\":1143:1219   */\n      tag_130\n        /* \"#utility.yul\":1214:1218   */\n      dup2\n        /* \"#utility.yul\":1205:1211   */\n      dup5\n        /* \"#utility.yul\":1143:1219   */\n      tag_55\n      jump\t// in\n    tag_130:\n        /* \"#utility.yul\":1135:1219   */\n      swap1\n      pop\n        /* \"#utility.yul\":917:1226   */\n      swap3\n      swap2\n      pop\n      pop\n      jump\t// out\n        /* \"#utility.yul\":1232:1307   */\n    tag_56:\n        /* \"#utility.yul\":1265:1271   */\n      0x00\n        /* \"#utility.yul\":1298:1300   */\n      0x40\n        /* \"#utility.yul\":1292:1301   */\n      mload\n        /* \"#utility.yul\":1282:1301   */\n      swap1\n      pop\n        /* \"#utility.yul\":1232:1307   */\n      swap1\n      jump\t// out\n        /* \"#utility.yul\":1313:1430   */\n    tag_57:\n        /* \"#utility.yul\":1422:1423   */\n      0x00\n        /* \"#utility.yul\":1419:1420   */\n      dup1\n        /* \"#utility.yul\":1412:1424   */\n      revert\n        /* \"#utility.yul\":1436:1553   */\n    tag_58:\n        /* \"#utility.yul\":1545:1546   */\n      0x00\n        /* \"#utility.yul\":1542:1543   */\n      dup1\n        /* \"#utility.yul\":1535:1547   */\n      revert\n        /* \"#utility.yul\":1559:1676   */\n    tag_59:\n        /* \"#utility.yul\":1668:1669   */\n      0x00\n        /* \"#utility.yul\":1665:1666   */\n      dup1\n        /* \"#utility.yul\":1658:1670   */\n      revert\n        /* \"#utility.yul\":1682:1799   */\n    tag_60:\n        /* \"#utility.yul\":1791:1792   */\n      0x00\n        /* \"#utility.yul\":1788:1789   */\n      dup1\n        /* \"#utility.yul\":1781:1793   */\n      revert\n        /* \"#utility.yul\":1805:1985   */\n    tag_61:\n        /* \"#utility.yul\":1853:1930   */\n      0x4e487b7100000000000000000000000000000000000000000000000000000000\n        /* \"#utility.yul\":1850:1851   */\n      0x00\n        /* \"#utility.yul\":1843:1931   */\n      mstore\n        /* \"#utility.yul\":1950:1954   */\n      0x41\n        /* \"#utility.yul\":1947:1948   */\n      0x04\n        /* \"#utility.yul\":1940:1955   */\n      mstore\n        /* \"#utility.yul\":1974:1978   */\n      0x24\n        /* \"#utility.yul\":1971:1972   */\n      0x00\n        /* \"#utility.yul\":1964:1979   */\n      revert\n        /* \"#utility.yul\":1991:2272   */\n    tag_62:\n        /* \"#utility.yul\":2074:2101   */\n      tag_138\n        /* \"#utility.yul\":2096:2100   */\n      dup3\n        /* \"#utility.yul\":2074:2101   */\n      tag_54\n      jump\t// in\n    tag_138:\n        /* \"#utility.yul\":2066:2072   */\n      dup2\n        /* \"#utility.yul\":2062:2102   */\n      add\n        /* \"#utility.yul\":2204:2210   */\n      dup2\n        /* \"#utility.yul\":2192:2202   */\n      dup2\n        /* \"#utility.yul\":2189:2211   */\n      lt\n        /* \"#utility.yul\":2168:2186   */\n      0xffffffffffffffff\n        /* \"#utility.yul\":2156:2166   */\n      dup3\n        /* \"#utility.yul\":2153:2187   */\n      gt\n        /* \"#utility.yul\":2150:2212   */\n      or\n        /* \"#utility.yul\":2147:2235   */\n      iszero\n      tag_139\n      jumpi\n        /* \"#utility.yul\":2215:2233   */\n      tag_140\n      tag_61\n      jump\t// in\n    tag_140:\n        /* \"#utility.yul\":2147:2235   */\n    tag_139:\n        /* \"#utility.yul\":2255:2265   */\n      dup1\n        /* \"#utility.yul\":2251:2253   */\n      0x40\n        /* \"#utility.yul\":2244:2266   */\n      mstore\n        /* \"#utility.yul\":2034:2272   */\n      pop\n        /* \"#utility.yul\":1991:2272   */\n      pop\n      pop\n      jump\t// out\n        /* \"#utility.yul\":2278:2407   */\n    tag_63:\n        /* \"#utility.yul\":2312:2318   */\n      0x00\n        /* \"#utility.yul\":2339:2359   */\n      tag_142\n      tag_56\n      jump\t// in\n    tag_142:\n        /* \"#utility.yul\":2329:2359   */\n      swap1\n      pop\n        /* \"#utility.yul\":2368:2401   */\n      tag_143\n        /* \"#utility.yul\":2396:2400   */\n      dup3\n        /* \"#utility.yul\":2388:2394   */\n      dup3\n        /* \"#utility.yul\":2368:2401   */\n      tag_62\n      jump\t// in\n    tag_143:\n        /* \"#utility.yul\":2278:2407   */\n      swap2\n      swap1\n      pop\n      jump\t// out\n        /* \"#utility.yul\":2413:2720   */\n    tag_64:\n        /* \"#utility.yul\":2474:2478   */\n      0x00\n        /* \"#utility.yul\":2564:2582   */\n      0xffffffffffffffff\n        /* \"#utility.yul\":2556:2562   */\n      dup3\n        /* \"#utility.yul\":2553:2583   */\n      gt\n        /* \"#utility.yul\":2550:2606   */\n      iszero\n      tag_145\n      jumpi\n        /* \"#utility.yul\":2586:2604   */\n      tag_146\n      tag_61\n      jump\t// in\n    tag_146:\n        /* \"#utility.yul\":2550:2606   */\n    tag_145:\n        /* \"#utility.yul\":2624:2653   */\n      tag_147\n        /* \"#utility.yul\":2646:2652   */\n      dup3\n        /* \"#utility.yul\":2624:2653   */\n      tag_54\n      jump\t// in\n    tag_147:\n        /* \"#utility.yul\":2616:2653   */\n      swap1\n      pop\n        /* \"#utility.yul\":2708:2712   */\n      0x20\n        /* \"#utility.yul\":2702:2706   */\n      dup2\n        /* \"#utility.yul\":2698:2713   */\n      add\n        /* \"#utility.yul\":2690:2713   */\n      swap1\n      pop\n        /* \"#utility.yul\":2413:2720   */\n      swap2\n      swap1\n      pop\n      jump\t// out\n        /* \"#utility.yul\":2726:2874   */\n    tag_65:\n        /* \"#utility.yul\":2824:2830   */\n      dup3\n        /* \"#utility.yul\":2819:2822   */\n      dup2\n        /* \"#utility.yul\":2814:2817   */\n      dup4\n        /* \"#utility.yul\":2801:2831   */\n      calldatacopy\n        /* \"#utility.yul\":2865:2866   */\n      0x00\n        /* \"#utility.yul\":2856:2862   */\n      dup4\n        /* \"#utility.yul\":2851:2854   */\n      dup4\n        /* \"#utility.yul\":2847:2863   */\n      add\n        /* \"#utility.yul\":2840:2867   */\n      mstore\n        /* \"#utility.yul\":2726:2874   */\n      pop\n      pop\n      pop\n      jump\t// out\n        /* \"#utility.yul\":2880:3303   */\n    tag_66:\n        /* \"#utility.yul\":2957:2962   */\n      0x00\n        /* \"#utility.yul\":2982:3047   */\n      tag_150\n        /* \"#utility.yul\":2998:3046   */\n      tag_151\n        /* \"#utility.yul\":3039:3045   */\n      dup5\n        /* \"#utility.yul\":2998:3046   */\n      tag_64\n      jump\t// in\n    tag_151:\n        /* \"#utility.yul\":2982:3047   */\n      tag_63\n      jump\t// in\n    tag_150:\n        /* \"#utility.yul\":2973:3047   */\n      swap1\n      pop\n        /* \"#utility.yul\":3070:3076   */\n      dup3\n        /* \"#utility.yul\":3063:3068   */\n      dup2\n        /* \"#utility.yul\":3056:3077   */\n      mstore\n        /* \"#utility.yul\":3108:3112   */\n      0x20\n        /* \"#utility.yul\":3101:3106   */\n      dup2\n        /* \"#utility.yul\":3097:3113   */\n      add\n        /* \"#utility.yul\":3146:3149   */\n      dup5\n        /* \"#utility.yul\":3137:3143   */\n      dup5\n        /* \"#utility.yul\":3132:3135   */\n      dup5\n        /* \"#utility.yul\":3128:3144   */\n      add\n        /* \"#utility.yul\":3125:3150   */\n      gt\n        /* \"#utility.yul\":3122:3234   */\n      iszero\n      tag_152\n      jumpi\n        /* \"#utility.yul\":3153:3232   */\n      tag_153\n      tag_60\n      jump\t// in\n    tag_153:\n        /* \"#utility.yul\":3122:3234   */\n    tag_152:\n        /* \"#utility.yul\":3243:3297   */\n      tag_154\n        /* \"#utility.yul\":3290:3296   */\n      dup5\n        /* \"#utility.yul\":3285:3288   */\n      dup3\n        /* \"#utility.yul\":3280:3283   */\n      dup6\n        /* \"#utility.yul\":3243:3297   */\n      tag_65\n      jump\t// in\n    tag_154:\n        /* \"#utility.yul\":2963:3303   */\n      pop\n        /* \"#utility.yul\":2880:3303   */\n      swap4\n      swap3\n      pop\n      pop\n      pop\n      jump\t// out\n        /* \"#utility.yul\":3322:3660   */\n    tag_67:\n        /* \"#utility.yul\":3377:3382   */\n      0x00\n        /* \"#utility.yul\":3426:3429   */\n      dup3\n        /* \"#utility.yul\":3419:3423   */\n      0x1f\n        /* \"#utility.yul\":3411:3417   */\n      dup4\n        /* \"#utility.yul\":3407:3424   */\n      add\n        /* \"#utility.yul\":3403:3430   */\n      slt\n        /* \"#utility.yul\":3393:3515   */\n      tag_156\n      jumpi\n        /* \"#utility.yul\":3434:3513   */\n      tag_157\n      tag_59\n      jump\t// in\n    tag_157:\n        /* \"#utility.yul\":3393:3515   */\n    tag_156:\n        /* \"#utility.yul\":3551:3557   */\n      dup2\n        /* \"#utility.yul\":3538:3558   */\n      calldataload\n        /* \"#utility.yul\":3576:3654   */\n      tag_158\n        /* \"#utility.yul\":3650:3653   */\n      dup5\n        /* \"#utility.yul\":3642:3648   */\n      dup3\n        /* \"#utility.yul\":3635:3639   */\n      0x20\n        /* \"#utility.yul\":3627:3633   */\n      dup7\n        /* \"#utility.yul\":3623:3640   */\n      add\n        /* \"#utility.yul\":3576:3654   */\n      tag_66\n      jump\t// in\n    tag_158:\n        /* \"#utility.yul\":3567:3654   */\n      swap2\n      pop\n        /* \"#utility.yul\":3383:3660   */\n      pop\n        /* \"#utility.yul\":3322:3660   */\n      swap3\n      swap2\n      pop\n      pop\n      jump\t// out\n        /* \"#utility.yul\":3666:4173   */\n    tag_15:\n        /* \"#utility.yul\":3734:3740   */\n      0x00\n        /* \"#utility.yul\":3783:3785   */\n      0x20\n        /* \"#utility.yul\":3771:3780   */\n      dup3\n        /* \"#utility.yul\":3762:3769   */\n      dup5\n        /* \"#utility.yul\":3758:3781   */\n      sub\n        /* \"#utility.yul\":3754:3786   */\n      slt\n        /* \"#utility.yul\":3751:3870   */\n      iszero\n      tag_160\n      jumpi\n        /* \"#utility.yul\":3789:3868   */\n      tag_161\n      tag_57\n      jump\t// in\n    tag_161:\n        /* \"#utility.yul\":3751:3870   */\n    tag_160:\n        /* \"#utility.yul\":3937:3938   */\n      0x00\n        /* \"#utility.yul\":3926:3935   */\n      dup3\n        /* \"#utility.yul\":3922:3939   */\n      add\n        /* \"#utility.yul\":3909:3940   */\n      calldataload\n        /* \"#utility.yul\":3967:3985   */\n      0xffffffffffffffff\n        /* \"#utility.yul\":3959:3965   */\n      dup2\n        /* \"#utility.yul\":3956:3986   */\n      gt\n        /* \"#utility.yul\":3953:4070   */\n      iszero\n      tag_162\n      jumpi\n        /* \"#utility.yul\":3989:4068   */\n      tag_163\n      tag_58\n      jump\t// in\n    tag_163:\n        /* \"#utility.yul\":3953:4070   */\n    tag_162:\n        /* \"#utility.yul\":4094:4156   */\n      tag_164\n        /* \"#utility.yul\":4148:4155   */\n      dup5\n        /* \"#utility.yul\":4139:4145   */\n      dup3\n        /* \"#utility.yul\":4128:4137   */\n      dup6\n        /* \"#utility.yul\":4124:4146   */\n      add\n        /* \"#utility.yul\":4094:4156   */\n      tag_67\n      jump\t// in\n    tag_164:\n        /* \"#utility.yul\":4084:4156   */\n      swap2\n      pop\n        /* \"#utility.yul\":3880:4166   */\n      pop\n        /* \"#utility.yul\":3666:4173   */\n      swap3\n      swap2\n      pop\n      pop\n      jump\t// out\n        /* \"#utility.yul\":4179:4278   */\n    tag_68:\n        /* \"#utility.yul\":4231:4237   */\n      0x00\n        /* \"#utility.yul\":4265:4270   */\n      dup2\n        /* \"#utility.yul\":4259:4271   */\n      mload\n        /* \"#utility.yul\":4249:4271   */\n      swap1\n      pop\n        /* \"#utility.yul\":4179:4278   */\n      swap2\n      swap1\n      pop\n      jump\t// out\n        /* \"#utility.yul\":4284:4453   */\n    tag_69:\n        /* \"#utility.yul\":4368:4379   */\n      0x00\n        /* \"#utility.yul\":4402:4408   */\n      dup3\n        /* \"#utility.yul\":4397:4400   */\n      dup3\n        /* \"#utility.yul\":4390:4409   */\n      mstore\n        /* \"#utility.yul\":4442:4446   */\n      0x20\n        /* \"#utility.yul\":4437:4440   */\n      dup3\n        /* \"#utility.yul\":4433:4447   */\n      add\n        /* \"#utility.yul\":4418:4447   */\n      swap1\n      pop\n        /* \"#utility.yul\":4284:4453   */\n      swap3\n      swap2\n      pop\n      pop\n      jump\t// out\n        /* \"#utility.yul\":4459:4836   */\n    tag_70:\n        /* \"#utility.yul\":4547:4550   */\n      0x00\n        /* \"#utility.yul\":4575:4614   */\n      tag_168\n        /* \"#utility.yul\":4608:4613   */\n      dup3\n        /* \"#utility.yul\":4575:4614   */\n      tag_68\n      jump\t// in\n    tag_168:\n        /* \"#utility.yul\":4630:4701   */\n      tag_169\n        /* \"#utility.yul\":4694:4700   */\n      dup2\n        /* \"#utility.yul\":4689:4692   */\n      dup6\n        /* \"#utility.yul\":4630:4701   */\n      tag_69\n      jump\t// in\n    tag_169:\n        /* \"#utility.yul\":4623:4701   */\n      swap4\n      pop\n        /* \"#utility.yul\":4710:4775   */\n      tag_170\n        /* \"#utility.yul\":4768:4774   */\n      dup2\n        /* \"#utility.yul\":4763:4766   */\n      dup6\n        /* \"#utility.yul\":4756:4760   */\n      0x20\n        /* \"#utility.yul\":4749:4754   */\n      dup7\n        /* \"#utility.yul\":4745:4761   */\n      add\n        /* \"#utility.yul\":4710:4775   */\n      tag_53\n      jump\t// in\n    tag_170:\n        /* \"#utility.yul\":4800:4829   */\n      tag_171\n        /* \"#utility.yul\":4822:4828   */\n      dup2\n        /* \"#utility.yul\":4800:4829   */\n      tag_54\n      jump\t// in\n    tag_171:\n        /* \"#utility.yul\":4795:4798   */\n      dup5\n        /* \"#utility.yul\":4791:4830   */\n      add\n        /* \"#utility.yul\":4784:4830   */\n      swap2\n      pop\n        /* \"#utility.yul\":4551:4836   */\n      pop\n        /* \"#utility.yul\":4459:4836   */\n      swap3\n      swap2\n      pop\n      pop\n      jump\t// out\n        /* \"#utility.yul\":4842:5155   */\n    tag_18:\n        /* \"#utility.yul\":4955:4959   */\n      0x00\n        /* \"#utility.yul\":4993:4995   */\n      0x20\n        /* \"#utility.yul\":4982:4991   */\n      dup3\n        /* \"#utility.yul\":4978:4996   */\n      add\n        /* \"#utility.yul\":4970:4996   */\n      swap1\n      pop\n        /* \"#utility.yul\":5042:5051   */\n      dup2\n        /* \"#utility.yul\":5036:5040   */\n      dup2\n        /* \"#utility.yul\":5032:5052   */\n      sub\n        /* \"#utility.yul\":5028:5029   */\n      0x00\n        /* \"#utility.yul\":5017:5026   */\n      dup4\n        /* \"#utility.yul\":5013:5030   */\n      add\n        /* \"#utility.yul\":5006:5053   */\n      mstore\n        /* \"#utility.yul\":5070:5148   */\n      tag_173\n        /* \"#utility.yul\":5143:5147   */\n      dup2\n        /* \"#utility.yul\":5134:5140   */\n      dup5\n        /* \"#utility.yul\":5070:5148   */\n      tag_70\n      jump\t// in\n    tag_173:\n        /* \"#utility.yul\":5062:5148   */\n      swap1\n      pop\n        /* \"#utility.yul\":4842:5155   */\n      swap3\n      swap2\n      pop\n      pop\n      jump\t// out\n        /* \"#utility.yul\":5161:5238   */\n    tag_71:\n        /* \"#utility.yul\":5198:5205   */\n      0x00\n        /* \"#utility.yul\":5227:5232   */\n      dup2\n        /* \"#utility.yul\":5216:5232   */\n      swap1\n      pop\n        /* \"#utility.yul\":5161:5238   */\n      swap2\n      swap1\n      pop\n      jump\t// out\n        /* \"#utility.yul\":5244:5362   */\n    tag_72:\n        /* \"#utility.yul\":5331:5355   */\n      tag_176\n        /* \"#utility.yul\":5349:5354   */\n      dup2\n        /* \"#utility.yul\":5331:5355   */\n      tag_71\n      jump\t// in\n    tag_176:\n        /* \"#utility.yul\":5326:5329   */\n      dup3\n        /* \"#utility.yul\":5319:5356   */\n      mstore\n        /* \"#utility.yul\":5244:5362   */\n      pop\n      pop\n      jump\t// out\n        /* \"#utility.yul\":5368:5494   */\n    tag_73:\n        /* \"#utility.yul\":5405:5412   */\n      0x00\n        /* \"#utility.yul\":5445:5487   */\n      0xffffffffffffffffffffffffffffffffffffffff\n        /* \"#utility.yul\":5438:5443   */\n      dup3\n        /* \"#utility.yul\":5434:5488   */\n      and\n        /* \"#utility.yul\":5423:5488   */\n      swap1\n      pop\n        /* \"#utility.yul\":5368:5494   */\n      swap2\n      swap1\n      pop\n      jump\t// out\n        /* \"#utility.yul\":5500:5596   */\n    tag_74:\n        /* \"#utility.yul\":5537:5544   */\n      0x00\n        /* \"#utility.yul\":5566:5590   */\n      tag_179\n        /* \"#utility.yul\":5584:5589   */\n      dup3\n        /* \"#utility.yul\":5566:5590   */\n      tag_73\n      jump\t// in\n    tag_179:\n        /* \"#utility.yul\":5555:5590   */\n      swap1\n      pop\n        /* \"#utility.yul\":5500:5596   */\n      swap2\n      swap1\n      pop\n      jump\t// out\n        /* \"#utility.yul\":5602:5720   */\n    tag_75:\n        /* \"#utility.yul\":5689:5713   */\n      tag_181\n        /* \"#utility.yul\":5707:5712   */\n      dup2\n        /* \"#utility.yul\":5689:5713   */\n      tag_74\n      jump\t// in\n    tag_181:\n        /* \"#utility.yul\":5684:5687   */\n      dup3\n        /* \"#utility.yul\":5677:5714   */\n      mstore\n        /* \"#utility.yul\":5602:5720   */\n      pop\n      pop\n      jump\t// out\n        /* \"#utility.yul\":5726:5830   */\n    tag_76:\n        /* \"#utility.yul\":5791:5797   */\n      0x00\n        /* \"#utility.yul\":5819:5823   */\n      0x02\n        /* \"#utility.yul\":5809:5823   */\n      swap1\n      pop\n        /* \"#utility.yul\":5726:5830   */\n      swap2\n      swap1\n      pop\n      jump\t// out\n        /* \"#utility.yul\":5836:5979   */\n    tag_77:\n        /* \"#utility.yul\":5933:5944   */\n      0x00\n        /* \"#utility.yul\":5970:5973   */\n      dup2\n        /* \"#utility.yul\":5955:5973   */\n      swap1\n      pop\n        /* \"#utility.yul\":5836:5979   */\n      swap3\n      swap2\n      pop\n      pop\n      jump\t// out\n        /* \"#utility.yul\":5985:6083   */\n    tag_78:\n        /* \"#utility.yul\":6050:6054   */\n      0x00\n        /* \"#utility.yul\":6073:6076   */\n      dup2\n        /* \"#utility.yul\":6065:6076   */\n      swap1\n      pop\n        /* \"#utility.yul\":5985:6083   */\n      swap2\n      swap1\n      pop\n      jump\t// out\n        /* \"#utility.yul\":6089:6197   */\n    tag_79:\n        /* \"#utility.yul\":6166:6190   */\n      tag_186\n        /* \"#utility.yul\":6184:6189   */\n      dup2\n        /* \"#utility.yul\":6166:6190   */\n      tag_71\n      jump\t// in\n    tag_186:\n        /* \"#utility.yul\":6161:6164   */\n      dup3\n        /* \"#utility.yul\":6154:6191   */\n      mstore\n        /* \"#utility.yul\":6089:6197   */\n      pop\n      pop\n      jump\t// out\n        /* \"#utility.yul\":6203:6382   */\n    tag_80:\n        /* \"#utility.yul\":6272:6282   */\n      0x00\n        /* \"#utility.yul\":6293:6339   */\n      tag_188\n        /* \"#utility.yul\":6335:6338   */\n      dup4\n        /* \"#utility.yul\":6327:6333   */\n      dup4\n        /* \"#utility.yul\":6293:6339   */\n      tag_79\n      jump\t// in\n    tag_188:\n        /* \"#utility.yul\":6371:6375   */\n      0x20\n        /* \"#utility.yul\":6366:6369   */\n      dup4\n        /* \"#utility.yul\":6362:6376   */\n      add\n        /* \"#utility.yul\":6348:6376   */\n      swap1\n      pop\n        /* \"#utility.yul\":6203:6382   */\n      swap3\n      swap2\n      pop\n      pop\n      jump\t// out\n        /* \"#utility.yul\":6388:6499   */\n    tag_81:\n        /* \"#utility.yul\":6456:6460   */\n      0x00\n        /* \"#utility.yul\":6488:6492   */\n      0x20\n        /* \"#utility.yul\":6483:6486   */\n      dup3\n        /* \"#utility.yul\":6479:6493   */\n      add\n        /* \"#utility.yul\":6471:6493   */\n      swap1\n      pop\n        /* \"#utility.yul\":6388:6499   */\n      swap2\n      swap1\n      pop\n      jump\t// out\n        /* \"#utility.yul\":6537:7231   */\n    tag_82:\n        /* \"#utility.yul\":6673:6725   */\n      tag_191\n        /* \"#utility.yul\":6719:6724   */\n      dup2\n        /* \"#utility.yul\":6673:6725   */\n      tag_76\n      jump\t// in\n    tag_191:\n        /* \"#utility.yul\":6741:6825   */\n      tag_192\n        /* \"#utility.yul\":6818:6824   */\n      dup2\n        /* \"#utility.yul\":6813:6816   */\n      dup5\n        /* \"#utility.yul\":6741:6825   */\n      tag_77\n      jump\t// in\n    tag_192:\n        /* \"#utility.yul\":6734:6825   */\n      swap3\n      pop\n        /* \"#utility.yul\":6849:6903   */\n      tag_193\n        /* \"#utility.yul\":6897:6902   */\n      dup3\n        /* \"#utility.yul\":6849:6903   */\n      tag_78\n      jump\t// in\n    tag_193:\n        /* \"#utility.yul\":6926:6933   */\n      dup1\n        /* \"#utility.yul\":6957:6958   */\n      0x00\n        /* \"#utility.yul\":6942:7224   */\n    tag_194:\n        /* \"#utility.yul\":6967:6973   */\n      dup4\n        /* \"#utility.yul\":6964:6965   */\n      dup2\n        /* \"#utility.yul\":6961:6974   */\n      lt\n        /* \"#utility.yul\":6942:7224   */\n      iszero\n      tag_196\n      jumpi\n        /* \"#utility.yul\":7043:7049   */\n      dup2\n        /* \"#utility.yul\":7037:7050   */\n      mload\n        /* \"#utility.yul\":7070:7133   */\n      tag_197\n        /* \"#utility.yul\":7129:7132   */\n      dup8\n        /* \"#utility.yul\":7114:7127   */\n      dup3\n        /* \"#utility.yul\":7070:7133   */\n      tag_80\n      jump\t// in\n    tag_197:\n        /* \"#utility.yul\":7063:7133   */\n      swap7\n      pop\n        /* \"#utility.yul\":7156:7214   */\n      tag_198\n        /* \"#utility.yul\":7207:7213   */\n      dup4\n        /* \"#utility.yul\":7156:7214   */\n      tag_81\n      jump\t// in\n    tag_198:\n        /* \"#utility.yul\":7146:7214   */\n      swap3\n      pop\n        /* \"#utility.yul\":7002:7224   */\n      pop\n        /* \"#utility.yul\":6989:6990   */\n      0x01\n        /* \"#utility.yul\":6986:6987   */\n      dup2\n        /* \"#utility.yul\":6982:6991   */\n      add\n        /* \"#utility.yul\":6977:6991   */\n      swap1\n      pop\n        /* \"#utility.yul\":6942:7224   */\n      jump(tag_194)\n    tag_196:\n        /* \"#utility.yul\":6946:6960   */\n      pop\n        /* \"#utility.yul\":6649:7231   */\n      pop\n      pop\n      pop\n        /* \"#utility.yul\":6537:7231   */\n      pop\n      pop\n      jump\t// out\n        /* \"#utility.yul\":7237:7973   */\n    tag_32:\n        /* \"#utility.yul\":7480:7484   */\n      0x00\n        /* \"#utility.yul\":7518:7521   */\n      0xa0\n        /* \"#utility.yul\":7507:7516   */\n      dup3\n        /* \"#utility.yul\":7503:7522   */\n      add\n        /* \"#utility.yul\":7495:7522   */\n      swap1\n      pop\n        /* \"#utility.yul\":7532:7603   */\n      tag_200\n        /* \"#utility.yul\":7600:7601   */\n      0x00\n        /* \"#utility.yul\":7589:7598   */\n      dup4\n        /* \"#utility.yul\":7585:7602   */\n      add\n        /* \"#utility.yul\":7576:7582   */\n      dup8\n        /* \"#utility.yul\":7532:7603   */\n      tag_72\n      jump\t// in\n    tag_200:\n        /* \"#utility.yul\":7613:7685   */\n      tag_201\n        /* \"#utility.yul\":7681:7683   */\n      0x20\n        /* \"#utility.yul\":7670:7679   */\n      dup4\n        /* \"#utility.yul\":7666:7684   */\n      add\n        /* \"#utility.yul\":7657:7663   */\n      dup7\n        /* \"#utility.yul\":7613:7685   */\n      tag_75\n      jump\t// in\n    tag_201:\n        /* \"#utility.yul\":7732:7741   */\n      dup2\n        /* \"#utility.yul\":7726:7730   */\n      dup2\n        /* \"#utility.yul\":7722:7742   */\n      sub\n        /* \"#utility.yul\":7717:7719   */\n      0x40\n        /* \"#utility.yul\":7706:7715   */\n      dup4\n        /* \"#utility.yul\":7702:7720   */\n      add\n        /* \"#utility.yul\":7695:7743   */\n      mstore\n        /* \"#utility.yul\":7760:7838   */\n      tag_202\n        /* \"#utility.yul\":7833:7837   */\n      dup2\n        /* \"#utility.yul\":7824:7830   */\n      dup6\n        /* \"#utility.yul\":7760:7838   */\n      tag_70\n      jump\t// in\n    tag_202:\n        /* \"#utility.yul\":7752:7838   */\n      swap1\n      pop\n        /* \"#utility.yul\":7848:7966   */\n      tag_203\n        /* \"#utility.yul\":7962:7964   */\n      0x60\n        /* \"#utility.yul\":7951:7960   */\n      dup4\n        /* \"#utility.yul\":7947:7965   */\n      add\n        /* \"#utility.yul\":7938:7944   */\n      dup5\n        /* \"#utility.yul\":7848:7966   */\n      tag_82\n      jump\t// in\n    tag_203:\n        /* \"#utility.yul\":7237:7973   */\n      swap6\n      swap5\n      pop\n      pop\n      pop\n      pop\n      pop\n      jump\t// out\n        /* \"#utility.yul\":7979:8058   */\n    tag_83:\n        /* \"#utility.yul\":8018:8025   */\n      0x00\n        /* \"#utility.yul\":8047:8052   */\n      dup2\n        /* \"#utility.yul\":8036:8052   */\n      swap1\n      pop\n        /* \"#utility.yul\":7979:8058   */\n      swap2\n      swap1\n      pop\n      jump\t// out\n        /* \"#utility.yul\":8064:8221   */\n    tag_84:\n        /* \"#utility.yul\":8169:8214   */\n      tag_206\n        /* \"#utility.yul\":8189:8213   */\n      tag_207\n        /* \"#utility.yul\":8207:8212   */\n      dup3\n        /* \"#utility.yul\":8189:8213   */\n      tag_71\n      jump\t// in\n    tag_207:\n        /* \"#utility.yul\":8169:8214   */\n      tag_83\n      jump\t// in\n    tag_206:\n        /* \"#utility.yul\":8164:8167   */\n      dup3\n        /* \"#utility.yul\":8157:8215   */\n      mstore\n        /* \"#utility.yul\":8064:8221   */\n      pop\n      pop\n      jump\t// out\n        /* \"#utility.yul\":8227:8321   */\n    tag_85:\n        /* \"#utility.yul\":8260:8268   */\n      0x00\n        /* \"#utility.yul\":8308:8313   */\n      dup2\n        /* \"#utility.yul\":8304:8306   */\n      0x60\n        /* \"#utility.yul\":8300:8314   */\n      shl\n        /* \"#utility.yul\":8279:8314   */\n      swap1\n      pop\n        /* \"#utility.yul\":8227:8321   */\n      swap2\n      swap1\n      pop\n      jump\t// out\n        /* \"#utility.yul\":8327:8421   */\n    tag_86:\n        /* \"#utility.yul\":8366:8373   */\n      0x00\n        /* \"#utility.yul\":8395:8415   */\n      tag_210\n        /* \"#utility.yul\":8409:8414   */\n      dup3\n        /* \"#utility.yul\":8395:8415   */\n      tag_85\n      jump\t// in\n    tag_210:\n        /* \"#utility.yul\":8384:8415   */\n      swap1\n      pop\n        /* \"#utility.yul\":8327:8421   */\n      swap2\n      swap1\n      pop\n      jump\t// out\n        /* \"#utility.yul\":8427:8527   */\n    tag_87:\n        /* \"#utility.yul\":8466:8473   */\n      0x00\n        /* \"#utility.yul\":8495:8521   */\n      tag_212\n        /* \"#utility.yul\":8515:8520   */\n      dup3\n        /* \"#utility.yul\":8495:8521   */\n      tag_86\n      jump\t// in\n    tag_212:\n        /* \"#utility.yul\":8484:8521   */\n      swap1\n      pop\n        /* \"#utility.yul\":8427:8527   */\n      swap2\n      swap1\n      pop\n      jump\t// out\n        /* \"#utility.yul\":8533:8690   */\n    tag_88:\n        /* \"#utility.yul\":8638:8683   */\n      tag_214\n        /* \"#utility.yul\":8658:8682   */\n      tag_215\n        /* \"#utility.yul\":8676:8681   */\n      dup3\n        /* \"#utility.yul\":8658:8682   */\n      tag_74\n      jump\t// in\n    tag_215:\n        /* \"#utility.yul\":8638:8683   */\n      tag_87\n      jump\t// in\n    tag_214:\n        /* \"#utility.yul\":8633:8636   */\n      dup3\n        /* \"#utility.yul\":8626:8684   */\n      mstore\n        /* \"#utility.yul\":8533:8690   */\n      pop\n      pop\n      jump\t// out\n        /* \"#utility.yul\":8696:8876   */\n    tag_89:\n        /* \"#utility.yul\":8744:8821   */\n      0x4e487b7100000000000000000000000000000000000000000000000000000000\n        /* \"#utility.yul\":8741:8742   */\n      0x00\n        /* \"#utility.yul\":8734:8822   */\n      mstore\n        /* \"#utility.yul\":8841:8845   */\n      0x22\n        /* \"#utility.yul\":8838:8839   */\n      0x04\n        /* \"#utility.yul\":8831:8846   */\n      mstore\n        /* \"#utility.yul\":8865:8869   */\n      0x24\n        /* \"#utility.yul\":8862:8863   */\n      0x00\n        /* \"#utility.yul\":8855:8870   */\n      revert\n        /* \"#utility.yul\":8882:9202   */\n    tag_90:\n        /* \"#utility.yul\":8926:8932   */\n      0x00\n        /* \"#utility.yul\":8963:8964   */\n      0x02\n        /* \"#utility.yul\":8957:8961   */\n      dup3\n        /* \"#utility.yul\":8953:8965   */\n      div\n        /* \"#utility.yul\":8943:8965   */\n      swap1\n      pop\n        /* \"#utility.yul\":9010:9011   */\n      0x01\n        /* \"#utility.yul\":9004:9008   */\n      dup3\n        /* \"#utility.yul\":9000:9012   */\n      and\n        /* \"#utility.yul\":9031:9049   */\n      dup1\n        /* \"#utility.yul\":9021:9102   */\n      tag_218\n      jumpi\n        /* \"#utility.yul\":9087:9091   */\n      0x7f\n        /* \"#utility.yul\":9079:9085   */\n      dup3\n        /* \"#utility.yul\":9075:9092   */\n      and\n        /* \"#utility.yul\":9065:9092   */\n      swap2\n      pop\n        /* \"#utility.yul\":9021:9102   */\n    tag_218:\n        /* \"#utility.yul\":9149:9151   */\n      0x20\n        /* \"#utility.yul\":9141:9147   */\n      dup3\n        /* \"#utility.yul\":9138:9152   */\n      lt\n        /* \"#utility.yul\":9118:9136   */\n      dup2\n        /* \"#utility.yul\":9115:9153   */\n      sub\n        /* \"#utility.yul\":9112:9196   */\n      tag_219\n      jumpi\n        /* \"#utility.yul\":9168:9186   */\n      tag_220\n      tag_89\n      jump\t// in\n    tag_220:\n        /* \"#utility.yul\":9112:9196   */\n    tag_219:\n        /* \"#utility.yul\":8933:9202   */\n      pop\n        /* \"#utility.yul\":8882:9202   */\n      swap2\n      swap1\n      pop\n      jump\t// out\n        /* \"#utility.yul\":9208:9356   */\n    tag_91:\n        /* \"#utility.yul\":9310:9321   */\n      0x00\n        /* \"#utility.yul\":9347:9350   */\n      dup2\n        /* \"#utility.yul\":9332:9350   */\n      swap1\n      pop\n        /* \"#utility.yul\":9208:9356   */\n      swap3\n      swap2\n      pop\n      pop\n      jump\t// out\n        /* \"#utility.yul\":9362:9503   */\n    tag_92:\n        /* \"#utility.yul\":9411:9415   */\n      0x00\n        /* \"#utility.yul\":9434:9437   */\n      dup2\n        /* \"#utility.yul\":9426:9437   */\n      swap1\n      pop\n        /* \"#utility.yul\":9457:9460   */\n      dup2\n        /* \"#utility.yul\":9454:9455   */\n      0x00\n        /* \"#utility.yul\":9447:9461   */\n      mstore\n        /* \"#utility.yul\":9491:9495   */\n      0x20\n        /* \"#utility.yul\":9488:9489   */\n      0x00\n        /* \"#utility.yul\":9478:9496   */\n      keccak256\n        /* \"#utility.yul\":9470:9496   */\n      swap1\n      pop\n        /* \"#utility.yul\":9362:9503   */\n      swap2\n      swap1\n      pop\n      jump\t// out\n        /* \"#utility.yul\":9533:10407   */\n    tag_93:\n        /* \"#utility.yul\":9636:9639   */\n      0x00\n        /* \"#utility.yul\":9673:9678   */\n      dup2\n        /* \"#utility.yul\":9667:9679   */\n      sload\n        /* \"#utility.yul\":9702:9738   */\n      tag_224\n        /* \"#utility.yul\":9728:9737   */\n      dup2\n        /* \"#utility.yul\":9702:9738   */\n      tag_90\n      jump\t// in\n    tag_224:\n        /* \"#utility.yul\":9754:9843   */\n      tag_225\n        /* \"#utility.yul\":9836:9842   */\n      dup2\n        /* \"#utility.yul\":9831:9834   */\n      dup7\n        /* \"#utility.yul\":9754:9843   */\n      tag_91\n      jump\t// in\n    tag_225:\n        /* \"#utility.yul\":9747:9843   */\n      swap5\n      pop\n        /* \"#utility.yul\":9874:9875   */\n      0x01\n        /* \"#utility.yul\":9863:9872   */\n      dup3\n        /* \"#utility.yul\":9859:9876   */\n      and\n        /* \"#utility.yul\":9890:9891   */\n      0x00\n        /* \"#utility.yul\":9885:10051   */\n      dup2\n      eq\n      tag_227\n      jumpi\n        /* \"#utility.yul\":10065:10066   */\n      0x01\n        /* \"#utility.yul\":10060:10401   */\n      dup2\n      eq\n      tag_228\n      jumpi\n        /* \"#utility.yul\":9852:10401   */\n      jump(tag_226)\n        /* \"#utility.yul\":9885:10051   */\n    tag_227:\n        /* \"#utility.yul\":9969:9973   */\n      0xff\n        /* \"#utility.yul\":9965:9974   */\n      not\n        /* \"#utility.yul\":9954:9963   */\n      dup4\n        /* \"#utility.yul\":9950:9975   */\n      and\n        /* \"#utility.yul\":9945:9948   */\n      dup7\n        /* \"#utility.yul\":9938:9976   */\n      mstore\n        /* \"#utility.yul\":10031:10037   */\n      dup2\n        /* \"#utility.yul\":10024:10038   */\n      iszero\n        /* \"#utility.yul\":10017:10039   */\n      iszero\n        /* \"#utility.yul\":10009:10015   */\n      dup3\n        /* \"#utility.yul\":10005:10040   */\n      mul\n        /* \"#utility.yul\":10000:10003   */\n      dup7\n        /* \"#utility.yul\":9996:10041   */\n      add\n        /* \"#utility.yul\":9989:10041   */\n      swap4\n      pop\n        /* \"#utility.yul\":9885:10051   */\n      jump(tag_226)\n        /* \"#utility.yul\":10060:10401   */\n    tag_228:\n        /* \"#utility.yul\":10127:10165   */\n      tag_229\n        /* \"#utility.yul\":10159:10164   */\n      dup6\n        /* \"#utility.yul\":10127:10165   */\n      tag_92\n      jump\t// in\n    tag_229:\n        /* \"#utility.yul\":10187:10188   */\n      0x00\n        /* \"#utility.yul\":10201:10355   */\n    tag_230:\n        /* \"#utility.yul\":10215:10221   */\n      dup4\n        /* \"#utility.yul\":10212:10213   */\n      dup2\n        /* \"#utility.yul\":10209:10222   */\n      lt\n        /* \"#utility.yul\":10201:10355   */\n      iszero\n      tag_232\n      jumpi\n        /* \"#utility.yul\":10289:10296   */\n      dup2\n        /* \"#utility.yul\":10283:10297   */\n      sload\n        /* \"#utility.yul\":10279:10280   */\n      dup2\n        /* \"#utility.yul\":10274:10277   */\n      dup10\n        /* \"#utility.yul\":10270:10281   */\n      add\n        /* \"#utility.yul\":10263:10298   */\n      mstore\n        /* \"#utility.yul\":10339:10340   */\n      0x01\n        /* \"#utility.yul\":10330:10337   */\n      dup3\n        /* \"#utility.yul\":10326:10341   */\n      add\n        /* \"#utility.yul\":10315:10341   */\n      swap2\n      pop\n        /* \"#utility.yul\":10237:10241   */\n      0x20\n        /* \"#utility.yul\":10234:10235   */\n      dup2\n        /* \"#utility.yul\":10230:10242   */\n      add\n        /* \"#utility.yul\":10225:10242   */\n      swap1\n      pop\n        /* \"#utility.yul\":10201:10355   */\n      jump(tag_230)\n    tag_232:\n        /* \"#utility.yul\":10384:10390   */\n      dup4\n        /* \"#utility.yul\":10379:10382   */\n      dup9\n        /* \"#utility.yul\":10375:10391   */\n      add\n        /* \"#utility.yul\":10368:10391   */\n      swap6\n      pop\n        /* \"#utility.yul\":10067:10401   */\n      pop\n      pop\n        /* \"#utility.yul\":9852:10401   */\n    tag_226:\n      pop\n        /* \"#utility.yul\":9640:10407   */\n      pop\n      pop\n        /* \"#utility.yul\":9533:10407   */\n      swap3\n      swap2\n      pop\n      pop\n      jump\t// out\n        /* \"#utility.yul\":10413:10514   */\n    tag_94:\n        /* \"#utility.yul\":10475:10481   */\n      0x00\n        /* \"#utility.yul\":10503:10507   */\n      0x02\n        /* \"#utility.yul\":10493:10507   */\n      swap1\n      pop\n        /* \"#utility.yul\":10413:10514   */\n      swap2\n      swap1\n      pop\n      jump\t// out\n        /* \"#utility.yul\":10520:10681   */\n    tag_95:\n        /* \"#utility.yul\":10635:10646   */\n      0x00\n        /* \"#utility.yul\":10672:10675   */\n      dup2\n        /* \"#utility.yul\":10657:10675   */\n      swap1\n      pop\n        /* \"#utility.yul\":10520:10681   */\n      swap3\n      swap2\n      pop\n      pop\n      jump\t// out\n        /* \"#utility.yul\":10687:10782   */\n    tag_96:\n        /* \"#utility.yul\":10749:10753   */\n      0x00\n        /* \"#utility.yul\":10772:10775   */\n      dup2\n        /* \"#utility.yul\":10764:10775   */\n      swap1\n      pop\n        /* \"#utility.yul\":10687:10782   */\n      swap2\n      swap1\n      pop\n      jump\t// out\n        /* \"#utility.yul\":10788:10904   */\n    tag_97:\n        /* \"#utility.yul\":10873:10897   */\n      tag_237\n        /* \"#utility.yul\":10891:10896   */\n      dup2\n        /* \"#utility.yul\":10873:10897   */\n      tag_71\n      jump\t// in\n    tag_237:\n        /* \"#utility.yul\":10868:10871   */\n      dup3\n        /* \"#utility.yul\":10861:10898   */\n      mstore\n        /* \"#utility.yul\":10788:10904   */\n      pop\n      pop\n      jump\t// out\n        /* \"#utility.yul\":10910:11105   */\n    tag_98:\n        /* \"#utility.yul\":10987:10997   */\n      0x00\n        /* \"#utility.yul\":11008:11062   */\n      tag_239\n        /* \"#utility.yul\":11058:11061   */\n      dup4\n        /* \"#utility.yul\":11050:11056   */\n      dup4\n        /* \"#utility.yul\":11008:11062   */\n      tag_97\n      jump\t// in\n    tag_239:\n        /* \"#utility.yul\":11094:11098   */\n      0x20\n        /* \"#utility.yul\":11089:11092   */\n      dup4\n        /* \"#utility.yul\":11085:11099   */\n      add\n        /* \"#utility.yul\":11071:11099   */\n      swap1\n      pop\n        /* \"#utility.yul\":10910:11105   */\n      swap3\n      swap2\n      pop\n      pop\n      jump\t// out\n        /* \"#utility.yul\":11111:11213   */\n    tag_99:\n        /* \"#utility.yul\":11153:11161   */\n      0x00\n        /* \"#utility.yul\":11200:11205   */\n      dup2\n        /* \"#utility.yul\":11197:11198   */\n      0x00\n        /* \"#utility.yul\":11193:11206   */\n      shr\n        /* \"#utility.yul\":11172:11206   */\n      swap1\n      pop\n        /* \"#utility.yul\":11111:11213   */\n      swap2\n      swap1\n      pop\n      jump\t// out\n        /* \"#utility.yul\":11219:11309   */\n    tag_100:\n        /* \"#utility.yul\":11269:11276   */\n      0x00\n        /* \"#utility.yul\":11298:11303   */\n      dup2\n        /* \"#utility.yul\":11287:11303   */\n      swap1\n      pop\n        /* \"#utility.yul\":11219:11309   */\n      swap2\n      swap1\n      pop\n      jump\t// out\n        /* \"#utility.yul\":11315:11481   */\n    tag_101:\n        /* \"#utility.yul\":11384:11389   */\n      0x00\n        /* \"#utility.yul\":11409:11475   */\n      tag_243\n        /* \"#utility.yul\":11440:11474   */\n      tag_244\n        /* \"#utility.yul\":11463:11473   */\n      dup4\n        /* \"#utility.yul\":11440:11474   */\n      tag_99\n      jump\t// in\n    tag_244:\n        /* \"#utility.yul\":11409:11475   */\n      tag_100\n      jump\t// in\n    tag_243:\n        /* \"#utility.yul\":11400:11475   */\n      swap1\n      pop\n        /* \"#utility.yul\":11315:11481   */\n      swap2\n      swap1\n      pop\n      jump\t// out\n        /* \"#utility.yul\":11487:11631   */\n    tag_102:\n        /* \"#utility.yul\":11542:11547   */\n      0x00\n        /* \"#utility.yul\":11567:11624   */\n      tag_246\n        /* \"#utility.yul\":11618:11622   */\n      dup3\n        /* \"#utility.yul\":11612:11623   */\n      sload\n        /* \"#utility.yul\":11567:11624   */\n      tag_101\n      jump\t// in\n    tag_246:\n        /* \"#utility.yul\":11558:11624   */\n      swap1\n      pop\n        /* \"#utility.yul\":11487:11631   */\n      swap2\n      swap1\n      pop\n      jump\t// out\n        /* \"#utility.yul\":11637:11745   */\n    tag_103:\n        /* \"#utility.yul\":11702:11706   */\n      0x00\n        /* \"#utility.yul\":11734:11738   */\n      0x01\n        /* \"#utility.yul\":11729:11732   */\n      dup3\n        /* \"#utility.yul\":11725:11739   */\n      add\n        /* \"#utility.yul\":11717:11739   */\n      swap1\n      pop\n        /* \"#utility.yul\":11637:11745   */\n      swap2\n      swap1\n      pop\n      jump\t// out\n        /* \"#utility.yul\":11783:12540   */\n    tag_104:\n        /* \"#utility.yul\":11934:11983   */\n      tag_249\n        /* \"#utility.yul\":11977:11982   */\n      dup2\n        /* \"#utility.yul\":11934:11983   */\n      tag_94\n      jump\t// in\n    tag_249:\n        /* \"#utility.yul\":11999:12101   */\n      tag_250\n        /* \"#utility.yul\":12094:12100   */\n      dup2\n        /* \"#utility.yul\":12089:12092   */\n      dup5\n        /* \"#utility.yul\":11999:12101   */\n      tag_95\n      jump\t// in\n    tag_250:\n        /* \"#utility.yul\":11992:12101   */\n      swap3\n      pop\n        /* \"#utility.yul\":12125:12176   */\n      tag_251\n        /* \"#utility.yul\":12170:12175   */\n      dup3\n        /* \"#utility.yul\":12125:12176   */\n      tag_96\n      jump\t// in\n    tag_251:\n        /* \"#utility.yul\":12199:12206   */\n      dup1\n        /* \"#utility.yul\":12230:12231   */\n      0x00\n        /* \"#utility.yul\":12215:12533   */\n    tag_252:\n        /* \"#utility.yul\":12240:12246   */\n      dup4\n        /* \"#utility.yul\":12237:12238   */\n      dup2\n        /* \"#utility.yul\":12234:12247   */\n      lt\n        /* \"#utility.yul\":12215:12533   */\n      iszero\n      tag_254\n      jumpi\n        /* \"#utility.yul\":12310:12354   */\n      tag_255\n        /* \"#utility.yul\":12347:12353   */\n      dup3\n        /* \"#utility.yul\":12310:12354   */\n      tag_102\n      jump\t// in\n    tag_255:\n        /* \"#utility.yul\":12374:12445   */\n      tag_256\n        /* \"#utility.yul\":12441:12444   */\n      dup8\n        /* \"#utility.yul\":12426:12439   */\n      dup3\n        /* \"#utility.yul\":12374:12445   */\n      tag_98\n      jump\t// in\n    tag_256:\n        /* \"#utility.yul\":12367:12445   */\n      swap7\n      pop\n        /* \"#utility.yul\":12468:12523   */\n      tag_257\n        /* \"#utility.yul\":12516:12522   */\n      dup4\n        /* \"#utility.yul\":12468:12523   */\n      tag_103\n      jump\t// in\n    tag_257:\n        /* \"#utility.yul\":12458:12523   */\n      swap3\n      pop\n        /* \"#utility.yul\":12275:12533   */\n      pop\n        /* \"#utility.yul\":12262:12263   */\n      0x01\n        /* \"#utility.yul\":12259:12260   */\n      dup2\n        /* \"#utility.yul\":12255:12264   */\n      add\n        /* \"#utility.yul\":12250:12264   */\n      swap1\n      pop\n        /* \"#utility.yul\":12215:12533   */\n      jump(tag_252)\n    tag_254:\n        /* \"#utility.yul\":12219:12233   */\n      pop\n        /* \"#utility.yul\":11910:12540   */\n      pop\n      pop\n      pop\n        /* \"#utility.yul\":11783:12540   */\n      pop\n      pop\n      jump\t// out\n        /* \"#utility.yul\":12546:13324   */\n    tag_35:\n        /* \"#utility.yul\":12802:12805   */\n      0x00\n        /* \"#utility.yul\":12817:12892   */\n      tag_259\n        /* \"#utility.yul\":12888:12891   */\n      dup3\n        /* \"#utility.yul\":12879:12885   */\n      dup8\n        /* \"#utility.yul\":12817:12892   */\n      tag_84\n      jump\t// in\n    tag_259:\n        /* \"#utility.yul\":12917:12919   */\n      0x20\n        /* \"#utility.yul\":12912:12915   */\n      dup3\n        /* \"#utility.yul\":12908:12920   */\n      add\n        /* \"#utility.yul\":12901:12920   */\n      swap2\n      pop\n        /* \"#utility.yul\":12930:13005   */\n      tag_260\n        /* \"#utility.yul\":13001:13004   */\n      dup3\n        /* \"#utility.yul\":12992:12998   */\n      dup7\n        /* \"#utility.yul\":12930:13005   */\n      tag_88\n      jump\t// in\n    tag_260:\n        /* \"#utility.yul\":13030:13032   */\n      0x14\n        /* \"#utility.yul\":13025:13028   */\n      dup3\n        /* \"#utility.yul\":13021:13033   */\n      add\n        /* \"#utility.yul\":13014:13033   */\n      swap2\n      pop\n        /* \"#utility.yul\":13050:13142   */\n      tag_261\n        /* \"#utility.yul\":13138:13141   */\n      dup3\n        /* \"#utility.yul\":13129:13135   */\n      dup6\n        /* \"#utility.yul\":13050:13142   */\n      tag_93\n      jump\t// in\n    tag_261:\n        /* \"#utility.yul\":13043:13142   */\n      swap2\n      pop\n        /* \"#utility.yul\":13152:13270   */\n      tag_262\n        /* \"#utility.yul\":13266:13269   */\n      dup3\n        /* \"#utility.yul\":13257:13263   */\n      dup5\n        /* \"#utility.yul\":13152:13270   */\n      tag_104\n      jump\t// in\n    tag_262:\n        /* \"#utility.yul\":13295:13297   */\n      0x40\n        /* \"#utility.yul\":13290:13293   */\n      dup3\n        /* \"#utility.yul\":13286:13298   */\n      add\n        /* \"#utility.yul\":13279:13298   */\n      swap2\n      pop\n        /* \"#utility.yul\":13315:13318   */\n      dup2\n        /* \"#utility.yul\":13308:13318   */\n      swap1\n      pop\n        /* \"#utility.yul\":12546:13324   */\n      swap6\n      swap5\n      pop\n      pop\n      pop\n      pop\n      pop\n      jump\t// out\n        /* \"#utility.yul\":13330:13638   */\n    tag_105:\n        /* \"#utility.yul\":13392:13396   */\n      0x00\n        /* \"#utility.yul\":13482:13500   */\n      0xffffffffffffffff\n        /* \"#utility.yul\":13474:13480   */\n      dup3\n        /* \"#utility.yul\":13471:13501   */\n      gt\n        /* \"#utility.yul\":13468:13524   */\n      iszero\n      tag_264\n      jumpi\n        /* \"#utility.yul\":13504:13522   */\n      tag_265\n      tag_61\n      jump\t// in\n    tag_265:\n        /* \"#utility.yul\":13468:13524   */\n    tag_264:\n        /* \"#utility.yul\":13542:13571   */\n      tag_266\n        /* \"#utility.yul\":13564:13570   */\n      dup3\n        /* \"#utility.yul\":13542:13571   */\n      tag_54\n      jump\t// in\n    tag_266:\n        /* \"#utility.yul\":13534:13571   */\n      swap1\n      pop\n        /* \"#utility.yul\":13626:13630   */\n      0x20\n        /* \"#utility.yul\":13620:13624   */\n      dup2\n        /* \"#utility.yul\":13616:13631   */\n      add\n        /* \"#utility.yul\":13608:13631   */\n      swap1\n      pop\n        /* \"#utility.yul\":13330:13638   */\n      swap2\n      swap1\n      pop\n      jump\t// out\n        /* \"#utility.yul\":13644:14078   */\n    tag_106:\n        /* \"#utility.yul\":13733:13738   */\n      0x00\n        /* \"#utility.yul\":13758:13824   */\n      tag_268\n        /* \"#utility.yul\":13774:13823   */\n      tag_269\n        /* \"#utility.yul\":13816:13822   */\n      dup5\n        /* \"#utility.yul\":13774:13823   */\n      tag_105\n      jump\t// in\n    tag_269:\n        /* \"#utility.yul\":13758:13824   */\n      tag_63\n      jump\t// in\n    tag_268:\n        /* \"#utility.yul\":13749:13824   */\n      swap1\n      pop\n        /* \"#utility.yul\":13847:13853   */\n      dup3\n        /* \"#utility.yul\":13840:13845   */\n      dup2\n        /* \"#utility.yul\":13833:13854   */\n      mstore\n        /* \"#utility.yul\":13885:13889   */\n      0x20\n        /* \"#utility.yul\":13878:13883   */\n      dup2\n        /* \"#utility.yul\":13874:13890   */\n      add\n        /* \"#utility.yul\":13923:13926   */\n      dup5\n        /* \"#utility.yul\":13914:13920   */\n      dup5\n        /* \"#utility.yul\":13909:13912   */\n      dup5\n        /* \"#utility.yul\":13905:13921   */\n      add\n        /* \"#utility.yul\":13902:13927   */\n      gt\n        /* \"#utility.yul\":13899:14011   */\n      iszero\n      tag_270\n      jumpi\n        /* \"#utility.yul\":13930:14009   */\n      tag_271\n      tag_60\n      jump\t// in\n    tag_271:\n        /* \"#utility.yul\":13899:14011   */\n    tag_270:\n        /* \"#utility.yul\":14020:14072   */\n      tag_272\n        /* \"#utility.yul\":14065:14071   */\n      dup5\n        /* \"#utility.yul\":14060:14063   */\n      dup3\n        /* \"#utility.yul\":14055:14058   */\n      dup6\n        /* \"#utility.yul\":14020:14072   */\n      tag_53\n      jump\t// in\n    tag_272:\n        /* \"#utility.yul\":13739:14078   */\n      pop\n        /* \"#utility.yul\":13644:14078   */\n      swap4\n      swap3\n      pop\n      pop\n      pop\n      jump\t// out\n        /* \"#utility.yul\":14098:14453   */\n    tag_107:\n        /* \"#utility.yul\":14165:14170   */\n      0x00\n        /* \"#utility.yul\":14214:14217   */\n      dup3\n        /* \"#utility.yul\":14207:14211   */\n      0x1f\n        /* \"#utility.yul\":14199:14205   */\n      dup4\n        /* \"#utility.yul\":14195:14212   */\n      add\n        /* \"#utility.yul\":14191:14218   */\n      slt\n        /* \"#utility.yul\":14181:14303   */\n      tag_274\n      jumpi\n        /* \"#utility.yul\":14222:14301   */\n      tag_275\n      tag_59\n      jump\t// in\n    tag_275:\n        /* \"#utility.yul\":14181:14303   */\n    tag_274:\n        /* \"#utility.yul\":14332:14338   */\n      dup2\n        /* \"#utility.yul\":14326:14339   */\n      mload\n        /* \"#utility.yul\":14357:14447   */\n      tag_276\n        /* \"#utility.yul\":14443:14446   */\n      dup5\n        /* \"#utility.yul\":14435:14441   */\n      dup3\n        /* \"#utility.yul\":14428:14432   */\n      0x20\n        /* \"#utility.yul\":14420:14426   */\n      dup7\n        /* \"#utility.yul\":14416:14433   */\n      add\n        /* \"#utility.yul\":14357:14447   */\n      tag_106\n      jump\t// in\n    tag_276:\n        /* \"#utility.yul\":14348:14447   */\n      swap2\n      pop\n        /* \"#utility.yul\":14171:14453   */\n      pop\n        /* \"#utility.yul\":14098:14453   */\n      swap3\n      swap2\n      pop\n      pop\n      jump\t// out\n        /* \"#utility.yul\":14459:14983   */\n    tag_38:\n        /* \"#utility.yul\":14539:14545   */\n      0x00\n        /* \"#utility.yul\":14588:14590   */\n      0x20\n        /* \"#utility.yul\":14576:14585   */\n      dup3\n        /* \"#utility.yul\":14567:14574   */\n      dup5\n        /* \"#utility.yul\":14563:14586   */\n      sub\n        /* \"#utility.yul\":14559:14591   */\n      slt\n        /* \"#utility.yul\":14556:14675   */\n      iszero\n      tag_278\n      jumpi\n        /* \"#utility.yul\":14594:14673   */\n      tag_279\n      tag_57\n      jump\t// in\n    tag_279:\n        /* \"#utility.yul\":14556:14675   */\n    tag_278:\n        /* \"#utility.yul\":14735:14736   */\n      0x00\n        /* \"#utility.yul\":14724:14733   */\n      dup3\n        /* \"#utility.yul\":14720:14737   */\n      add\n        /* \"#utility.yul\":14714:14738   */\n      mload\n        /* \"#utility.yul\":14765:14783   */\n      0xffffffffffffffff\n        /* \"#utility.yul\":14757:14763   */\n      dup2\n        /* \"#utility.yul\":14754:14784   */\n      gt\n        /* \"#utility.yul\":14751:14868   */\n      iszero\n      tag_280\n      jumpi\n        /* \"#utility.yul\":14787:14866   */\n      tag_281\n      tag_58\n      jump\t// in\n    tag_281:\n        /* \"#utility.yul\":14751:14868   */\n    tag_280:\n        /* \"#utility.yul\":14892:14966   */\n      tag_282\n        /* \"#utility.yul\":14958:14965   */\n      dup5\n        /* \"#utility.yul\":14949:14955   */\n      dup3\n        /* \"#utility.yul\":14938:14947   */\n      dup6\n        /* \"#utility.yul\":14934:14956   */\n      add\n        /* \"#utility.yul\":14892:14966   */\n      tag_107\n      jump\t// in\n    tag_282:\n        /* \"#utility.yul\":14882:14966   */\n      swap2\n      pop\n        /* \"#utility.yul\":14685:14976   */\n      pop\n        /* \"#utility.yul\":14459:14983   */\n      swap3\n      swap2\n      pop\n      pop\n      jump\t// out\n        /* \"#utility.yul\":15013:15844   */\n    tag_108:\n        /* \"#utility.yul\":15098:15101   */\n      0x00\n        /* \"#utility.yul\":15135:15140   */\n      dup2\n        /* \"#utility.yul\":15129:15141   */\n      sload\n        /* \"#utility.yul\":15164:15200   */\n      tag_284\n        /* \"#utility.yul\":15190:15199   */\n      dup2\n        /* \"#utility.yul\":15164:15200   */\n      tag_90\n      jump\t// in\n    tag_284:\n        /* \"#utility.yul\":15216:15287   */\n      tag_285\n        /* \"#utility.yul\":15280:15286   */\n      dup2\n        /* \"#utility.yul\":15275:15278   */\n      dup7\n        /* \"#utility.yul\":15216:15287   */\n      tag_69\n      jump\t// in\n    tag_285:\n        /* \"#utility.yul\":15209:15287   */\n      swap5\n      pop\n        /* \"#utility.yul\":15318:15319   */\n      0x01\n        /* \"#utility.yul\":15307:15316   */\n      dup3\n        /* \"#utility.yul\":15303:15320   */\n      and\n        /* \"#utility.yul\":15334:15335   */\n      0x00\n        /* \"#utility.yul\":15329:15493   */\n      dup2\n      eq\n      tag_287\n      jumpi\n        /* \"#utility.yul\":15507:15508   */\n      0x01\n        /* \"#utility.yul\":15502:15838   */\n      dup2\n      eq\n      tag_288\n      jumpi\n        /* \"#utility.yul\":15296:15838   */\n      jump(tag_286)\n        /* \"#utility.yul\":15329:15493   */\n    tag_287:\n        /* \"#utility.yul\":15413:15417   */\n      0xff\n        /* \"#utility.yul\":15409:15418   */\n      not\n        /* \"#utility.yul\":15398:15407   */\n      dup4\n        /* \"#utility.yul\":15394:15419   */\n      and\n        /* \"#utility.yul\":15389:15392   */\n      dup7\n        /* \"#utility.yul\":15382:15420   */\n      mstore\n        /* \"#utility.yul\":15473:15479   */\n      dup2\n        /* \"#utility.yul\":15466:15480   */\n      iszero\n        /* \"#utility.yul\":15459:15481   */\n      iszero\n        /* \"#utility.yul\":15453:15457   */\n      0x20\n        /* \"#utility.yul\":15449:15482   */\n      mul\n        /* \"#utility.yul\":15444:15447   */\n      dup7\n        /* \"#utility.yul\":15440:15483   */\n      add\n        /* \"#utility.yul\":15433:15483   */\n      swap4\n      pop\n        /* \"#utility.yul\":15329:15493   */\n      jump(tag_286)\n        /* \"#utility.yul\":15502:15838   */\n    tag_288:\n        /* \"#utility.yul\":15569:15607   */\n      tag_289\n        /* \"#utility.yul\":15601:15606   */\n      dup6\n        /* \"#utility.yul\":15569:15607   */\n      tag_92\n      jump\t// in\n    tag_289:\n        /* \"#utility.yul\":15629:15630   */\n      0x00\n        /* \"#utility.yul\":15643:15797   */\n    tag_290:\n        /* \"#utility.yul\":15657:15663   */\n      dup4\n        /* \"#utility.yul\":15654:15655   */\n      dup2\n        /* \"#utility.yul\":15651:15664   */\n      lt\n        /* \"#utility.yul\":15643:15797   */\n      iszero\n      tag_292\n      jumpi\n        /* \"#utility.yul\":15731:15738   */\n      dup2\n        /* \"#utility.yul\":15725:15739   */\n      sload\n        /* \"#utility.yul\":15721:15722   */\n      dup2\n        /* \"#utility.yul\":15716:15719   */\n      dup10\n        /* \"#utility.yul\":15712:15723   */\n      add\n        /* \"#utility.yul\":15705:15740   */\n      mstore\n        /* \"#utility.yul\":15781:15782   */\n      0x01\n        /* \"#utility.yul\":15772:15779   */\n      dup3\n        /* \"#utility.yul\":15768:15783   */\n      add\n        /* \"#utility.yul\":15757:15783   */\n      swap2\n      pop\n        /* \"#utility.yul\":15679:15683   */\n      0x20\n        /* \"#utility.yul\":15676:15677   */\n      dup2\n        /* \"#utility.yul\":15672:15684   */\n      add\n        /* \"#utility.yul\":15667:15684   */\n      swap1\n      pop\n        /* \"#utility.yul\":15643:15797   */\n      jump(tag_290)\n    tag_292:\n        /* \"#utility.yul\":15826:15827   */\n      dup1\n        /* \"#utility.yul\":15821:15824   */\n      dup9\n        /* \"#utility.yul\":15817:15828   */\n      add\n        /* \"#utility.yul\":15810:15828   */\n      swap6\n      pop\n        /* \"#utility.yul\":15509:15838   */\n      pop\n      pop\n        /* \"#utility.yul\":15296:15838   */\n    tag_286:\n      pop\n        /* \"#utility.yul\":15102:15844   */\n      pop\n      pop\n        /* \"#utility.yul\":15013:15844   */\n      swap3\n      swap2\n      pop\n      pop\n      jump\t// out\n        /* \"#utility.yul\":15882:16595   */\n    tag_109:\n        /* \"#utility.yul\":16015:16064   */\n      tag_294\n        /* \"#utility.yul\":16058:16063   */\n      dup2\n        /* \"#utility.yul\":16015:16064   */\n      tag_94\n      jump\t// in\n    tag_294:\n        /* \"#utility.yul\":16080:16164   */\n      tag_295\n        /* \"#utility.yul\":16157:16163   */\n      dup2\n        /* \"#utility.yul\":16152:16155   */\n      dup5\n        /* \"#utility.yul\":16080:16164   */\n      tag_77\n      jump\t// in\n    tag_295:\n        /* \"#utility.yul\":16073:16164   */\n      swap3\n      pop\n        /* \"#utility.yul\":16188:16239   */\n      tag_296\n        /* \"#utility.yul\":16233:16238   */\n      dup3\n        /* \"#utility.yul\":16188:16239   */\n      tag_96\n      jump\t// in\n    tag_296:\n        /* \"#utility.yul\":16262:16269   */\n      dup1\n        /* \"#utility.yul\":16293:16294   */\n      0x00\n        /* \"#utility.yul\":16278:16588   */\n    tag_297:\n        /* \"#utility.yul\":16303:16309   */\n      dup4\n        /* \"#utility.yul\":16300:16301   */\n      dup2\n        /* \"#utility.yul\":16297:16310   */\n      lt\n        /* \"#utility.yul\":16278:16588   */\n      iszero\n      tag_299\n      jumpi\n        /* \"#utility.yul\":16373:16417   */\n      tag_300\n        /* \"#utility.yul\":16410:16416   */\n      dup3\n        /* \"#utility.yul\":16373:16417   */\n      tag_102\n      jump\t// in\n    tag_300:\n        /* \"#utility.yul\":16437:16500   */\n      tag_301\n        /* \"#utility.yul\":16496:16499   */\n      dup8\n        /* \"#utility.yul\":16481:16494   */\n      dup3\n        /* \"#utility.yul\":16437:16500   */\n      tag_80\n      jump\t// in\n    tag_301:\n        /* \"#utility.yul\":16430:16500   */\n      swap7\n      pop\n        /* \"#utility.yul\":16523:16578   */\n      tag_302\n        /* \"#utility.yul\":16571:16577   */\n      dup4\n        /* \"#utility.yul\":16523:16578   */\n      tag_103\n      jump\t// in\n    tag_302:\n        /* \"#utility.yul\":16513:16578   */\n      swap3\n      pop\n        /* \"#utility.yul\":16338:16588   */\n      pop\n        /* \"#utility.yul\":16325:16326   */\n      0x01\n        /* \"#utility.yul\":16322:16323   */\n      dup2\n        /* \"#utility.yul\":16318:16327   */\n      add\n        /* \"#utility.yul\":16313:16327   */\n      swap1\n      pop\n        /* \"#utility.yul\":16278:16588   */\n      jump(tag_297)\n    tag_299:\n        /* \"#utility.yul\":16282:16296   */\n      pop\n        /* \"#utility.yul\":15991:16595   */\n      pop\n      pop\n      pop\n        /* \"#utility.yul\":15882:16595   */\n      pop\n      pop\n      jump\t// out\n        /* \"#utility.yul\":16601:17325   */\n    tag_41:\n        /* \"#utility.yul\":16838:16842   */\n      0x00\n        /* \"#utility.yul\":16876:16879   */\n      0xa0\n        /* \"#utility.yul\":16865:16874   */\n      dup3\n        /* \"#utility.yul\":16861:16880   */\n      add\n        /* \"#utility.yul\":16853:16880   */\n      swap1\n      pop\n        /* \"#utility.yul\":16890:16961   */\n      tag_304\n        /* \"#utility.yul\":16958:16959   */\n      0x00\n        /* \"#utility.yul\":16947:16956   */\n      dup4\n        /* \"#utility.yul\":16943:16960   */\n      add\n        /* \"#utility.yul\":16934:16940   */\n      dup8\n        /* \"#utility.yul\":16890:16961   */\n      tag_72\n      jump\t// in\n    tag_304:\n        /* \"#utility.yul\":16971:17043   */\n      tag_305\n        /* \"#utility.yul\":17039:17041   */\n      0x20\n        /* \"#utility.yul\":17028:17037   */\n      dup4\n        /* \"#utility.yul\":17024:17042   */\n      add\n        /* \"#utility.yul\":17015:17021   */\n      dup7\n        /* \"#utility.yul\":16971:17043   */\n      tag_75\n      jump\t// in\n    tag_305:\n        /* \"#utility.yul\":17090:17099   */\n      dup2\n        /* \"#utility.yul\":17084:17088   */\n      dup2\n        /* \"#utility.yul\":17080:17100   */\n      sub\n        /* \"#utility.yul\":17075:17077   */\n      0x40\n        /* \"#utility.yul\":17064:17073   */\n      dup4\n        /* \"#utility.yul\":17060:17078   */\n      add\n        /* \"#utility.yul\":17053:17101   */\n      mstore\n        /* \"#utility.yul\":17118:17193   */\n      tag_306\n        /* \"#utility.yul\":17188:17192   */\n      dup2\n        /* \"#utility.yul\":17179:17185   */\n      dup6\n        /* \"#utility.yul\":17118:17193   */\n      tag_108\n      jump\t// in\n    tag_306:\n        /* \"#utility.yul\":17110:17193   */\n      swap1\n      pop\n        /* \"#utility.yul\":17203:17318   */\n      tag_307\n        /* \"#utility.yul\":17314:17316   */\n      0x60\n        /* \"#utility.yul\":17303:17312   */\n      dup4\n        /* \"#utility.yul\":17299:17317   */\n      add\n        /* \"#utility.yul\":17290:17296   */\n      dup5\n        /* \"#utility.yul\":17203:17318   */\n      tag_109\n      jump\t// in\n    tag_307:\n        /* \"#utility.yul\":16601:17325   */\n      swap6\n      swap5\n      pop\n      pop\n      pop\n      pop\n      pop\n      jump\t// out\n        /* \"#utility.yul\":17331:17453   */\n    tag_110:\n        /* \"#utility.yul\":17404:17428   */\n      tag_309\n        /* \"#utility.yul\":17422:17427   */\n      dup2\n        /* \"#utility.yul\":17404:17428   */\n      tag_71\n      jump\t// in\n    tag_309:\n        /* \"#utility.yul\":17397:17402   */\n      dup2\n        /* \"#utility.yul\":17394:17429   */\n      eq\n        /* \"#utility.yul\":17384:17447   */\n      tag_310\n      jumpi\n        /* \"#utility.yul\":17443:17444   */\n      0x00\n        /* \"#utility.yul\":17440:17441   */\n      dup1\n        /* \"#utility.yul\":17433:17445   */\n      revert\n        /* \"#utility.yul\":17384:17447   */\n    tag_310:\n        /* \"#utility.yul\":17331:17453   */\n      pop\n      jump\t// out\n        /* \"#utility.yul\":17459:17602   */\n    tag_111:\n        /* \"#utility.yul\":17516:17521   */\n      0x00\n        /* \"#utility.yul\":17547:17553   */\n      dup2\n        /* \"#utility.yul\":17541:17554   */\n      mload\n        /* \"#utility.yul\":17532:17554   */\n      swap1\n      pop\n        /* \"#utility.yul\":17563:17596   */\n      tag_312\n        /* \"#utility.yul\":17590:17595   */\n      dup2\n        /* \"#utility.yul\":17563:17596   */\n      tag_110\n      jump\t// in\n    tag_312:\n        /* \"#utility.yul\":17459:17602   */\n      swap3\n      swap2\n      pop\n      pop\n      jump\t// out\n        /* \"#utility.yul\":17608:17712   */\n    tag_112:\n        /* \"#utility.yul\":17653:17660   */\n      0x00\n        /* \"#utility.yul\":17682:17706   */\n      tag_314\n        /* \"#utility.yul\":17700:17705   */\n      dup3\n        /* \"#utility.yul\":17682:17706   */\n      tag_73\n      jump\t// in\n    tag_314:\n        /* \"#utility.yul\":17671:17706   */\n      swap1\n      pop\n        /* \"#utility.yul\":17608:17712   */\n      swap2\n      swap1\n      pop\n      jump\t// out\n        /* \"#utility.yul\":17718:17856   */\n    tag_113:\n        /* \"#utility.yul\":17799:17831   */\n      tag_316\n        /* \"#utility.yul\":17825:17830   */\n      dup2\n        /* \"#utility.yul\":17799:17831   */\n      tag_112\n      jump\t// in\n    tag_316:\n        /* \"#utility.yul\":17792:17797   */\n      dup2\n        /* \"#utility.yul\":17789:17832   */\n      eq\n        /* \"#utility.yul\":17779:17850   */\n      tag_317\n      jumpi\n        /* \"#utility.yul\":17846:17847   */\n      0x00\n        /* \"#utility.yul\":17843:17844   */\n      dup1\n        /* \"#utility.yul\":17836:17848   */\n      revert\n        /* \"#utility.yul\":17779:17850   */\n    tag_317:\n        /* \"#utility.yul\":17718:17856   */\n      pop\n      jump\t// out\n        /* \"#utility.yul\":17862:18021   */\n    tag_114:\n        /* \"#utility.yul\":17927:17932   */\n      0x00\n        /* \"#utility.yul\":17958:17964   */\n      dup2\n        /* \"#utility.yul\":17952:17965   */\n      mload\n        /* \"#utility.yul\":17943:17965   */\n      swap1\n      pop\n        /* \"#utility.yul\":17974:18015   */\n      tag_319\n        /* \"#utility.yul\":18009:18014   */\n      dup2\n        /* \"#utility.yul\":17974:18015   */\n      tag_113\n      jump\t// in\n    tag_319:\n        /* \"#utility.yul\":17862:18021   */\n      swap3\n      swap2\n      pop\n      pop\n      jump\t// out\n        /* \"#utility.yul\":18027:18276   */\n    tag_115:\n        /* \"#utility.yul\":18102:18106   */\n      0x00\n        /* \"#utility.yul\":18192:18210   */\n      0xffffffffffffffff\n        /* \"#utility.yul\":18184:18190   */\n      dup3\n        /* \"#utility.yul\":18181:18211   */\n      gt\n        /* \"#utility.yul\":18178:18234   */\n      iszero\n      tag_321\n      jumpi\n        /* \"#utility.yul\":18214:18232   */\n      tag_322\n      tag_61\n      jump\t// in\n    tag_322:\n        /* \"#utility.yul\":18178:18234   */\n    tag_321:\n        /* \"#utility.yul\":18264:18268   */\n      0x20\n        /* \"#utility.yul\":18256:18262   */\n      dup3\n        /* \"#utility.yul\":18252:18269   */\n      mul\n        /* \"#utility.yul\":18244:18269   */\n      swap1\n      pop\n        /* \"#utility.yul\":18027:18276   */\n      swap2\n      swap1\n      pop\n      jump\t// out\n        /* \"#utility.yul\":18282:18399   */\n    tag_116:\n        /* \"#utility.yul\":18391:18392   */\n      0x00\n        /* \"#utility.yul\":18388:18389   */\n      dup1\n        /* \"#utility.yul\":18381:18393   */\n      revert\n        /* \"#utility.yul\":18423:19088   */\n    tag_117:\n        /* \"#utility.yul\":18528:18533   */\n      0x00\n        /* \"#utility.yul\":18553:18632   */\n      tag_325\n        /* \"#utility.yul\":18569:18631   */\n      tag_326\n        /* \"#utility.yul\":18624:18630   */\n      dup5\n        /* \"#utility.yul\":18569:18631   */\n      tag_115\n      jump\t// in\n    tag_326:\n        /* \"#utility.yul\":18553:18632   */\n      tag_63\n      jump\t// in\n    tag_325:\n        /* \"#utility.yul\":18544:18632   */\n      swap1\n      pop\n        /* \"#utility.yul\":18652:18657   */\n      dup1\n        /* \"#utility.yul\":18705:18709   */\n      0x20\n        /* \"#utility.yul\":18697:18703   */\n      dup5\n        /* \"#utility.yul\":18693:18710   */\n      mul\n        /* \"#utility.yul\":18685:18691   */\n      dup4\n        /* \"#utility.yul\":18681:18711   */\n      add\n        /* \"#utility.yul\":18734:18737   */\n      dup6\n        /* \"#utility.yul\":18726:18732   */\n      dup2\n        /* \"#utility.yul\":18723:18738   */\n      gt\n        /* \"#utility.yul\":18720:18842   */\n      iszero\n      tag_327\n      jumpi\n        /* \"#utility.yul\":18753:18832   */\n      tag_328\n      tag_116\n      jump\t// in\n    tag_328:\n        /* \"#utility.yul\":18720:18842   */\n    tag_327:\n        /* \"#utility.yul\":18868:18874   */\n      dup4\n        /* \"#utility.yul\":18851:19082   */\n    tag_329:\n        /* \"#utility.yul\":18885:18891   */\n      dup2\n        /* \"#utility.yul\":18880:18883   */\n      dup2\n        /* \"#utility.yul\":18877:18892   */\n      lt\n        /* \"#utility.yul\":18851:19082   */\n      iszero\n      tag_331\n      jumpi\n        /* \"#utility.yul\":18960:18963   */\n      dup1\n        /* \"#utility.yul\":18989:19037   */\n      tag_332\n        /* \"#utility.yul\":19033:19036   */\n      dup9\n        /* \"#utility.yul\":19021:19031   */\n      dup3\n        /* \"#utility.yul\":18989:19037   */\n      tag_111\n      jump\t// in\n    tag_332:\n        /* \"#utility.yul\":18984:18987   */\n      dup5\n        /* \"#utility.yul\":18977:19038   */\n      mstore\n        /* \"#utility.yul\":19067:19071   */\n      0x20\n        /* \"#utility.yul\":19062:19065   */\n      dup5\n        /* \"#utility.yul\":19058:19072   */\n      add\n        /* \"#utility.yul\":19051:19072   */\n      swap4\n      pop\n        /* \"#utility.yul\":18927:19082   */\n      pop\n        /* \"#utility.yul\":18911:18915   */\n      0x20\n        /* \"#utility.yul\":18906:18909   */\n      dup2\n        /* \"#utility.yul\":18902:18916   */\n      add\n        /* \"#utility.yul\":18895:18916   */\n      swap1\n      pop\n        /* \"#utility.yul\":18851:19082   */\n      jump(tag_329)\n    tag_331:\n        /* \"#utility.yul\":18855:18876   */\n      pop\n        /* \"#utility.yul\":18534:19088   */\n      pop\n      pop\n        /* \"#utility.yul\":18423:19088   */\n      swap4\n      swap3\n      pop\n      pop\n      pop\n      jump\t// out\n        /* \"#utility.yul\":19112:19473   */\n    tag_118:\n        /* \"#utility.yul\":19192:19197   */\n      0x00\n        /* \"#utility.yul\":19241:19244   */\n      dup3\n        /* \"#utility.yul\":19234:19238   */\n      0x1f\n        /* \"#utility.yul\":19226:19232   */\n      dup4\n        /* \"#utility.yul\":19222:19239   */\n      add\n        /* \"#utility.yul\":19218:19245   */\n      slt\n        /* \"#utility.yul\":19208:19330   */\n      tag_334\n      jumpi\n        /* \"#utility.yul\":19249:19328   */\n      tag_335\n      tag_59\n      jump\t// in\n    tag_335:\n        /* \"#utility.yul\":19208:19330   */\n    tag_334:\n        /* \"#utility.yul\":19353:19357   */\n      0x02\n        /* \"#utility.yul\":19375:19467   */\n      tag_336\n        /* \"#utility.yul\":19463:19466   */\n      dup5\n        /* \"#utility.yul\":19455:19461   */\n      dup3\n        /* \"#utility.yul\":19447:19453   */\n      dup6\n        /* \"#utility.yul\":19375:19467   */\n      tag_117\n      jump\t// in\n    tag_336:\n        /* \"#utility.yul\":19366:19467   */\n      swap2\n      pop\n        /* \"#utility.yul\":19198:19473   */\n      pop\n        /* \"#utility.yul\":19112:19473   */\n      swap3\n      swap2\n      pop\n      pop\n      jump\t// out\n        /* \"#utility.yul\":19479:20534   */\n    tag_50:\n        /* \"#utility.yul\":19617:19623   */\n      0x00\n        /* \"#utility.yul\":19625:19631   */\n      dup1\n        /* \"#utility.yul\":19633:19639   */\n      0x00\n        /* \"#utility.yul\":19641:19647   */\n      dup1\n        /* \"#utility.yul\":19690:19693   */\n      0xa0\n        /* \"#utility.yul\":19678:19687   */\n      dup6\n        /* \"#utility.yul\":19669:19676   */\n      dup8\n        /* \"#utility.yul\":19665:19688   */\n      sub\n        /* \"#utility.yul\":19661:19694   */\n      slt\n        /* \"#utility.yul\":19658:19778   */\n      iszero\n      tag_338\n      jumpi\n        /* \"#utility.yul\":19697:19776   */\n      tag_339\n      tag_57\n      jump\t// in\n    tag_339:\n        /* \"#utility.yul\":19658:19778   */\n    tag_338:\n        /* \"#utility.yul\":19817:19818   */\n      0x00\n        /* \"#utility.yul\":19842:19906   */\n      tag_340\n        /* \"#utility.yul\":19898:19905   */\n      dup8\n        /* \"#utility.yul\":19889:19895   */\n      dup3\n        /* \"#utility.yul\":19878:19887   */\n      dup9\n        /* \"#utility.yul\":19874:19896   */\n      add\n        /* \"#utility.yul\":19842:19906   */\n      tag_111\n      jump\t// in\n    tag_340:\n        /* \"#utility.yul\":19832:19906   */\n      swap5\n      pop\n        /* \"#utility.yul\":19788:19916   */\n      pop\n        /* \"#utility.yul\":19955:19957   */\n      0x20\n        /* \"#utility.yul\":19981:20053   */\n      tag_341\n        /* \"#utility.yul\":20045:20052   */\n      dup8\n        /* \"#utility.yul\":20036:20042   */\n      dup3\n        /* \"#utility.yul\":20025:20034   */\n      dup9\n        /* \"#utility.yul\":20021:20043   */\n      add\n        /* \"#utility.yul\":19981:20053   */\n      tag_114\n      jump\t// in\n    tag_341:\n        /* \"#utility.yul\":19971:20053   */\n      swap4\n      pop\n        /* \"#utility.yul\":19926:20063   */\n      pop\n        /* \"#utility.yul\":20123:20125   */\n      0x40\n        /* \"#utility.yul\":20112:20121   */\n      dup6\n        /* \"#utility.yul\":20108:20126   */\n      add\n        /* \"#utility.yul\":20102:20127   */\n      mload\n        /* \"#utility.yul\":20154:20172   */\n      0xffffffffffffffff\n        /* \"#utility.yul\":20146:20152   */\n      dup2\n        /* \"#utility.yul\":20143:20173   */\n      gt\n        /* \"#utility.yul\":20140:20257   */\n      iszero\n      tag_342\n      jumpi\n        /* \"#utility.yul\":20176:20255   */\n      tag_343\n      tag_58\n      jump\t// in\n    tag_343:\n        /* \"#utility.yul\":20140:20257   */\n    tag_342:\n        /* \"#utility.yul\":20281:20355   */\n      tag_344\n        /* \"#utility.yul\":20347:20354   */\n      dup8\n        /* \"#utility.yul\":20338:20344   */\n      dup3\n        /* \"#utility.yul\":20327:20336   */\n      dup9\n        /* \"#utility.yul\":20323:20345   */\n      add\n        /* \"#utility.yul\":20281:20355   */\n      tag_107\n      jump\t// in\n    tag_344:\n        /* \"#utility.yul\":20271:20355   */\n      swap3\n      pop\n        /* \"#utility.yul\":20073:20365   */\n      pop\n        /* \"#utility.yul\":20404:20406   */\n      0x60\n        /* \"#utility.yul\":20430:20517   */\n      tag_345\n        /* \"#utility.yul\":20509:20516   */\n      dup8\n        /* \"#utility.yul\":20500:20506   */\n      dup3\n        /* \"#utility.yul\":20489:20498   */\n      dup9\n        /* \"#utility.yul\":20485:20507   */\n      add\n        /* \"#utility.yul\":20430:20517   */\n      tag_118\n      jump\t// in\n    tag_345:\n        /* \"#utility.yul\":20420:20517   */\n      swap2\n      pop\n        /* \"#utility.yul\":20375:20527   */\n      pop\n        /* \"#utility.yul\":19479:20534   */\n      swap3\n      swap6\n      swap2\n      swap5\n      pop\n      swap3\n      pop\n      jump\t// out\n\n    auxdata: 0xa26469706673582212202056e00b599fd6ec8714c9345fd29f55f40720efad0e1b6d0e5f0b90636336cf64736f6c63430008190033\n}\n",
				"bytecode": {
					"linkReferences": {},
					"object": "6080604052600a5f55737a58c0be72be218b41c608b7fe7c5bb630736c7160015f6101000a81548173ffffffffffffffffffffffffffffffffffffffff021916908373ffffffffffffffffffffffffffffffffffffffff1602179055506040518060400160405280600481526020017f3078414100000000000000000000000000000000000000000000000000000000815250600290816100a0919061037a565b506040518060400160405280600560ff168152602001600660ff1681525060039060026100ce9291906100e0565b503480156100da575f80fd5b50610449565b8260028101928215610114579160200282015b82811115610113578251829060ff169055916020019190600101906100f3565b5b5090506101219190610125565b5090565b5b8082111561013c575f815f905550600101610126565b5090565b5f81519050919050565b7f4e487b71000000000000000000000000000000000000000000000000000000005f52604160045260245ffd5b7f4e487b71000000000000000000000000000000000000000000000000000000005f52602260045260245ffd5b5f60028204905060018216806101bb57607f821691505b6020821081036101ce576101cd610177565b5b50919050565b5f819050815f5260205f209050919050565b5f6020601f8301049050919050565b5f82821b905092915050565b5f600883026102307fffffffffffffffffffffffffffffffffffffffffffffffffffffffffffffffff826101f5565b61023a86836101f5565b95508019841693508086168417925050509392505050565b5f819050919050565b5f819050919050565b5f61027e61027961027484610252565b61025b565b610252565b9050919050565b5f819050919050565b61029783610264565b6102ab6102a382610285565b848454610201565b825550505050565b5f90565b6102bf6102b3565b6102ca81848461028e565b505050565b5b818110156102ed576102e25f826102b7565b6001810190506102d0565b5050565b601f82111561033257610303816101d4565b61030c846101e6565b8101602085101561031b578190505b61032f610327856101e6565b8301826102cf565b50505b505050565b5f82821c905092915050565b5f6103525f1984600802610337565b1980831691505092915050565b5f61036a8383610343565b9150826002028217905092915050565b61038382610140565b67ffffffffffffffff81111561039c5761039b61014a565b5b6103a682546101a4565b6103b18282856102f1565b5f60209050601f8311600181146103e2575f84156103d0578287015190505b6103da858261035f565b865550610441565b601f1984166103f0866101d4565b5f5b82811015610417578489015182556001820191506020850194506020810190506103f2565b868310156104345784890151610430601f891682610343565b8355505b6001600288020188555050505b505050505050565b610e0e806104565f395ff3fe608060405234801561000f575f80fd5b5060043610610060575f3560e01c806353d9c5061461006457806378ea1d6914610082578063bd14598f146100b2578063d1bd363d146100d0578063e4f2a84a146100ee578063e5c5e9a31461010c575b5f80fd5b61006c61013f565b6040516100799190610446565b60405180910390f35b61009c600480360381019061009791906105a3565b610190565b6040516100a9919061063c565b60405180910390f35b6100ba6101ad565b6040516100c79190610446565b60405180910390f35b6100d86101fe565b6040516100e59190610446565b60405180910390f35b6100f66102be565b6040516101039190610446565b60405180910390f35b610126600480360381019061012191906105a3565b61037d565b6040516101369493929190610758565b60405180910390f35b60605f5460015f9054906101000a900473ffffffffffffffffffffffffffffffffffffffff166002600360405160200161017c94939291906109eb565b604051602081830303815290604052905090565b6060818060200190518101906101a69190610ad2565b9050919050565b60605f5460015f9054906101000a900473ffffffffffffffffffffffffffffffffffffffff16600260036040516020016101ea9493929190610bf7565b604051602081830303815290604052905090565b60607fe87082f1450a46f8f3150d7bda55bda41a2b08d68abde6797ccc68be305673355f5460015f9054906101000a900473ffffffffffffffffffffffffffffffffffffffff166002600360405160240161025c9493929190610bf7565b604051602081830303815290604052907bffffffffffffffffffffffffffffffffffffffffffffffffffffffff19166020820180517bffffffffffffffffffffffffffffffffffffffffffffffffffffffff8381831617835250505050905090565b60605f5460015f9054906101000a900473ffffffffffffffffffffffffffffffffffffffff16600260036040516024016102fb9493929190610bf7565b6040516020818303038152906040527fe87082f1000000000000000000000000000000000000000000000000000000007bffffffffffffffffffffffffffffffffffffffffffffffffffffffff19166020820180517bffffffffffffffffffffffffffffffffffffffffffffffffffffffff8381831617835250505050905090565b5f8060606103896103b4565b8480602001905181019061039d9190610d58565b809450819550829650839750505050509193509193565b6040518060400160405280600290602082028036833780820191505090505090565b5f81519050919050565b5f82825260208201905092915050565b8281835e5f83830152505050565b5f601f19601f8301169050919050565b5f610418826103d6565b61042281856103e0565b93506104328185602086016103f0565b61043b816103fe565b840191505092915050565b5f6020820190508181035f83015261045e818461040e565b905092915050565b5f604051905090565b5f80fd5b5f80fd5b5f80fd5b5f80fd5b7f4e487b71000000000000000000000000000000000000000000000000000000005f52604160045260245ffd5b6104b5826103fe565b810181811067ffffffffffffffff821117156104d4576104d361047f565b5b80604052505050565b5f6104e6610466565b90506104f282826104ac565b919050565b5f67ffffffffffffffff8211156105115761051061047f565b5b61051a826103fe565b9050602081019050919050565b828183375f83830152505050565b5f610547610542846104f7565b6104dd565b9050828152602081018484840111156105635761056261047b565b5b61056e848285610527565b509392505050565b5f82601f83011261058a57610589610477565b5b813561059a848260208601610535565b91505092915050565b5f602082840312156105b8576105b761046f565b5b5f82013567ffffffffffffffff8111156105d5576105d4610473565b5b6105e184828501610576565b91505092915050565b5f81519050919050565b5f82825260208201905092915050565b5f61060e826105ea565b61061881856105f4565b93506106288185602086016103f0565b610631816103fe565b840191505092915050565b5f6020820190508181035f8301526106548184610604565b905092915050565b5f819050919050565b61066e8161065c565b82525050565b5f73ffffffffffffffffffffffffffffffffffffffff82169050919050565b5f61069d82610674565b9050919050565b6106ad81610693565b82525050565b5f60029050919050565b5f81905092915050565b5f819050919050565b6106d98161065c565b82525050565b5f6106ea83836106d0565b60208301905092915050565b5f602082019050919050565b61070b816106b3565b61071581846106bd565b9250610720826106c7565b805f5b8381101561075057815161073787826106df565b9650610742836106f6565b925050600181019050610723565b505050505050565b5f60a08201905061076b5f830187610665565b61077860208301866106a4565b818103604083015261078a8185610604565b90506107996060830184610702565b95945050505050565b5f819050919050565b6107bc6107b78261065c565b6107a2565b82525050565b5f8160601b9050919050565b5f6107d8826107c2565b9050919050565b5f6107e9826107ce565b9050919050565b6108016107fc82610693565b6107df565b82525050565b7f4e487b71000000000000000000000000000000000000000000000000000000005f52602260045260245ffd5b5f600282049050600182168061084b57607f821691505b60208210810361085e5761085d610807565b5b50919050565b5f81905092915050565b5f819050815f5260205f209050919050565b5f815461088c81610834565b6108968186610864565b9450600182165f81146108b057600181146108c5576108f7565b60ff19831686528115158202860193506108f7565b6108ce8561086e565b5f5b838110156108ef578154818901526001820191506020810190506108d0565b838801955050505b50505092915050565b5f60029050919050565b5f81905092915050565b5f819050919050565b6109268161065c565b82525050565b5f610937838361091d565b60208301905092915050565b5f815f1c9050919050565b5f819050919050565b5f61096961096483610943565b61094e565b9050919050565b5f61097b8254610957565b9050919050565b5f600182019050919050565b61099781610900565b6109a1818461090a565b92506109ac82610914565b805f5b838110156109e3576109c082610970565b6109ca878261092c565b96506109d583610982565b9250506001810190506109af565b505050505050565b5f6109f682876107ab565b602082019150610a0682866107f0565b601482019150610a168285610880565b9150610a22828461098e565b60408201915081905095945050505050565b5f67ffffffffffffffff821115610a4e57610a4d61047f565b5b610a57826103fe565b9050602081019050919050565b5f610a76610a7184610a34565b6104dd565b905082815260208101848484011115610a9257610a9161047b565b5b610a9d8482856103f0565b509392505050565b5f82601f830112610ab957610ab8610477565b5b8151610ac9848260208601610a64565b91505092915050565b5f60208284031215610ae757610ae661046f565b5b5f82015167ffffffffffffffff811115610b0457610b03610473565b5b610b1084828501610aa5565b91505092915050565b5f8154610b2581610834565b610b2f81866105f4565b9450600182165f8114610b495760018114610b5f57610b91565b60ff198316865281151560200286019350610b91565b610b688561086e565b5f5b83811015610b8957815481890152600182019150602081019050610b6a565b808801955050505b50505092915050565b610ba381610900565b610bad81846106bd565b9250610bb882610914565b805f5b83811015610bef57610bcc82610970565b610bd687826106df565b9650610be183610982565b925050600181019050610bbb565b505050505050565b5f60a082019050610c0a5f830187610665565b610c1760208301866106a4565b8181036040830152610c298185610b19565b9050610c386060830184610b9a565b95945050505050565b610c4a8161065c565b8114610c54575f80fd5b50565b5f81519050610c6581610c41565b92915050565b5f610c7582610674565b9050919050565b610c8581610c6b565b8114610c8f575f80fd5b50565b5f81519050610ca081610c7c565b92915050565b5f67ffffffffffffffff821115610cc057610cbf61047f565b5b602082029050919050565b5f80fd5b5f610ce1610cdc84610ca6565b6104dd565b90508060208402830185811115610cfb57610cfa610ccb565b5b835b81811015610d245780610d108882610c57565b845260208401935050602081019050610cfd565b5050509392505050565b5f82601f830112610d4257610d41610477565b5b6002610d4f848285610ccf565b91505092915050565b5f805f8060a08587031215610d7057610d6f61046f565b5b5f610d7d87828801610c57565b9450506020610d8e87828801610c92565b935050604085015167ffffffffffffffff811115610daf57610dae610473565b5b610dbb87828801610aa5565b9250506060610dcc87828801610d2e565b9150509295919450925056fea26469706673582212202056e00b599fd6ec8714c9345fd29f55f40720efad0e1b6d0e5f0b90636336cf64736f6c63430008190033",
					"opcodes": "PUSH1 0x80 PUSH1 0x40 MSTORE PUSH1 0xA PUSH0 SSTORE PUSH20 0x7A58C0BE72BE218B41C608B7FE7C5BB630736C71 PUSH1 0x1 PUSH0 PUSH2 0x100 EXP DUP2 SLOAD DUP2 PUSH20 0xFFFFFFFFFFFFFFFFFFFFFFFFFFFFFFFFFFFFFFFF MUL NOT AND SWAP1 DUP4 PUSH20 0xFFFFFFFFFFFFFFFFFFFFFFFFFFFFFFFFFFFFFFFF AND MUL OR SWAP1 SSTORE POP PUSH1 0x40 MLOAD DUP1 PUSH1 0x40 ADD PUSH1 0x40 MSTORE DUP1 PUSH1 0x4 DUP2 MSTORE PUSH1 0x20 ADD PUSH32 0x3078414100000000000000000000000000000000000000000000000000000000 DUP2 MSTORE POP PUSH1 0x2 SWAP1 DUP2 PUSH2 0xA0 SWAP2 SWAP1 PUSH2 0x37A JUMP JUMPDEST POP PUSH1 0x40 MLOAD DUP1 PUSH1 0x40 ADD PUSH1 0x40 MSTORE DUP1 PUSH1 0x5 PUSH1 0xFF AND DUP2 MSTORE PUSH1 0x20 ADD PUSH1 0x6 PUSH1 0xFF AND DUP2 MSTORE POP PUSH1 0x3 SWAP1 PUSH1 0x2 PUSH2 0xCE SWAP3 SWAP2 SWAP1 PUSH2 0xE0 JUMP JUMPDEST POP CALLVALUE DUP1 ISZERO PUSH2 0xDA JUMPI PUSH0 DUP1 REVERT JUMPDEST POP PUSH2 0x449 JUMP JUMPDEST DUP3 PUSH1 0x2 DUP2 ADD SWAP3 DUP3 ISZERO PUSH2 0x114 JUMPI SWAP2 PUSH1 0x20 MUL DUP3 ADD JUMPDEST DUP3 DUP2 GT ISZERO PUSH2 0x113 JUMPI DUP3 MLOAD DUP3 SWAP1 PUSH1 0xFF AND SWAP1 SSTORE SWAP2 PUSH1 0x20 ADD SWAP2 SWAP1 PUSH1 0x1 ADD SWAP1 PUSH2 0xF3 JUMP JUMPDEST JUMPDEST POP SWAP1 POP PUSH2 0x121 SWAP2 SWAP1 PUSH2 0x125 JUMP JUMPDEST POP SWAP1 JUMP JUMPDEST JUMPDEST DUP1 DUP3 GT ISZERO PUSH2 0x13C JUMPI PUSH0 DUP2 PUSH0 SWAP1 SSTORE POP PUSH1 0x1 ADD PUSH2 0x126 JUMP JUMPDEST POP SWAP1 JUMP JUMPDEST PUSH0 DUP2 MLOAD SWAP1 POP SWAP2 SWAP1 POP JUMP JUMPDEST PUSH32 0x4E487B7100000000000000000000000000000000000000000000000000000000 PUSH0 MSTORE PUSH1 0x41 PUSH1 0x4 MSTORE PUSH1 0x24 PUSH0 REVERT JUMPDEST PUSH32 0x4E487B7100000000000000000000000000000000000000000000000000000000 PUSH0 MSTORE PUSH1 0x22 PUSH1 0x4 MSTORE PUSH1 0x24 PUSH0 REVERT JUMPDEST PUSH0 PUSH1 0x2 DUP3 DIV SWAP1 POP PUSH1 0x1 DUP3 AND DUP1 PUSH2 0x1BB JUMPI PUSH1 0x7F DUP3 AND SWAP2 POP JUMPDEST PUSH1 0x20 DUP3 LT DUP2 SUB PUSH2 0x1CE JUMPI PUSH2 0x1CD PUSH2 0x177 JUMP JUMPDEST JUMPDEST POP SWAP2 SWAP1 POP JUMP JUMPDEST PUSH0 DUP2 SWAP1 POP DUP2 PUSH0 MSTORE PUSH1 0x20 PUSH0 KECCAK256 SWAP1 POP SWAP2 SWAP1 POP JUMP JUMPDEST PUSH0 PUSH1 0x20 PUSH1 0x1F DUP4 ADD DIV SWAP1 POP SWAP2 SWAP1 POP JUMP JUMPDEST PUSH0 DUP3 DUP3 SHL SWAP1 POP SWAP3 SWAP2 POP POP JUMP JUMPDEST PUSH0 PUSH1 0x8 DUP4 MUL PUSH2 0x230 PUSH32 0xFFFFFFFFFFFFFFFFFFFFFFFFFFFFFFFFFFFFFFFFFFFFFFFFFFFFFFFFFFFFFFFF DUP3 PUSH2 0x1F5 JUMP JUMPDEST PUSH2 0x23A DUP7 DUP4 PUSH2 0x1F5 JUMP JUMPDEST SWAP6 POP DUP1 NOT DUP5 AND SWAP4 POP DUP1 DUP7 AND DUP5 OR SWAP3 POP POP POP SWAP4 SWAP3 POP POP POP JUMP JUMPDEST PUSH0 DUP2 SWAP1 POP SWAP2 SWAP1 POP JUMP JUMPDEST PUSH0 DUP2 SWAP1 POP SWAP2 SWAP1 POP JUMP JUMPDEST PUSH0 PUSH2 0x27E PUSH2 0x279 PUSH2 0x274 DUP5 PUSH2 0x252 JUMP JUMPDEST PUSH2 0x25B JUMP JUMPDEST PUSH2 0x252 JUMP JUMPDEST SWAP1 POP SWAP2 SWAP1 POP JUMP JUMPDEST PUSH0 DUP2 SWAP1 POP SWAP2 SWAP1 POP JUMP JUMPDEST PUSH2 0x297 DUP4 PUSH2 0x264 JUMP JUMPDEST PUSH2 0x2AB PUSH2 0x2A3 DUP3 PUSH2 0x285 JUMP JUMPDEST DUP5 DUP5 SLOAD PUSH2 0x201 JUMP JUMPDEST DUP3 SSTORE POP POP POP POP JUMP JUMPDEST PUSH0 SWAP1 JUMP JUMPDEST PUSH2 0x2BF PUSH2 0x2B3 JUMP JUMPDEST PUSH2 0x2CA DUP2 DUP5 DUP5 PUSH2 0x28E JUMP JUMPDEST POP POP POP JUMP JUMPDEST JUMPDEST DUP2 DUP2 LT ISZERO PUSH2 0x2ED JUMPI PUSH2 0x2E2 PUSH0 DUP3 PUSH2 0x2B7 JUMP JUMPDEST PUSH1 0x1 DUP2 ADD SWAP1 POP PUSH2 0x2D0 JUMP JUMPDEST POP POP JUMP JUMPDEST PUSH1 0x1F DUP3 GT ISZERO PUSH2 0x332 JUMPI PUSH2 0x303 DUP2 PUSH2 0x1D4 JUMP JUMPDEST PUSH2 0x30C DUP5 PUSH2 0x1E6 JUMP JUMPDEST DUP2 ADD PUSH1 0x20 DUP6 LT ISZERO PUSH2 0x31B JUMPI DUP2 SWAP1 POP JUMPDEST PUSH2 0x32F PUSH2 0x327 DUP6 PUSH2 0x1E6 JUMP JUMPDEST DUP4 ADD DUP3 PUSH2 0x2CF JUMP JUMPDEST POP POP JUMPDEST POP POP POP JUMP JUMPDEST PUSH0 DUP3 DUP3 SHR SWAP1 POP SWAP3 SWAP2 POP POP JUMP JUMPDEST PUSH0 PUSH2 0x352 PUSH0 NOT DUP5 PUSH1 0x8 MUL PUSH2 0x337 JUMP JUMPDEST NOT DUP1 DUP4 AND SWAP2 POP POP SWAP3 SWAP2 POP POP JUMP JUMPDEST PUSH0 PUSH2 0x36A DUP4 DUP4 PUSH2 0x343 JUMP JUMPDEST SWAP2 POP DUP3 PUSH1 0x2 MUL DUP3 OR SWAP1 POP SWAP3 SWAP2 POP POP JUMP JUMPDEST PUSH2 0x383 DUP3 PUSH2 0x140 JUMP JUMPDEST PUSH8 0xFFFFFFFFFFFFFFFF DUP2 GT ISZERO PUSH2 0x39C JUMPI PUSH2 0x39B PUSH2 0x14A JUMP JUMPDEST JUMPDEST PUSH2 0x3A6 DUP3 SLOAD PUSH2 0x1A4 JUMP JUMPDEST PUSH2 0x3B1 DUP3 DUP3 DUP6 PUSH2 0x2F1 JUMP JUMPDEST PUSH0 PUSH1 0x20 SWAP1 POP PUSH1 0x1F DUP4 GT PUSH1 0x1 DUP2 EQ PUSH2 0x3E2 JUMPI PUSH0 DUP5 ISZERO PUSH2 0x3D0 JUMPI DUP3 DUP8 ADD MLOAD SWAP1 POP JUMPDEST PUSH2 0x3DA DUP6 DUP3 PUSH2 0x35F JUMP JUMPDEST DUP7 SSTORE POP PUSH2 0x441 JUMP JUMPDEST PUSH1 0x1F NOT DUP5 AND PUSH2 0x3F0 DUP7 PUSH2 0x1D4 JUMP JUMPDEST PUSH0 JUMPDEST DUP3 DUP2 LT ISZERO PUSH2 0x417 JUMPI DUP5 DUP10 ADD MLOAD DUP3 SSTORE PUSH1 0x1 DUP3 ADD SWAP2 POP PUSH1 0x20 DUP6 ADD SWAP5 POP PUSH1 0x20 DUP2 ADD SWAP1 POP PUSH2 0x3F2 JUMP JUMPDEST DUP7 DUP4 LT ISZERO PUSH2 0x434 JUMPI DUP5 DUP10 ADD MLOAD PUSH2 0x430 PUSH1 0x1F DUP10 AND DUP3 PUSH2 0x343 JUMP JUMPDEST DUP4 SSTORE POP JUMPDEST PUSH1 0x1 PUSH1 0x2 DUP9 MUL ADD DUP9 SSTORE POP POP POP JUMPDEST POP POP POP POP POP POP JUMP JUMPDEST PUSH2 0xE0E DUP1 PUSH2 0x456 PUSH0 CODECOPY PUSH0 RETURN INVALID PUSH1 0x80 PUSH1 0x40 MSTORE CALLVALUE DUP1 ISZERO PUSH2 0xF JUMPI PUSH0 DUP1 REVERT JUMPDEST POP PUSH1 0x4 CALLDATASIZE LT PUSH2 0x60 JUMPI PUSH0 CALLDATALOAD PUSH1 0xE0 SHR DUP1 PUSH4 0x53D9C506 EQ PUSH2 0x64 JUMPI DUP1 PUSH4 0x78EA1D69 EQ PUSH2 0x82 JUMPI DUP1 PUSH4 0xBD14598F EQ PUSH2 0xB2 JUMPI DUP1 PUSH4 0xD1BD363D EQ PUSH2 0xD0 JUMPI DUP1 PUSH4 0xE4F2A84A EQ PUSH2 0xEE JUMPI DUP1 PUSH4 0xE5C5E9A3 EQ PUSH2 0x10C JUMPI JUMPDEST PUSH0 DUP1 REVERT JUMPDEST PUSH2 0x6C PUSH2 0x13F JUMP JUMPDEST PUSH1 0x40 MLOAD PUSH2 0x79 SWAP2 SWAP1 PUSH2 0x446 JUMP JUMPDEST PUSH1 0x40 MLOAD DUP1 SWAP2 SUB SWAP1 RETURN JUMPDEST PUSH2 0x9C PUSH1 0x4 DUP1 CALLDATASIZE SUB DUP2 ADD SWAP1 PUSH2 0x97 SWAP2 SWAP1 PUSH2 0x5A3 JUMP JUMPDEST PUSH2 0x190 JUMP JUMPDEST PUSH1 0x40 MLOAD PUSH2 0xA9 SWAP2 SWAP1 PUSH2 0x63C JUMP JUMPDEST PUSH1 0x40 MLOAD DUP1 SWAP2 SUB SWAP1 RETURN JUMPDEST PUSH2 0xBA PUSH2 0x1AD JUMP JUMPDEST PUSH1 0x40 MLOAD PUSH2 0xC7 SWAP2 SWAP1 PUSH2 0x446 JUMP JUMPDEST PUSH1 0x40 MLOAD DUP1 SWAP2 SUB SWAP1 RETURN JUMPDEST PUSH2 0xD8 PUSH2 0x1FE JUMP JUMPDEST PUSH1 0x40 MLOAD PUSH2 0xE5 SWAP2 SWAP1 PUSH2 0x446 JUMP JUMPDEST PUSH1 0x40 MLOAD DUP1 SWAP2 SUB SWAP1 RETURN JUMPDEST PUSH2 0xF6 PUSH2 0x2BE JUMP JUMPDEST PUSH1 0x40 MLOAD PUSH2 0x103 SWAP2 SWAP1 PUSH2 0x446 JUMP JUMPDEST PUSH1 0x40 MLOAD DUP1 SWAP2 SUB SWAP1 RETURN JUMPDEST PUSH2 0x126 PUSH1 0x4 DUP1 CALLDATASIZE SUB DUP2 ADD SWAP1 PUSH2 0x121 SWAP2 SWAP1 PUSH2 0x5A3 JUMP JUMPDEST PUSH2 0x37D JUMP JUMPDEST PUSH1 0x40 MLOAD PUSH2 0x136 SWAP5 SWAP4 SWAP3 SWAP2 SWAP1 PUSH2 0x758 JUMP JUMPDEST PUSH1 0x40 MLOAD DUP1 SWAP2 SUB SWAP1 RETURN JUMPDEST PUSH1 0x60 PUSH0 SLOAD PUSH1 0x1 PUSH0 SWAP1 SLOAD SWAP1 PUSH2 0x100 EXP SWAP1 DIV PUSH20 0xFFFFFFFFFFFFFFFFFFFFFFFFFFFFFFFFFFFFFFFF AND PUSH1 0x2 PUSH1 0x3 PUSH1 0x40 MLOAD PUSH1 0x20 ADD PUSH2 0x17C SWAP5 SWAP4 SWAP3 SWAP2 SWAP1 PUSH2 0x9EB JUMP JUMPDEST PUSH1 0x40 MLOAD PUSH1 0x20 DUP2 DUP4 SUB SUB DUP2 MSTORE SWAP1 PUSH1 0x40 MSTORE SWAP1 POP SWAP1 JUMP JUMPDEST PUSH1 0x60 DUP2 DUP1 PUSH1 0x20 ADD SWAP1 MLOAD DUP2 ADD SWAP1 PUSH2 0x1A6 SWAP2 SWAP1 PUSH2 0xAD2 JUMP JUMPDEST SWAP1 POP SWAP2 SWAP1 POP JUMP JUMPDEST PUSH1 0x60 PUSH0 SLOAD PUSH1 0x1 PUSH0 SWAP1 SLOAD SWAP1 PUSH2 0x100 EXP SWAP1 DIV PUSH20 0xFFFFFFFFFFFFFFFFFFFFFFFFFFFFFFFFFFFFFFFF AND PUSH1 0x2 PUSH1 0x3 PUSH1 0x40 MLOAD PUSH1 0x20 ADD PUSH2 0x1EA SWAP5 SWAP4 SWAP3 SWAP2 SWAP1 PUSH2 0xBF7 JUMP JUMPDEST PUSH1 0x40 MLOAD PUSH1 0x20 DUP2 DUP4 SUB SUB DUP2 MSTORE SWAP1 PUSH1 0x40 MSTORE SWAP1 POP SWAP1 JUMP JUMPDEST PUSH1 0x60 PUSH32 0xE87082F1450A46F8F3150D7BDA55BDA41A2B08D68ABDE6797CCC68BE30567335 PUSH0 SLOAD PUSH1 0x1 PUSH0 SWAP1 SLOAD SWAP1 PUSH2 0x100 EXP SWAP1 DIV PUSH20 0xFFFFFFFFFFFFFFFFFFFFFFFFFFFFFFFFFFFFFFFF AND PUSH1 0x2 PUSH1 0x3 PUSH1 0x40 MLOAD PUSH1 0x24 ADD PUSH2 0x25C SWAP5 SWAP4 SWAP3 SWAP2 SWAP1 PUSH2 0xBF7 JUMP JUMPDEST PUSH1 0x40 MLOAD PUSH1 0x20 DUP2 DUP4 SUB SUB DUP2 MSTORE SWAP1 PUSH1 0x40 MSTORE SWAP1 PUSH28 0xFFFFFFFFFFFFFFFFFFFFFFFFFFFFFFFFFFFFFFFFFFFFFFFFFFFFFFFF NOT AND PUSH1 0x20 DUP3 ADD DUP1 MLOAD PUSH28 0xFFFFFFFFFFFFFFFFFFFFFFFFFFFFFFFFFFFFFFFFFFFFFFFFFFFFFFFF DUP4 DUP2 DUP4 AND OR DUP4 MSTORE POP POP POP POP SWAP1 POP SWAP1 JUMP JUMPDEST PUSH1 0x60 PUSH0 SLOAD PUSH1 0x1 PUSH0 SWAP1 SLOAD SWAP1 PUSH2 0x100 EXP SWAP1 DIV PUSH20 0xFFFFFFFFFFFFFFFFFFFFFFFFFFFFFFFFFFFFFFFF AND PUSH1 0x2 PUSH1 0x3 PUSH1 0x40 MLOAD PUSH1 0x24 ADD PUSH2 0x2FB SWAP5 SWAP4 SWAP3 SWAP2 SWAP1 PUSH2 0xBF7 JUMP JUMPDEST PUSH1 0x40 MLOAD PUSH1 0x20 DUP2 DUP4 SUB SUB DUP2 MSTORE SWAP1 PUSH1 0x40 MSTORE PUSH32 0xE87082F100000000000000000000000000000000000000000000000000000000 PUSH28 0xFFFFFFFFFFFFFFFFFFFFFFFFFFFFFFFFFFFFFFFFFFFFFFFFFFFFFFFF NOT AND PUSH1 0x20 DUP3 ADD DUP1 MLOAD PUSH28 0xFFFFFFFFFFFFFFFFFFFFFFFFFFFFFFFFFFFFFFFFFFFFFFFFFFFFFFFF DUP4 DUP2 DUP4 AND OR DUP4 MSTORE POP POP POP POP SWAP1 POP SWAP1 JUMP JUMPDEST PUSH0 DUP1 PUSH1 0x60 PUSH2 0x389 PUSH2 0x3B4 JUMP JUMPDEST DUP5 DUP1 PUSH1 0x20 ADD SWAP1 MLOAD DUP2 ADD SWAP1 PUSH2 0x39D SWAP2 SWAP1 PUSH2 0xD58 JUMP JUMPDEST DUP1 SWAP5 POP DUP2 SWAP6 POP DUP3 SWAP7 POP DUP4 SWAP8 POP POP POP POP POP SWAP2 SWAP4 POP SWAP2 SWAP4 JUMP JUMPDEST PUSH1 0x40 MLOAD DUP1 PUSH1 0x40 ADD PUSH1 0x40 MSTORE DUP1 PUSH1 0x2 SWAP1 PUSH1 0x20 DUP3 MUL DUP1 CALLDATASIZE DUP4 CALLDATACOPY DUP1 DUP3 ADD SWAP2 POP POP SWAP1 POP POP SWAP1 JUMP JUMPDEST PUSH0 DUP2 MLOAD SWAP1 POP SWAP2 SWAP1 POP JUMP JUMPDEST PUSH0 DUP3 DUP3 MSTORE PUSH1 0x20 DUP3 ADD SWAP1 POP SWAP3 SWAP2 POP POP JUMP JUMPDEST DUP3 DUP2 DUP4 MCOPY PUSH0 DUP4 DUP4 ADD MSTORE POP POP POP JUMP JUMPDEST PUSH0 PUSH1 0x1F NOT PUSH1 0x1F DUP4 ADD AND SWAP1 POP SWAP2 SWAP1 POP JUMP JUMPDEST PUSH0 PUSH2 0x418 DUP3 PUSH2 0x3D6 JUMP JUMPDEST PUSH2 0x422 DUP2 DUP6 PUSH2 0x3E0 JUMP JUMPDEST SWAP4 POP PUSH2 0x432 DUP2 DUP6 PUSH1 0x20 DUP7 ADD PUSH2 0x3F0 JUMP JUMPDEST PUSH2 0x43B DUP2 PUSH2 0x3FE JUMP JUMPDEST DUP5 ADD SWAP2 POP POP SWAP3 SWAP2 POP POP JUMP JUMPDEST PUSH0 PUSH1 0x20 DUP3 ADD SWAP1 POP DUP2 DUP2 SUB PUSH0 DUP4 ADD MSTORE PUSH2 0x45E DUP2 DUP5 PUSH2 0x40E JUMP JUMPDEST SWAP1 POP SWAP3 SWAP2 POP POP JUMP JUMPDEST PUSH0 PUSH1 0x40 MLOAD SWAP1 POP SWAP1 JUMP JUMPDEST PUSH0 DUP1 REVERT JUMPDEST PUSH0 DUP1 REVERT JUMPDEST PUSH0 DUP1 REVERT JUMPDEST PUSH0 DUP1 REVERT JUMPDEST PUSH32 0x4E487B7100000000000000000000000000000000000000000000000000000000 PUSH0 MSTORE PUSH1 0x41 PUSH1 0x4 MSTORE PUSH1 0x24 PUSH0 REVERT JUMPDEST PUSH2 0x4B5 DUP3 PUSH2 0x3FE JUMP JUMPDEST DUP2 ADD DUP2 DUP2 LT PUSH8 0xFFFFFFFFFFFFFFFF DUP3 GT OR ISZERO PUSH2 0x4D4 JUMPI PUSH2 0x4D3 PUSH2 0x47F JUMP JUMPDEST JUMPDEST DUP1 PUSH1 0x40 MSTORE POP POP POP JUMP JUMPDEST PUSH0 PUSH2 0x4E6 PUSH2 0x466 JUMP JUMPDEST SWAP1 POP PUSH2 0x4F2 DUP3 DUP3 PUSH2 0x4AC JUMP JUMPDEST SWAP2 SWAP1 POP JUMP JUMPDEST PUSH0 PUSH8 0xFFFFFFFFFFFFFFFF DUP3 GT ISZERO PUSH2 0x511 JUMPI PUSH2 0x510 PUSH2 0x47F JUMP JUMPDEST JUMPDEST PUSH2 0x51A DUP3 PUSH2 0x3FE JUMP JUMPDEST SWAP1 POP PUSH1 0x20 DUP2 ADD SWAP1 POP SWAP2 SWAP1 POP JUMP JUMPDEST DUP3 DUP2 DUP4 CALLDATACOPY PUSH0 DUP4 DUP4 ADD MSTORE POP POP POP JUMP JUMPDEST PUSH0 PUSH2 0x547 PUSH2 0x542 DUP5 PUSH2 0x4F7 JUMP JUMPDEST PUSH2 0x4DD JUMP JUMPDEST SWAP1 POP DUP3 DUP2 MSTORE PUSH1 0x20 DUP2 ADD DUP5 DUP5 DUP5 ADD GT ISZERO PUSH2 0x563 JUMPI PUSH2 0x562 PUSH2 0x47B JUMP JUMPDEST JUMPDEST PUSH2 0x56E DUP5 DUP3 DUP6 PUSH2 0x527 JUMP JUMPDEST POP SWAP4 SWAP3 POP POP POP JUMP JUMPDEST PUSH0 DUP3 PUSH1 0x1F DUP4 ADD SLT PUSH2 0x58A JUMPI PUSH2 0x589 PUSH2 0x477 JUMP JUMPDEST JUMPDEST DUP2 CALLDATALOAD PUSH2 0x59A DUP5 DUP3 PUSH1 0x20 DUP7 ADD PUSH2 0x535 JUMP JUMPDEST SWAP2 POP POP SWAP3 SWAP2 POP POP JUMP JUMPDEST PUSH0 PUSH1 0x20 DUP3 DUP5 SUB SLT ISZERO PUSH2 0x5B8 JUMPI PUSH2 0x5B7 PUSH2 0x46F JUMP JUMPDEST JUMPDEST PUSH0 DUP3 ADD CALLDATALOAD PUSH8 0xFFFFFFFFFFFFFFFF DUP2 GT ISZERO PUSH2 0x5D5 JUMPI PUSH2 0x5D4 PUSH2 0x473 JUMP JUMPDEST JUMPDEST PUSH2 0x5E1 DUP5 DUP3 DUP6 ADD PUSH2 0x576 JUMP JUMPDEST SWAP2 POP POP SWAP3 SWAP2 POP POP JUMP JUMPDEST PUSH0 DUP2 MLOAD SWAP1 POP SWAP2 SWAP1 POP JUMP JUMPDEST PUSH0 DUP3 DUP3 MSTORE PUSH1 0x20 DUP3 ADD SWAP1 POP SWAP3 SWAP2 POP POP JUMP JUMPDEST PUSH0 PUSH2 0x60E DUP3 PUSH2 0x5EA JUMP JUMPDEST PUSH2 0x618 DUP2 DUP6 PUSH2 0x5F4 JUMP JUMPDEST SWAP4 POP PUSH2 0x628 DUP2 DUP6 PUSH1 0x20 DUP7 ADD PUSH2 0x3F0 JUMP JUMPDEST PUSH2 0x631 DUP2 PUSH2 0x3FE JUMP JUMPDEST DUP5 ADD SWAP2 POP POP SWAP3 SWAP2 POP POP JUMP JUMPDEST PUSH0 PUSH1 0x20 DUP3 ADD SWAP1 POP DUP2 DUP2 SUB PUSH0 DUP4 ADD MSTORE PUSH2 0x654 DUP2 DUP5 PUSH2 0x604 JUMP JUMPDEST SWAP1 POP SWAP3 SWAP2 POP POP JUMP JUMPDEST PUSH0 DUP2 SWAP1 POP SWAP2 SWAP1 POP JUMP JUMPDEST PUSH2 0x66E DUP2 PUSH2 0x65C JUMP JUMPDEST DUP3 MSTORE POP POP JUMP JUMPDEST PUSH0 PUSH20 0xFFFFFFFFFFFFFFFFFFFFFFFFFFFFFFFFFFFFFFFF DUP3 AND SWAP1 POP SWAP2 SWAP1 POP JUMP JUMPDEST PUSH0 PUSH2 0x69D DUP3 PUSH2 0x674 JUMP JUMPDEST SWAP1 POP SWAP2 SWAP1 POP JUMP JUMPDEST PUSH2 0x6AD DUP2 PUSH2 0x693 JUMP JUMPDEST DUP3 MSTORE POP POP JUMP JUMPDEST PUSH0 PUSH1 0x2 SWAP1 POP SWAP2 SWAP1 POP JUMP JUMPDEST PUSH0 DUP2 SWAP1 POP SWAP3 SWAP2 POP POP JUMP JUMPDEST PUSH0 DUP2 SWAP1 POP SWAP2 SWAP1 POP JUMP JUMPDEST PUSH2 0x6D9 DUP2 PUSH2 0x65C JUMP JUMPDEST DUP3 MSTORE POP POP JUMP JUMPDEST PUSH0 PUSH2 0x6EA DUP4 DUP4 PUSH2 0x6D0 JUMP JUMPDEST PUSH1 0x20 DUP4 ADD SWAP1 POP SWAP3 SWAP2 POP POP JUMP JUMPDEST PUSH0 PUSH1 0x20 DUP3 ADD SWAP1 POP SWAP2 SWAP1 POP JUMP JUMPDEST PUSH2 0x70B DUP2 PUSH2 0x6B3 JUMP JUMPDEST PUSH2 0x715 DUP2 DUP5 PUSH2 0x6BD JUMP JUMPDEST SWAP3 POP PUSH2 0x720 DUP3 PUSH2 0x6C7 JUMP JUMPDEST DUP1 PUSH0 JUMPDEST DUP4 DUP2 LT ISZERO PUSH2 0x750 JUMPI DUP2 MLOAD PUSH2 0x737 DUP8 DUP3 PUSH2 0x6DF JUMP JUMPDEST SWAP7 POP PUSH2 0x742 DUP4 PUSH2 0x6F6 JUMP JUMPDEST SWAP3 POP POP PUSH1 0x1 DUP2 ADD SWAP1 POP PUSH2 0x723 JUMP JUMPDEST POP POP POP POP POP POP JUMP JUMPDEST PUSH0 PUSH1 0xA0 DUP3 ADD SWAP1 POP PUSH2 0x76B PUSH0 DUP4 ADD DUP8 PUSH2 0x665 JUMP JUMPDEST PUSH2 0x778 PUSH1 0x20 DUP4 ADD DUP7 PUSH2 0x6A4 JUMP JUMPDEST DUP2 DUP2 SUB PUSH1 0x40 DUP4 ADD MSTORE PUSH2 0x78A DUP2 DUP6 PUSH2 0x604 JUMP JUMPDEST SWAP1 POP PUSH2 0x799 PUSH1 0x60 DUP4 ADD DUP5 PUSH2 0x702 JUMP JUMPDEST SWAP6 SWAP5 POP POP POP POP POP JUMP JUMPDEST PUSH0 DUP2 SWAP1 POP SWAP2 SWAP1 POP JUMP JUMPDEST PUSH2 0x7BC PUSH2 0x7B7 DUP3 PUSH2 0x65C JUMP JUMPDEST PUSH2 0x7A2 JUMP JUMPDEST DUP3 MSTORE POP POP JUMP JUMPDEST PUSH0 DUP2 PUSH1 0x60 SHL SWAP1 POP SWAP2 SWAP1 POP JUMP JUMPDEST PUSH0 PUSH2 0x7D8 DUP3 PUSH2 0x7C2 JUMP JUMPDEST SWAP1 POP SWAP2 SWAP1 POP JUMP JUMPDEST PUSH0 PUSH2 0x7E9 DUP3 PUSH2 0x7CE JUMP JUMPDEST SWAP1 POP SWAP2 SWAP1 POP JUMP JUMPDEST PUSH2 0x801 PUSH2 0x7FC DUP3 PUSH2 0x693 JUMP JUMPDEST PUSH2 0x7DF JUMP JUMPDEST DUP3 MSTORE POP POP JUMP JUMPDEST PUSH32 0x4E487B7100000000000000000000000000000000000000000000000000000000 PUSH0 MSTORE PUSH1 0x22 PUSH1 0x4 MSTORE PUSH1 0x24 PUSH0 REVERT JUMPDEST PUSH0 PUSH1 0x2 DUP3 DIV SWAP1 POP PUSH1 0x1 DUP3 AND DUP1 PUSH2 0x84B JUMPI PUSH1 0x7F DUP3 AND SWAP2 POP JUMPDEST PUSH1 0x20 DUP3 LT DUP2 SUB PUSH2 0x85E JUMPI PUSH2 0x85D PUSH2 0x807 JUMP JUMPDEST JUMPDEST POP SWAP2 SWAP1 POP JUMP JUMPDEST PUSH0 DUP2 SWAP1 POP SWAP3 SWAP2 POP POP JUMP JUMPDEST PUSH0 DUP2 SWAP1 POP DUP2 PUSH0 MSTORE PUSH1 0x20 PUSH0 KECCAK256 SWAP1 POP SWAP2 SWAP1 POP JUMP JUMPDEST PUSH0 DUP2 SLOAD PUSH2 0x88C DUP2 PUSH2 0x834 JUMP JUMPDEST PUSH2 0x896 DUP2 DUP7 PUSH2 0x864 JUMP JUMPDEST SWAP5 POP PUSH1 0x1 DUP3 AND PUSH0 DUP2 EQ PUSH2 0x8B0 JUMPI PUSH1 0x1 DUP2 EQ PUSH2 0x8C5 JUMPI PUSH2 0x8F7 JUMP JUMPDEST PUSH1 0xFF NOT DUP4 AND DUP7 MSTORE DUP2 ISZERO ISZERO DUP3 MUL DUP7 ADD SWAP4 POP PUSH2 0x8F7 JUMP JUMPDEST PUSH2 0x8CE DUP6 PUSH2 0x86E JUMP JUMPDEST PUSH0 JUMPDEST DUP4 DUP2 LT ISZERO PUSH2 0x8EF JUMPI DUP2 SLOAD DUP2 DUP10 ADD MSTORE PUSH1 0x1 DUP3 ADD SWAP2 POP PUSH1 0x20 DUP2 ADD SWAP1 POP PUSH2 0x8D0 JUMP JUMPDEST DUP4 DUP9 ADD SWAP6 POP POP POP JUMPDEST POP POP POP SWAP3 SWAP2 POP POP JUMP JUMPDEST PUSH0 PUSH1 0x2 SWAP1 POP SWAP2 SWAP1 POP JUMP JUMPDEST PUSH0 DUP2 SWAP1 POP SWAP3 SWAP2 POP POP JUMP JUMPDEST PUSH0 DUP2 SWAP1 POP SWAP2 SWAP1 POP JUMP JUMPDEST PUSH2 0x926 DUP2 PUSH2 0x65C JUMP JUMPDEST DUP3 MSTORE POP POP JUMP JUMPDEST PUSH0 PUSH2 0x937 DUP4 DUP4 PUSH2 0x91D JUMP JUMPDEST PUSH1 0x20 DUP4 ADD SWAP1 POP SWAP3 SWAP2 POP POP JUMP JUMPDEST PUSH0 DUP2 PUSH0 SHR SWAP1 POP SWAP2 SWAP1 POP JUMP JUMPDEST PUSH0 DUP2 SWAP1 POP SWAP2 SWAP1 POP JUMP JUMPDEST PUSH0 PUSH2 0x969 PUSH2 0x964 DUP4 PUSH2 0x943 JUMP JUMPDEST PUSH2 0x94E JUMP JUMPDEST SWAP1 POP SWAP2 SWAP1 POP JUMP JUMPDEST PUSH0 PUSH2 0x97B DUP3 SLOAD PUSH2 0x957 JUMP JUMPDEST SWAP1 POP SWAP2 SWAP1 POP JUMP JUMPDEST PUSH0 PUSH1 0x1 DUP3 ADD SWAP1 POP SWAP2 SWAP1 POP JUMP JUMPDEST PUSH2 0x997 DUP2 PUSH2 0x900 JUMP JUMPDEST PUSH2 0x9A1 DUP2 DUP5 PUSH2 0x90A JUMP JUMPDEST SWAP3 POP PUSH2 0x9AC DUP3 PUSH2 0x914 JUMP JUMPDEST DUP1 PUSH0 JUMPDEST DUP4 DUP2 LT ISZERO PUSH2 0x9E3 JUMPI PUSH2 0x9C0 DUP3 PUSH2 0x970 JUMP JUMPDEST PUSH2 0x9CA DUP8 DUP3 PUSH2 0x92C JUMP JUMPDEST SWAP7 POP PUSH2 0x9D5 DUP4 PUSH2 0x982 JUMP JUMPDEST SWAP3 POP POP PUSH1 0x1 DUP2 ADD SWAP1 POP PUSH2 0x9AF JUMP JUMPDEST POP POP POP POP POP POP JUMP JUMPDEST PUSH0 PUSH2 0x9F6 DUP3 DUP8 PUSH2 0x7AB JUMP JUMPDEST PUSH1 0x20 DUP3 ADD SWAP2 POP PUSH2 0xA06 DUP3 DUP7 PUSH2 0x7F0 JUMP JUMPDEST PUSH1 0x14 DUP3 ADD SWAP2 POP PUSH2 0xA16 DUP3 DUP6 PUSH2 0x880 JUMP JUMPDEST SWAP2 POP PUSH2 0xA22 DUP3 DUP5 PUSH2 0x98E JUMP JUMPDEST PUSH1 0x40 DUP3 ADD SWAP2 POP DUP2 SWAP1 POP SWAP6 SWAP5 POP POP POP POP POP JUMP JUMPDEST PUSH0 PUSH8 0xFFFFFFFFFFFFFFFF DUP3 GT ISZERO PUSH2 0xA4E JUMPI PUSH2 0xA4D PUSH2 0x47F JUMP JUMPDEST JUMPDEST PUSH2 0xA57 DUP3 PUSH2 0x3FE JUMP JUMPDEST SWAP1 POP PUSH1 0x20 DUP2 ADD SWAP1 POP SWAP2 SWAP1 POP JUMP JUMPDEST PUSH0 PUSH2 0xA76 PUSH2 0xA71 DUP5 PUSH2 0xA34 JUMP JUMPDEST PUSH2 0x4DD JUMP JUMPDEST SWAP1 POP DUP3 DUP2 MSTORE PUSH1 0x20 DUP2 ADD DUP5 DUP5 DUP5 ADD GT ISZERO PUSH2 0xA92 JUMPI PUSH2 0xA91 PUSH2 0x47B JUMP JUMPDEST JUMPDEST PUSH2 0xA9D DUP5 DUP3 DUP6 PUSH2 0x3F0 JUMP JUMPDEST POP SWAP4 SWAP3 POP POP POP JUMP JUMPDEST PUSH0 DUP3 PUSH1 0x1F DUP4 ADD SLT PUSH2 0xAB9 JUMPI PUSH2 0xAB8 PUSH2 0x477 JUMP JUMPDEST JUMPDEST DUP2 MLOAD PUSH2 0xAC9 DUP5 DUP3 PUSH1 0x20 DUP7 ADD PUSH2 0xA64 JUMP JUMPDEST SWAP2 POP POP SWAP3 SWAP2 POP POP JUMP JUMPDEST PUSH0 PUSH1 0x20 DUP3 DUP5 SUB SLT ISZERO PUSH2 0xAE7 JUMPI PUSH2 0xAE6 PUSH2 0x46F JUMP JUMPDEST JUMPDEST PUSH0 DUP3 ADD MLOAD PUSH8 0xFFFFFFFFFFFFFFFF DUP2 GT ISZERO PUSH2 0xB04 JUMPI PUSH2 0xB03 PUSH2 0x473 JUMP JUMPDEST JUMPDEST PUSH2 0xB10 DUP5 DUP3 DUP6 ADD PUSH2 0xAA5 JUMP JUMPDEST SWAP2 POP POP SWAP3 SWAP2 POP POP JUMP JUMPDEST PUSH0 DUP2 SLOAD PUSH2 0xB25 DUP2 PUSH2 0x834 JUMP JUMPDEST PUSH2 0xB2F DUP2 DUP7 PUSH2 0x5F4 JUMP JUMPDEST SWAP5 POP PUSH1 0x1 DUP3 AND PUSH0 DUP2 EQ PUSH2 0xB49 JUMPI PUSH1 0x1 DUP2 EQ PUSH2 0xB5F JUMPI PUSH2 0xB91 JUMP JUMPDEST PUSH1 0xFF NOT DUP4 AND DUP7 MSTORE DUP2 ISZERO ISZERO PUSH1 0x20 MUL DUP7 ADD SWAP4 POP PUSH2 0xB91 JUMP JUMPDEST PUSH2 0xB68 DUP6 PUSH2 0x86E JUMP JUMPDEST PUSH0 JUMPDEST DUP4 DUP2 LT ISZERO PUSH2 0xB89 JUMPI DUP2 SLOAD DUP2 DUP10 ADD MSTORE PUSH1 0x1 DUP3 ADD SWAP2 POP PUSH1 0x20 DUP2 ADD SWAP1 POP PUSH2 0xB6A JUMP JUMPDEST DUP1 DUP9 ADD SWAP6 POP POP POP JUMPDEST POP POP POP SWAP3 SWAP2 POP POP JUMP JUMPDEST PUSH2 0xBA3 DUP2 PUSH2 0x900 JUMP JUMPDEST PUSH2 0xBAD DUP2 DUP5 PUSH2 0x6BD JUMP JUMPDEST SWAP3 POP PUSH2 0xBB8 DUP3 PUSH2 0x914 JUMP JUMPDEST DUP1 PUSH0 JUMPDEST DUP4 DUP2 LT ISZERO PUSH2 0xBEF JUMPI PUSH2 0xBCC DUP3 PUSH2 0x970 JUMP JUMPDEST PUSH2 0xBD6 DUP8 DUP3 PUSH2 0x6DF JUMP JUMPDEST SWAP7 POP PUSH2 0xBE1 DUP4 PUSH2 0x982 JUMP JUMPDEST SWAP3 POP POP PUSH1 0x1 DUP2 ADD SWAP1 POP PUSH2 0xBBB JUMP JUMPDEST POP POP POP POP POP POP JUMP JUMPDEST PUSH0 PUSH1 0xA0 DUP3 ADD SWAP1 POP PUSH2 0xC0A PUSH0 DUP4 ADD DUP8 PUSH2 0x665 JUMP JUMPDEST PUSH2 0xC17 PUSH1 0x20 DUP4 ADD DUP7 PUSH2 0x6A4 JUMP JUMPDEST DUP2 DUP2 SUB PUSH1 0x40 DUP4 ADD MSTORE PUSH2 0xC29 DUP2 DUP6 PUSH2 0xB19 JUMP JUMPDEST SWAP1 POP PUSH2 0xC38 PUSH1 0x60 DUP4 ADD DUP5 PUSH2 0xB9A JUMP JUMPDEST SWAP6 SWAP5 POP POP POP POP POP JUMP JUMPDEST PUSH2 0xC4A DUP2 PUSH2 0x65C JUMP JUMPDEST DUP2 EQ PUSH2 0xC54 JUMPI PUSH0 DUP1 REVERT JUMPDEST POP JUMP JUMPDEST PUSH0 DUP2 MLOAD SWAP1 POP PUSH2 0xC65 DUP2 PUSH2 0xC41 JUMP JUMPDEST SWAP3 SWAP2 POP POP JUMP JUMPDEST PUSH0 PUSH2 0xC75 DUP3 PUSH2 0x674 JUMP JUMPDEST SWAP1 POP SWAP2 SWAP1 POP JUMP JUMPDEST PUSH2 0xC85 DUP2 PUSH2 0xC6B JUMP JUMPDEST DUP2 EQ PUSH2 0xC8F JUMPI PUSH0 DUP1 REVERT JUMPDEST POP JUMP JUMPDEST PUSH0 DUP2 MLOAD SWAP1 POP PUSH2 0xCA0 DUP2 PUSH2 0xC7C JUMP JUMPDEST SWAP3 SWAP2 POP POP JUMP JUMPDEST PUSH0 PUSH8 0xFFFFFFFFFFFFFFFF DUP3 GT ISZERO PUSH2 0xCC0 JUMPI PUSH2 0xCBF PUSH2 0x47F JUMP JUMPDEST JUMPDEST PUSH1 0x20 DUP3 MUL SWAP1 POP SWAP2 SWAP1 POP JUMP JUMPDEST PUSH0 DUP1 REVERT JUMPDEST PUSH0 PUSH2 0xCE1 PUSH2 0xCDC DUP5 PUSH2 0xCA6 JUMP JUMPDEST PUSH2 0x4DD JUMP JUMPDEST SWAP1 POP DUP1 PUSH1 0x20 DUP5 MUL DUP4 ADD DUP6 DUP2 GT ISZERO PUSH2 0xCFB JUMPI PUSH2 0xCFA PUSH2 0xCCB JUMP JUMPDEST JUMPDEST DUP4 JUMPDEST DUP2 DUP2 LT ISZERO PUSH2 0xD24 JUMPI DUP1 PUSH2 0xD10 DUP9 DUP3 PUSH2 0xC57 JUMP JUMPDEST DUP5 MSTORE PUSH1 0x20 DUP5 ADD SWAP4 POP POP PUSH1 0x20 DUP2 ADD SWAP1 POP PUSH2 0xCFD JUMP JUMPDEST POP POP POP SWAP4 SWAP3 POP POP POP JUMP JUMPDEST PUSH0 DUP3 PUSH1 0x1F DUP4 ADD SLT PUSH2 0xD42 JUMPI PUSH2 0xD41 PUSH2 0x477 JUMP JUMPDEST JUMPDEST PUSH1 0x2 PUSH2 0xD4F DUP5 DUP3 DUP6 PUSH2 0xCCF JUMP JUMPDEST SWAP2 POP POP SWAP3 SWAP2 POP POP JUMP JUMPDEST PUSH0 DUP1 PUSH0 DUP1 PUSH1 0xA0 DUP6 DUP8 SUB SLT ISZERO PUSH2 0xD70 JUMPI PUSH2 0xD6F PUSH2 0x46F JUMP JUMPDEST JUMPDEST PUSH0 PUSH2 0xD7D DUP8 DUP3 DUP9 ADD PUSH2 0xC57 JUMP JUMPDEST SWAP5 POP POP PUSH1 0x20 PUSH2 0xD8E DUP8 DUP3 DUP9 ADD PUSH2 0xC92 JUMP JUMPDEST SWAP4 POP POP PUSH1 0x40 DUP6 ADD MLOAD PUSH8 0xFFFFFFFFFFFFFFFF DUP2 GT ISZERO PUSH2 0xDAF JUMPI PUSH2 0xDAE PUSH2 0x473 JUMP JUMPDEST JUMPDEST PUSH2 0xDBB DUP8 DUP3 DUP9 ADD PUSH2 0xAA5 JUMP JUMPDEST SWAP3 POP POP PUSH1 0x60 PUSH2 0xDCC DUP8 DUP3 DUP9 ADD PUSH2 0xD2E JUMP JUMPDEST SWAP2 POP POP SWAP3 SWAP6 SWAP2 SWAP5 POP SWAP3 POP JUMP INVALID LOG2 PUSH5 0x6970667358 0x22 SLT KECCAK256 KECCAK256 JUMP 0xE0 SIGNEXTEND MSIZE SWAP16 0xD6 0xEC DUP8 EQ 0xC9 CALLVALUE PUSH0 0xD2 SWAP16 SSTORE DELEGATECALL SMOD KECCAK256 0xEF 0xAD 0xE SHL PUSH14 0xE5F0B90636336CF64736F6C6343 STOP ADDMOD NOT STOP CALLER "
				},
				"gasEstimates": {
					"creation": {
						"codeDepositCost": "719600",
						"executionCost": "infinite",
						"totalCost": "infinite"
					},
					"external": {
						"decode(bytes)": "infinite",
						"decode2(bytes)": "infinite",
						"encode()": "infinite",
						"encodePacked()": "infinite",
						"encodeWithSelector()": "infinite",
						"encodeWithSignature()": "infinite"
					}
				},
				"methodIdentifiers": {
					"decode(bytes)": "e5c5e9a3",
					"decode2(bytes)": "78ea1d69",
					"encode()": "bd14598f",
					"encodePacked()": "53d9c506",
					"encodeWithSelector()": "d1bd363d",
					"encodeWithSignature()": "e4f2a84a"
				}
			},
			"storageLayout": {
				"storage": [
					{
						"astId": 5,
						"contract": "27_abi/abiTest.sol:abiDemo",
						"label": "x",
						"offset": 0,
						"slot": "0",
						"type": "t_uint256"
					},
					{
						"astId": 8,
						"contract": "27_abi/abiTest.sol:abiDemo",
						"label": "addr",
						"offset": 0,
						"slot": "1",
						"type": "t_address"
					},
					{
						"astId": 11,
						"contract": "27_abi/abiTest.sol:abiDemo",
						"label": "name",
						"offset": 0,
						"slot": "2",
						"type": "t_string_storage"
					},
					{
						"astId": 18,
						"contract": "27_abi/abiTest.sol:abiDemo",
						"label": "array",
						"offset": 0,
						"slot": "3",
						"type": "t_array(t_uint256)2_storage"
					}
				],
				"types": {
					"t_address": {
						"encoding": "inplace",
						"label": "address",
						"numberOfBytes": "20"
					},
					"t_array(t_uint256)2_storage": {
						"base": "t_uint256",
						"encoding": "inplace",
						"label": "uint256[2]",
						"numberOfBytes": "64"
					},
					"t_string_storage": {
						"encoding": "bytes",
						"label": "string",
						"numberOfBytes": "32"
					},
					"t_uint256": {
						"encoding": "inplace",
						"label": "uint256",
						"numberOfBytes": "32"
					}
				}
			},
			"userdoc": {
				"kind": "user",
				"methods": {},
				"notice": "27 abi Application Binary Interface 编码 4个变量 abi.encode(***) * 每个参数 填充32bytes 拼接在一起 中间很多0 abi.encodePacked(***)   不与合约交互时，可以使用这个 节省空间；比如算hash;根据参数使用最低空间 abi.encodeWithSignature(\"foo(uint256)\",234)   前面4个字节放函数选择器 kecaak abi.encodeWithSelector(bytes4(keccak256(\"foo(uint256,address,string,uint256[2])\")), x, addr, name, array);   还是上一个方便  call调用只需要知道selector bytes4 + params  不需要知道函数名  解码 decode  貌似只能解码 abi.encode的结果",
				"version": 1
			}
		}
	}
}