{
	"data": {
		"bytecode": {
			"linkReferences": {},
			"object": "6080604052348015600e575f80fd5b506102538061001c5f395ff3fe608060405260043610610021575f3560e01c8063e3e7c665146100945761005d565b3661005d577f831bd0d1633f2e0b77e89c96bc2870feae77118a0b16adeb3e1ba2d66ec154ce6040516100539061012f565b60405180910390a1005b7f831bd0d1633f2e0b77e89c96bc2870feae77118a0b16adeb3e1ba2d66ec154ce60405161008a90610197565b60405180910390a1005b61009c61009e565b005b7f831bd0d1633f2e0b77e89c96bc2870feae77118a0b16adeb3e1ba2d66ec154ce6040516100cb906101ff565b60405180910390a1565b5f82825260208201905092915050565b7f72656365697665000000000000000000000000000000000000000000000000005f82015250565b5f6101196007836100d5565b9150610124826100e5565b602082019050919050565b5f6020820190508181035f8301526101468161010d565b9050919050565b7f66616c6c6261636b0000000000000000000000000000000000000000000000005f82015250565b5f6101816008836100d5565b915061018c8261014d565b602082019050919050565b5f6020820190508181035f8301526101ae81610175565b9050919050565b7f6d616b654d6f6e657900000000000000000000000000000000000000000000005f82015250565b5f6101e96009836100d5565b91506101f4826101b5565b602082019050919050565b5f6020820190508181035f830152610216816101dd565b905091905056fea26469706673582212202ff26f9962dad97bffe6cc3f4d1423ec82580877cbf8e22d55669f1db8c78cf964736f6c63430008190033",
			"opcodes": "PUSH1 0x80 PUSH1 0x40 MSTORE CALLVALUE DUP1 ISZERO PUSH1 0xE JUMPI PUSH0 DUP1 REVERT JUMPDEST POP PUSH2 0x253 DUP1 PUSH2 0x1C PUSH0 CODECOPY PUSH0 RETURN INVALID PUSH1 0x80 PUSH1 0x40 MSTORE PUSH1 0x4 CALLDATASIZE LT PUSH2 0x21 JUMPI PUSH0 CALLDATALOAD PUSH1 0xE0 SHR DUP1 PUSH4 0xE3E7C665 EQ PUSH2 0x94 JUMPI PUSH2 0x5D JUMP JUMPDEST CALLDATASIZE PUSH2 0x5D JUMPI PUSH32 0x831BD0D1633F2E0B77E89C96BC2870FEAE77118A0B16ADEB3E1BA2D66EC154CE PUSH1 0x40 MLOAD PUSH2 0x53 SWAP1 PUSH2 0x12F JUMP JUMPDEST PUSH1 0x40 MLOAD DUP1 SWAP2 SUB SWAP1 LOG1 STOP JUMPDEST PUSH32 0x831BD0D1633F2E0B77E89C96BC2870FEAE77118A0B16ADEB3E1BA2D66EC154CE PUSH1 0x40 MLOAD PUSH2 0x8A SWAP1 PUSH2 0x197 JUMP JUMPDEST PUSH1 0x40 MLOAD DUP1 SWAP2 SUB SWAP1 LOG1 STOP JUMPDEST PUSH2 0x9C PUSH2 0x9E JUMP JUMPDEST STOP JUMPDEST PUSH32 0x831BD0D1633F2E0B77E89C96BC2870FEAE77118A0B16ADEB3E1BA2D66EC154CE PUSH1 0x40 MLOAD PUSH2 0xCB SWAP1 PUSH2 0x1FF JUMP JUMPDEST PUSH1 0x40 MLOAD DUP1 SWAP2 SUB SWAP1 LOG1 JUMP JUMPDEST PUSH0 DUP3 DUP3 MSTORE PUSH1 0x20 DUP3 ADD SWAP1 POP SWAP3 SWAP2 POP POP JUMP JUMPDEST PUSH32 0x7265636569766500000000000000000000000000000000000000000000000000 PUSH0 DUP3 ADD MSTORE POP JUMP JUMPDEST PUSH0 PUSH2 0x119 PUSH1 0x7 DUP4 PUSH2 0xD5 JUMP JUMPDEST SWAP2 POP PUSH2 0x124 DUP3 PUSH2 0xE5 JUMP JUMPDEST PUSH1 0x20 DUP3 ADD SWAP1 POP SWAP2 SWAP1 POP JUMP JUMPDEST PUSH0 PUSH1 0x20 DUP3 ADD SWAP1 POP DUP2 DUP2 SUB PUSH0 DUP4 ADD MSTORE PUSH2 0x146 DUP2 PUSH2 0x10D JUMP JUMPDEST SWAP1 POP SWAP2 SWAP1 POP JUMP JUMPDEST PUSH32 0x66616C6C6261636B000000000000000000000000000000000000000000000000 PUSH0 DUP3 ADD MSTORE POP JUMP JUMPDEST PUSH0 PUSH2 0x181 PUSH1 0x8 DUP4 PUSH2 0xD5 JUMP JUMPDEST SWAP2 POP PUSH2 0x18C DUP3 PUSH2 0x14D JUMP JUMPDEST PUSH1 0x20 DUP3 ADD SWAP1 POP SWAP2 SWAP1 POP JUMP JUMPDEST PUSH0 PUSH1 0x20 DUP3 ADD SWAP1 POP DUP2 DUP2 SUB PUSH0 DUP4 ADD MSTORE PUSH2 0x1AE DUP2 PUSH2 0x175 JUMP JUMPDEST SWAP1 POP SWAP2 SWAP1 POP JUMP JUMPDEST PUSH32 0x6D616B654D6F6E65790000000000000000000000000000000000000000000000 PUSH0 DUP3 ADD MSTORE POP JUMP JUMPDEST PUSH0 PUSH2 0x1E9 PUSH1 0x9 DUP4 PUSH2 0xD5 JUMP JUMPDEST SWAP2 POP PUSH2 0x1F4 DUP3 PUSH2 0x1B5 JUMP JUMPDEST PUSH1 0x20 DUP3 ADD SWAP1 POP SWAP2 SWAP1 POP JUMP JUMPDEST PUSH0 PUSH1 0x20 DUP3 ADD SWAP1 POP DUP2 DUP2 SUB PUSH0 DUP4 ADD MSTORE PUSH2 0x216 DUP2 PUSH2 0x1DD JUMP JUMPDEST SWAP1 POP SWAP2 SWAP1 POP JUMP INVALID LOG2 PUSH5 0x6970667358 0x22 SLT KECCAK256 0x2F CALLCODE PUSH16 0x9962DAD97BFFE6CC3F4D1423EC825808 PUSH24 0xCBF8E22D55669F1DB8C78CF964736F6C6343000819003300 "
		},
		"gasEstimates": {
			"creation": {
				"codeDepositCost": "119000",
				"executionCost": "163",
				"totalCost": "119163"
			},
			"external": {
				"": "1881",
				"makeMoney()": "1894"
			}
		},
		"methodIdentifiers": {
			"makeMoney()": "e3e7c665"
		}
	},
	"abi": [
		{
			"anonymous": false,
			"inputs": [
				{
					"indexed": false,
					"internalType": "string",
					"name": "msg",
					"type": "string"
				}
			],
			"name": "e1",
			"type": "event"
		},
		{
			"stateMutability": "payable",
			"type": "fallback"
		},
		{
			"inputs": [],
			"name": "makeMoney",
			"outputs": [],
			"stateMutability": "payable",
			"type": "function"
		},
		{
			"stateMutability": "payable",
			"type": "receive"
		}
	]
}