{
	"28_hash/hashDemo.sol": {
		"selectorTest": {
			"abi": [
				{
					"inputs": [
						{
							"internalType": "bytes4",
							"name": "sel",
							"type": "bytes4"
						},
						{
							"internalType": "address",
							"name": "aa",
							"type": "address"
						},
						{
							"internalType": "uint256",
							"name": "bb",
							"type": "uint256"
						},
						{
							"internalType": "string",
							"name": "cc",
							"type": "string"
						}
					],
					"name": "callWithSignature",
					"outputs": [
						{
							"internalType": "bool",
							"name": "",
							"type": "bool"
						},
						{
							"internalType": "bytes",
							"name": "",
							"type": "bytes"
						}
					],
					"stateMutability": "nonpayable",
					"type": "function"
				},
				{
					"inputs": [
						{
							"internalType": "bytes",
							"name": "data",
							"type": "bytes"
						}
					],
					"name": "decode",
					"outputs": [
						{
							"internalType": "string",
							"name": "ss",
							"type": "string"
						}
					],
					"stateMutability": "pure",
					"type": "function"
				},
				{
					"inputs": [
						{
							"internalType": "address",
							"name": "aa",
							"type": "address"
						},
						{
							"internalType": "uint256",
							"name": "bb",
							"type": "uint256"
						},
						{
							"internalType": "string",
							"name": "cc",
							"type": "string"
						}
					],
					"name": "test",
					"outputs": [
						{
							"internalType": "string",
							"name": "",
							"type": "string"
						}
					],
					"stateMutability": "nonpayable",
					"type": "function"
				},
				{
					"inputs": [],
					"name": "testSelector",
					"outputs": [
						{
							"internalType": "bytes4",
							"name": "mSelector",
							"type": "bytes4"
						}
					],
					"stateMutability": "pure",
					"type": "function"
				}
			],
			"devdoc": {
				"kind": "dev",
				"methods": {},
				"version": 1
			},
			"evm": {
				"assembly": "    /* \"28_hash/hashDemo.sol\":215:908  contract selectorTest {... */\n  mstore(0x40, 0x80)\n  callvalue\n  dup1\n  iszero\n  tag_1\n  jumpi\n  0x00\n  dup1\n  revert\ntag_1:\n  pop\n  dataSize(sub_0)\n  dup1\n  dataOffset(sub_0)\n  0x00\n  codecopy\n  0x00\n  return\nstop\n\nsub_0: assembly {\n        /* \"28_hash/hashDemo.sol\":215:908  contract selectorTest {... */\n      mstore(0x40, 0x80)\n      callvalue\n      dup1\n      iszero\n      tag_1\n      jumpi\n      0x00\n      dup1\n      revert\n    tag_1:\n      pop\n      jumpi(tag_2, lt(calldatasize, 0x04))\n      shr(0xe0, calldataload(0x00))\n      dup1\n      0x49c23ef4\n      eq\n      tag_3\n      jumpi\n      dup1\n      0x6acdda36\n      eq\n      tag_4\n      jumpi\n      dup1\n      0xe5c5e9a3\n      eq\n      tag_5\n      jumpi\n      dup1\n      0xe9d740fb\n      eq\n      tag_6\n      jumpi\n    tag_2:\n      0x00\n      dup1\n      revert\n        /* \"28_hash/hashDemo.sol\":515:777  function callWithSignature(bytes4 sel, address aa, uint256 bb, string calldata cc) external returns (bool, bytes memory) {... */\n    tag_3:\n      tag_7\n      0x04\n      dup1\n      calldatasize\n      sub\n      dup2\n      add\n      swap1\n      tag_8\n      swap2\n      swap1\n      tag_9\n      jump\t// in\n    tag_8:\n      tag_10\n      jump\t// in\n    tag_7:\n      mload(0x40)\n      tag_11\n      swap3\n      swap2\n      swap1\n      tag_12\n      jump\t// in\n    tag_11:\n      mload(0x40)\n      dup1\n      swap2\n      sub\n      swap1\n      return\n        /* \"28_hash/hashDemo.sol\":372:509  function testSelector() external pure returns(bytes4 mSelector) {... */\n    tag_4:\n      tag_13\n      tag_14\n      jump\t// in\n    tag_13:\n      mload(0x40)\n      tag_15\n      swap2\n      swap1\n      tag_16\n      jump\t// in\n    tag_15:\n      mload(0x40)\n      dup1\n      swap2\n      sub\n      swap1\n      return\n        /* \"28_hash/hashDemo.sol\":783:906  function decode(bytes memory data) public pure returns(string memory ss) {... */\n    tag_5:\n      tag_17\n      0x04\n      dup1\n      calldatasize\n      sub\n      dup2\n      add\n      swap1\n      tag_18\n      swap2\n      swap1\n      tag_19\n      jump\t// in\n    tag_18:\n      tag_20\n      jump\t// in\n    tag_17:\n      mload(0x40)\n      tag_21\n      swap2\n      swap1\n      tag_22\n      jump\t// in\n    tag_21:\n      mload(0x40)\n      dup1\n      swap2\n      sub\n      swap1\n      return\n        /* \"28_hash/hashDemo.sol\":244:366  function test(address aa, uint256 bb, string calldata cc) external returns(string memory) {... */\n    tag_6:\n      tag_23\n      0x04\n      dup1\n      calldatasize\n      sub\n      dup2\n      add\n      swap1\n      tag_24\n      swap2\n      swap1\n      tag_25\n      jump\t// in\n    tag_24:\n      tag_26\n      jump\t// in\n    tag_23:\n      mload(0x40)\n      tag_27\n      swap2\n      swap1\n      tag_22\n      jump\t// in\n    tag_27:\n      mload(0x40)\n      dup1\n      swap2\n      sub\n      swap1\n      return\n        /* \"28_hash/hashDemo.sol\":515:777  function callWithSignature(bytes4 sel, address aa, uint256 bb, string calldata cc) external returns (bool, bytes memory) {... */\n    tag_10:\n        /* \"28_hash/hashDemo.sol\":616:620  bool */\n      0x00\n        /* \"28_hash/hashDemo.sol\":622:634  bytes memory */\n      0x60\n        /* \"28_hash/hashDemo.sol\":647:659  bool success */\n      0x00\n        /* \"28_hash/hashDemo.sol\":661:678  bytes memory data */\n      dup1\n        /* \"28_hash/hashDemo.sol\":690:694  this */\n      address\n        /* \"28_hash/hashDemo.sol\":682:700  address(this).call */\n      0xffffffffffffffffffffffffffffffffffffffff\n      and\n        /* \"28_hash/hashDemo.sol\":724:727  sel */\n      dup10\n        /* \"28_hash/hashDemo.sol\":728:730  aa */\n      dup10\n        /* \"28_hash/hashDemo.sol\":731:733  bb */\n      dup10\n        /* \"28_hash/hashDemo.sol\":734:736  cc */\n      dup10\n      dup10\n        /* \"28_hash/hashDemo.sol\":701:737  abi.encodeWithSelector(sel,aa,bb,cc) */\n      add(0x24, mload(0x40))\n      tag_29\n      swap5\n      swap4\n      swap3\n      swap2\n      swap1\n      tag_30\n      jump\t// in\n    tag_29:\n      mload(0x40)\n      0x20\n      dup2\n      dup4\n      sub\n      sub\n      dup2\n      mstore\n      swap1\n      0x40\n      mstore\n      swap1\n      not(0xffffffffffffffffffffffffffffffffffffffffffffffffffffffff)\n      and\n      0x20\n      dup3\n      add\n      dup1\n      mload\n      0xffffffffffffffffffffffffffffffffffffffffffffffffffffffff\n      dup4\n      dup2\n      dup4\n      and\n      or\n      dup4\n      mstore\n      pop\n      pop\n      pop\n      pop\n        /* \"28_hash/hashDemo.sol\":682:738  address(this).call(abi.encodeWithSelector(sel,aa,bb,cc)) */\n      mload(0x40)\n      tag_31\n      swap2\n      swap1\n      tag_32\n      jump\t// in\n    tag_31:\n      0x00\n      mload(0x40)\n      dup1\n      dup4\n      sub\n      dup2\n      0x00\n      dup7\n      gas\n      call\n      swap2\n      pop\n      pop\n      returndatasize\n      dup1\n      0x00\n      dup2\n      eq\n      tag_35\n      jumpi\n      mload(0x40)\n      swap2\n      pop\n      and(add(returndatasize, 0x3f), not(0x1f))\n      dup3\n      add\n      0x40\n      mstore\n      returndatasize\n      dup3\n      mstore\n      returndatasize\n      0x00\n      0x20\n      dup5\n      add\n      returndatacopy\n      jump(tag_34)\n    tag_35:\n      0x60\n      swap2\n      pop\n    tag_34:\n      pop\n        /* \"28_hash/hashDemo.sol\":646:738  (bool success, bytes memory data) = address(this).call(abi.encodeWithSelector(sel,aa,bb,cc)) */\n      swap2\n      pop\n      swap2\n      pop\n        /* \"28_hash/hashDemo.sol\":756:763  success */\n      dup2\n        /* \"28_hash/hashDemo.sol\":765:769  data */\n      dup2\n        /* \"28_hash/hashDemo.sol\":748:770  return (success, data) */\n      swap4\n      pop\n      swap4\n      pop\n      pop\n      pop\n        /* \"28_hash/hashDemo.sol\":515:777  function callWithSignature(bytes4 sel, address aa, uint256 bb, string calldata cc) external returns (bool, bytes memory) {... */\n      swap6\n      pop\n      swap6\n      swap4\n      pop\n      pop\n      pop\n      pop\n      jump\t// out\n        /* \"28_hash/hashDemo.sol\":372:509  function testSelector() external pure returns(bytes4 mSelector) {... */\n    tag_14:\n        /* \"28_hash/hashDemo.sol\":418:434  bytes4 mSelector */\n      0x00\n        /* \"28_hash/hashDemo.sol\":460:501  keccak256(\"test(address,uint256,string)\") */\n      0xe9d740fb1d625751d852e2ad3bfa395bcd9c092fc2b1cd1df9eef9a9d389f104\n        /* \"28_hash/hashDemo.sol\":446:502  return bytes4(keccak256(\"test(address,uint256,string)\")) */\n      swap1\n      pop\n        /* \"28_hash/hashDemo.sol\":372:509  function testSelector() external pure returns(bytes4 mSelector) {... */\n      swap1\n      jump\t// out\n        /* \"28_hash/hashDemo.sol\":783:906  function decode(bytes memory data) public pure returns(string memory ss) {... */\n    tag_20:\n        /* \"28_hash/hashDemo.sol\":838:854  string memory ss */\n      0x60\n        /* \"28_hash/hashDemo.sol\":884:888  data */\n      dup2\n        /* \"28_hash/hashDemo.sol\":873:899  abi.decode(data, (string)) */\n      dup1\n      0x20\n      add\n      swap1\n      mload\n      dup2\n      add\n      swap1\n      tag_38\n      swap2\n      swap1\n      tag_39\n      jump\t// in\n    tag_38:\n        /* \"28_hash/hashDemo.sol\":866:899  (ss) = abi.decode(data, (string)) */\n      swap1\n      pop\n        /* \"28_hash/hashDemo.sol\":783:906  function decode(bytes memory data) public pure returns(string memory ss) {... */\n      swap2\n      swap1\n      pop\n      jump\t// out\n        /* \"28_hash/hashDemo.sol\":244:366  function test(address aa, uint256 bb, string calldata cc) external returns(string memory) {... */\n    tag_26:\n        /* \"28_hash/hashDemo.sol\":319:332  string memory */\n      0x60\n        /* \"28_hash/hashDemo.sol\":344:359  return \"123445\" */\n      mload(0x40)\n      dup1\n      0x40\n      add\n      0x40\n      mstore\n      dup1\n      0x06\n      dup2\n      mstore\n      0x20\n      add\n      0x3132333434350000000000000000000000000000000000000000000000000000\n      dup2\n      mstore\n      pop\n      swap1\n      pop\n        /* \"28_hash/hashDemo.sol\":244:366  function test(address aa, uint256 bb, string calldata cc) external returns(string memory) {... */\n      swap5\n      swap4\n      pop\n      pop\n      pop\n      pop\n      jump\t// out\n        /* \"#utility.yul\":7:82   */\n    tag_41:\n        /* \"#utility.yul\":40:46   */\n      0x00\n        /* \"#utility.yul\":73:75   */\n      0x40\n        /* \"#utility.yul\":67:76   */\n      mload\n        /* \"#utility.yul\":57:76   */\n      swap1\n      pop\n        /* \"#utility.yul\":7:82   */\n      swap1\n      jump\t// out\n        /* \"#utility.yul\":88:205   */\n    tag_42:\n        /* \"#utility.yul\":197:198   */\n      0x00\n        /* \"#utility.yul\":194:195   */\n      dup1\n        /* \"#utility.yul\":187:199   */\n      revert\n        /* \"#utility.yul\":211:328   */\n    tag_43:\n        /* \"#utility.yul\":320:321   */\n      0x00\n        /* \"#utility.yul\":317:318   */\n      dup1\n        /* \"#utility.yul\":310:322   */\n      revert\n        /* \"#utility.yul\":334:483   */\n    tag_44:\n        /* \"#utility.yul\":370:377   */\n      0x00\n        /* \"#utility.yul\":410:476   */\n      0xffffffff00000000000000000000000000000000000000000000000000000000\n        /* \"#utility.yul\":403:408   */\n      dup3\n        /* \"#utility.yul\":399:477   */\n      and\n        /* \"#utility.yul\":388:477   */\n      swap1\n      pop\n        /* \"#utility.yul\":334:483   */\n      swap2\n      swap1\n      pop\n      jump\t// out\n        /* \"#utility.yul\":489:609   */\n    tag_45:\n        /* \"#utility.yul\":561:584   */\n      tag_91\n        /* \"#utility.yul\":578:583   */\n      dup2\n        /* \"#utility.yul\":561:584   */\n      tag_44\n      jump\t// in\n    tag_91:\n        /* \"#utility.yul\":554:559   */\n      dup2\n        /* \"#utility.yul\":551:585   */\n      eq\n        /* \"#utility.yul\":541:603   */\n      tag_92\n      jumpi\n        /* \"#utility.yul\":599:600   */\n      0x00\n        /* \"#utility.yul\":596:597   */\n      dup1\n        /* \"#utility.yul\":589:601   */\n      revert\n        /* \"#utility.yul\":541:603   */\n    tag_92:\n        /* \"#utility.yul\":489:609   */\n      pop\n      jump\t// out\n        /* \"#utility.yul\":615:752   */\n    tag_46:\n        /* \"#utility.yul\":660:665   */\n      0x00\n        /* \"#utility.yul\":698:704   */\n      dup2\n        /* \"#utility.yul\":685:705   */\n      calldataload\n        /* \"#utility.yul\":676:705   */\n      swap1\n      pop\n        /* \"#utility.yul\":714:746   */\n      tag_94\n        /* \"#utility.yul\":740:745   */\n      dup2\n        /* \"#utility.yul\":714:746   */\n      tag_45\n      jump\t// in\n    tag_94:\n        /* \"#utility.yul\":615:752   */\n      swap3\n      swap2\n      pop\n      pop\n      jump\t// out\n        /* \"#utility.yul\":758:884   */\n    tag_47:\n        /* \"#utility.yul\":795:802   */\n      0x00\n        /* \"#utility.yul\":835:877   */\n      0xffffffffffffffffffffffffffffffffffffffff\n        /* \"#utility.yul\":828:833   */\n      dup3\n        /* \"#utility.yul\":824:878   */\n      and\n        /* \"#utility.yul\":813:878   */\n      swap1\n      pop\n        /* \"#utility.yul\":758:884   */\n      swap2\n      swap1\n      pop\n      jump\t// out\n        /* \"#utility.yul\":890:986   */\n    tag_48:\n        /* \"#utility.yul\":927:934   */\n      0x00\n        /* \"#utility.yul\":956:980   */\n      tag_97\n        /* \"#utility.yul\":974:979   */\n      dup3\n        /* \"#utility.yul\":956:980   */\n      tag_47\n      jump\t// in\n    tag_97:\n        /* \"#utility.yul\":945:980   */\n      swap1\n      pop\n        /* \"#utility.yul\":890:986   */\n      swap2\n      swap1\n      pop\n      jump\t// out\n        /* \"#utility.yul\":992:1114   */\n    tag_49:\n        /* \"#utility.yul\":1065:1089   */\n      tag_99\n        /* \"#utility.yul\":1083:1088   */\n      dup2\n        /* \"#utility.yul\":1065:1089   */\n      tag_48\n      jump\t// in\n    tag_99:\n        /* \"#utility.yul\":1058:1063   */\n      dup2\n        /* \"#utility.yul\":1055:1090   */\n      eq\n        /* \"#utility.yul\":1045:1108   */\n      tag_100\n      jumpi\n        /* \"#utility.yul\":1104:1105   */\n      0x00\n        /* \"#utility.yul\":1101:1102   */\n      dup1\n        /* \"#utility.yul\":1094:1106   */\n      revert\n        /* \"#utility.yul\":1045:1108   */\n    tag_100:\n        /* \"#utility.yul\":992:1114   */\n      pop\n      jump\t// out\n        /* \"#utility.yul\":1120:1259   */\n    tag_50:\n        /* \"#utility.yul\":1166:1171   */\n      0x00\n        /* \"#utility.yul\":1204:1210   */\n      dup2\n        /* \"#utility.yul\":1191:1211   */\n      calldataload\n        /* \"#utility.yul\":1182:1211   */\n      swap1\n      pop\n        /* \"#utility.yul\":1220:1253   */\n      tag_102\n        /* \"#utility.yul\":1247:1252   */\n      dup2\n        /* \"#utility.yul\":1220:1253   */\n      tag_49\n      jump\t// in\n    tag_102:\n        /* \"#utility.yul\":1120:1259   */\n      swap3\n      swap2\n      pop\n      pop\n      jump\t// out\n        /* \"#utility.yul\":1265:1342   */\n    tag_51:\n        /* \"#utility.yul\":1302:1309   */\n      0x00\n        /* \"#utility.yul\":1331:1336   */\n      dup2\n        /* \"#utility.yul\":1320:1336   */\n      swap1\n      pop\n        /* \"#utility.yul\":1265:1342   */\n      swap2\n      swap1\n      pop\n      jump\t// out\n        /* \"#utility.yul\":1348:1470   */\n    tag_52:\n        /* \"#utility.yul\":1421:1445   */\n      tag_105\n        /* \"#utility.yul\":1439:1444   */\n      dup2\n        /* \"#utility.yul\":1421:1445   */\n      tag_51\n      jump\t// in\n    tag_105:\n        /* \"#utility.yul\":1414:1419   */\n      dup2\n        /* \"#utility.yul\":1411:1446   */\n      eq\n        /* \"#utility.yul\":1401:1464   */\n      tag_106\n      jumpi\n        /* \"#utility.yul\":1460:1461   */\n      0x00\n        /* \"#utility.yul\":1457:1458   */\n      dup1\n        /* \"#utility.yul\":1450:1462   */\n      revert\n        /* \"#utility.yul\":1401:1464   */\n    tag_106:\n        /* \"#utility.yul\":1348:1470   */\n      pop\n      jump\t// out\n        /* \"#utility.yul\":1476:1615   */\n    tag_53:\n        /* \"#utility.yul\":1522:1527   */\n      0x00\n        /* \"#utility.yul\":1560:1566   */\n      dup2\n        /* \"#utility.yul\":1547:1567   */\n      calldataload\n        /* \"#utility.yul\":1538:1567   */\n      swap1\n      pop\n        /* \"#utility.yul\":1576:1609   */\n      tag_108\n        /* \"#utility.yul\":1603:1608   */\n      dup2\n        /* \"#utility.yul\":1576:1609   */\n      tag_52\n      jump\t// in\n    tag_108:\n        /* \"#utility.yul\":1476:1615   */\n      swap3\n      swap2\n      pop\n      pop\n      jump\t// out\n        /* \"#utility.yul\":1621:1738   */\n    tag_54:\n        /* \"#utility.yul\":1730:1731   */\n      0x00\n        /* \"#utility.yul\":1727:1728   */\n      dup1\n        /* \"#utility.yul\":1720:1732   */\n      revert\n        /* \"#utility.yul\":1744:1861   */\n    tag_55:\n        /* \"#utility.yul\":1853:1854   */\n      0x00\n        /* \"#utility.yul\":1850:1851   */\n      dup1\n        /* \"#utility.yul\":1843:1855   */\n      revert\n        /* \"#utility.yul\":1867:1984   */\n    tag_56:\n        /* \"#utility.yul\":1976:1977   */\n      0x00\n        /* \"#utility.yul\":1973:1974   */\n      dup1\n        /* \"#utility.yul\":1966:1978   */\n      revert\n        /* \"#utility.yul\":2004:2557   */\n    tag_57:\n        /* \"#utility.yul\":2062:2070   */\n      0x00\n        /* \"#utility.yul\":2072:2078   */\n      dup1\n        /* \"#utility.yul\":2122:2125   */\n      dup4\n        /* \"#utility.yul\":2115:2119   */\n      0x1f\n        /* \"#utility.yul\":2107:2113   */\n      dup5\n        /* \"#utility.yul\":2103:2120   */\n      add\n        /* \"#utility.yul\":2099:2126   */\n      slt\n        /* \"#utility.yul\":2089:2211   */\n      tag_113\n      jumpi\n        /* \"#utility.yul\":2130:2209   */\n      tag_114\n      tag_54\n      jump\t// in\n    tag_114:\n        /* \"#utility.yul\":2089:2211   */\n    tag_113:\n        /* \"#utility.yul\":2243:2249   */\n      dup3\n        /* \"#utility.yul\":2230:2250   */\n      calldataload\n        /* \"#utility.yul\":2220:2250   */\n      swap1\n      pop\n        /* \"#utility.yul\":2273:2291   */\n      0xffffffffffffffff\n        /* \"#utility.yul\":2265:2271   */\n      dup2\n        /* \"#utility.yul\":2262:2292   */\n      gt\n        /* \"#utility.yul\":2259:2376   */\n      iszero\n      tag_115\n      jumpi\n        /* \"#utility.yul\":2295:2374   */\n      tag_116\n      tag_55\n      jump\t// in\n    tag_116:\n        /* \"#utility.yul\":2259:2376   */\n    tag_115:\n        /* \"#utility.yul\":2409:2413   */\n      0x20\n        /* \"#utility.yul\":2401:2407   */\n      dup4\n        /* \"#utility.yul\":2397:2414   */\n      add\n        /* \"#utility.yul\":2385:2414   */\n      swap2\n      pop\n        /* \"#utility.yul\":2463:2466   */\n      dup4\n        /* \"#utility.yul\":2455:2459   */\n      0x01\n        /* \"#utility.yul\":2447:2453   */\n      dup3\n        /* \"#utility.yul\":2443:2460   */\n      mul\n        /* \"#utility.yul\":2433:2441   */\n      dup4\n        /* \"#utility.yul\":2429:2461   */\n      add\n        /* \"#utility.yul\":2426:2467   */\n      gt\n        /* \"#utility.yul\":2423:2551   */\n      iszero\n      tag_117\n      jumpi\n        /* \"#utility.yul\":2470:2549   */\n      tag_118\n      tag_56\n      jump\t// in\n    tag_118:\n        /* \"#utility.yul\":2423:2551   */\n    tag_117:\n        /* \"#utility.yul\":2004:2557   */\n      swap3\n      pop\n      swap3\n      swap1\n      pop\n      jump\t// out\n        /* \"#utility.yul\":2563:3526   */\n    tag_9:\n        /* \"#utility.yul\":2660:2666   */\n      0x00\n        /* \"#utility.yul\":2668:2674   */\n      dup1\n        /* \"#utility.yul\":2676:2682   */\n      0x00\n        /* \"#utility.yul\":2684:2690   */\n      dup1\n        /* \"#utility.yul\":2692:2698   */\n      0x00\n        /* \"#utility.yul\":2741:2744   */\n      0x80\n        /* \"#utility.yul\":2729:2738   */\n      dup7\n        /* \"#utility.yul\":2720:2727   */\n      dup9\n        /* \"#utility.yul\":2716:2739   */\n      sub\n        /* \"#utility.yul\":2712:2745   */\n      slt\n        /* \"#utility.yul\":2709:2829   */\n      iszero\n      tag_120\n      jumpi\n        /* \"#utility.yul\":2748:2827   */\n      tag_121\n      tag_42\n      jump\t// in\n    tag_121:\n        /* \"#utility.yul\":2709:2829   */\n    tag_120:\n        /* \"#utility.yul\":2868:2869   */\n      0x00\n        /* \"#utility.yul\":2893:2945   */\n      tag_122\n        /* \"#utility.yul\":2937:2944   */\n      dup9\n        /* \"#utility.yul\":2928:2934   */\n      dup3\n        /* \"#utility.yul\":2917:2926   */\n      dup10\n        /* \"#utility.yul\":2913:2935   */\n      add\n        /* \"#utility.yul\":2893:2945   */\n      tag_46\n      jump\t// in\n    tag_122:\n        /* \"#utility.yul\":2883:2945   */\n      swap6\n      pop\n        /* \"#utility.yul\":2839:2955   */\n      pop\n        /* \"#utility.yul\":2994:2996   */\n      0x20\n        /* \"#utility.yul\":3020:3073   */\n      tag_123\n        /* \"#utility.yul\":3065:3072   */\n      dup9\n        /* \"#utility.yul\":3056:3062   */\n      dup3\n        /* \"#utility.yul\":3045:3054   */\n      dup10\n        /* \"#utility.yul\":3041:3063   */\n      add\n        /* \"#utility.yul\":3020:3073   */\n      tag_50\n      jump\t// in\n    tag_123:\n        /* \"#utility.yul\":3010:3073   */\n      swap5\n      pop\n        /* \"#utility.yul\":2965:3083   */\n      pop\n        /* \"#utility.yul\":3122:3124   */\n      0x40\n        /* \"#utility.yul\":3148:3201   */\n      tag_124\n        /* \"#utility.yul\":3193:3200   */\n      dup9\n        /* \"#utility.yul\":3184:3190   */\n      dup3\n        /* \"#utility.yul\":3173:3182   */\n      dup10\n        /* \"#utility.yul\":3169:3191   */\n      add\n        /* \"#utility.yul\":3148:3201   */\n      tag_53\n      jump\t// in\n    tag_124:\n        /* \"#utility.yul\":3138:3201   */\n      swap4\n      pop\n        /* \"#utility.yul\":3093:3211   */\n      pop\n        /* \"#utility.yul\":3278:3280   */\n      0x60\n        /* \"#utility.yul\":3267:3276   */\n      dup7\n        /* \"#utility.yul\":3263:3281   */\n      add\n        /* \"#utility.yul\":3250:3282   */\n      calldataload\n        /* \"#utility.yul\":3309:3327   */\n      0xffffffffffffffff\n        /* \"#utility.yul\":3301:3307   */\n      dup2\n        /* \"#utility.yul\":3298:3328   */\n      gt\n        /* \"#utility.yul\":3295:3412   */\n      iszero\n      tag_125\n      jumpi\n        /* \"#utility.yul\":3331:3410   */\n      tag_126\n      tag_43\n      jump\t// in\n    tag_126:\n        /* \"#utility.yul\":3295:3412   */\n    tag_125:\n        /* \"#utility.yul\":3444:3509   */\n      tag_127\n        /* \"#utility.yul\":3501:3508   */\n      dup9\n        /* \"#utility.yul\":3492:3498   */\n      dup3\n        /* \"#utility.yul\":3481:3490   */\n      dup10\n        /* \"#utility.yul\":3477:3499   */\n      add\n        /* \"#utility.yul\":3444:3509   */\n      tag_57\n      jump\t// in\n    tag_127:\n        /* \"#utility.yul\":3426:3509   */\n      swap3\n      pop\n      swap3\n      pop\n        /* \"#utility.yul\":3221:3519   */\n      pop\n        /* \"#utility.yul\":2563:3526   */\n      swap3\n      swap6\n      pop\n      swap3\n      swap6\n      swap1\n      swap4\n      pop\n      jump\t// out\n        /* \"#utility.yul\":3532:3622   */\n    tag_58:\n        /* \"#utility.yul\":3566:3573   */\n      0x00\n        /* \"#utility.yul\":3609:3614   */\n      dup2\n        /* \"#utility.yul\":3602:3615   */\n      iszero\n        /* \"#utility.yul\":3595:3616   */\n      iszero\n        /* \"#utility.yul\":3584:3616   */\n      swap1\n      pop\n        /* \"#utility.yul\":3532:3622   */\n      swap2\n      swap1\n      pop\n      jump\t// out\n        /* \"#utility.yul\":3628:3737   */\n    tag_59:\n        /* \"#utility.yul\":3709:3730   */\n      tag_130\n        /* \"#utility.yul\":3724:3729   */\n      dup2\n        /* \"#utility.yul\":3709:3730   */\n      tag_58\n      jump\t// in\n    tag_130:\n        /* \"#utility.yul\":3704:3707   */\n      dup3\n        /* \"#utility.yul\":3697:3731   */\n      mstore\n        /* \"#utility.yul\":3628:3737   */\n      pop\n      pop\n      jump\t// out\n        /* \"#utility.yul\":3743:3841   */\n    tag_60:\n        /* \"#utility.yul\":3794:3800   */\n      0x00\n        /* \"#utility.yul\":3828:3833   */\n      dup2\n        /* \"#utility.yul\":3822:3834   */\n      mload\n        /* \"#utility.yul\":3812:3834   */\n      swap1\n      pop\n        /* \"#utility.yul\":3743:3841   */\n      swap2\n      swap1\n      pop\n      jump\t// out\n        /* \"#utility.yul\":3847:4015   */\n    tag_61:\n        /* \"#utility.yul\":3930:3941   */\n      0x00\n        /* \"#utility.yul\":3964:3970   */\n      dup3\n        /* \"#utility.yul\":3959:3962   */\n      dup3\n        /* \"#utility.yul\":3952:3971   */\n      mstore\n        /* \"#utility.yul\":4004:4008   */\n      0x20\n        /* \"#utility.yul\":3999:4002   */\n      dup3\n        /* \"#utility.yul\":3995:4009   */\n      add\n        /* \"#utility.yul\":3980:4009   */\n      swap1\n      pop\n        /* \"#utility.yul\":3847:4015   */\n      swap3\n      swap2\n      pop\n      pop\n      jump\t// out\n        /* \"#utility.yul\":4021:4160   */\n    tag_62:\n        /* \"#utility.yul\":4110:4116   */\n      dup3\n        /* \"#utility.yul\":4105:4108   */\n      dup2\n        /* \"#utility.yul\":4100:4103   */\n      dup4\n        /* \"#utility.yul\":4094:4117   */\n      mcopy\n        /* \"#utility.yul\":4151:4152   */\n      0x00\n        /* \"#utility.yul\":4142:4148   */\n      dup4\n        /* \"#utility.yul\":4137:4140   */\n      dup4\n        /* \"#utility.yul\":4133:4149   */\n      add\n        /* \"#utility.yul\":4126:4153   */\n      mstore\n        /* \"#utility.yul\":4021:4160   */\n      pop\n      pop\n      pop\n      jump\t// out\n        /* \"#utility.yul\":4166:4268   */\n    tag_63:\n        /* \"#utility.yul\":4207:4213   */\n      0x00\n        /* \"#utility.yul\":4258:4260   */\n      0x1f\n        /* \"#utility.yul\":4254:4261   */\n      not\n        /* \"#utility.yul\":4249:4251   */\n      0x1f\n        /* \"#utility.yul\":4242:4247   */\n      dup4\n        /* \"#utility.yul\":4238:4252   */\n      add\n        /* \"#utility.yul\":4234:4262   */\n      and\n        /* \"#utility.yul\":4224:4262   */\n      swap1\n      pop\n        /* \"#utility.yul\":4166:4268   */\n      swap2\n      swap1\n      pop\n      jump\t// out\n        /* \"#utility.yul\":4274:4647   */\n    tag_64:\n        /* \"#utility.yul\":4360:4363   */\n      0x00\n        /* \"#utility.yul\":4388:4426   */\n      tag_136\n        /* \"#utility.yul\":4420:4425   */\n      dup3\n        /* \"#utility.yul\":4388:4426   */\n      tag_60\n      jump\t// in\n    tag_136:\n        /* \"#utility.yul\":4442:4512   */\n      tag_137\n        /* \"#utility.yul\":4505:4511   */\n      dup2\n        /* \"#utility.yul\":4500:4503   */\n      dup6\n        /* \"#utility.yul\":4442:4512   */\n      tag_61\n      jump\t// in\n    tag_137:\n        /* \"#utility.yul\":4435:4512   */\n      swap4\n      pop\n        /* \"#utility.yul\":4521:4586   */\n      tag_138\n        /* \"#utility.yul\":4579:4585   */\n      dup2\n        /* \"#utility.yul\":4574:4577   */\n      dup6\n        /* \"#utility.yul\":4567:4571   */\n      0x20\n        /* \"#utility.yul\":4560:4565   */\n      dup7\n        /* \"#utility.yul\":4556:4572   */\n      add\n        /* \"#utility.yul\":4521:4586   */\n      tag_62\n      jump\t// in\n    tag_138:\n        /* \"#utility.yul\":4611:4640   */\n      tag_139\n        /* \"#utility.yul\":4633:4639   */\n      dup2\n        /* \"#utility.yul\":4611:4640   */\n      tag_63\n      jump\t// in\n    tag_139:\n        /* \"#utility.yul\":4606:4609   */\n      dup5\n        /* \"#utility.yul\":4602:4641   */\n      add\n        /* \"#utility.yul\":4595:4641   */\n      swap2\n      pop\n        /* \"#utility.yul\":4364:4647   */\n      pop\n        /* \"#utility.yul\":4274:4647   */\n      swap3\n      swap2\n      pop\n      pop\n      jump\t// out\n        /* \"#utility.yul\":4653:5060   */\n    tag_12:\n        /* \"#utility.yul\":4786:4790   */\n      0x00\n        /* \"#utility.yul\":4824:4826   */\n      0x40\n        /* \"#utility.yul\":4813:4822   */\n      dup3\n        /* \"#utility.yul\":4809:4827   */\n      add\n        /* \"#utility.yul\":4801:4827   */\n      swap1\n      pop\n        /* \"#utility.yul\":4837:4902   */\n      tag_141\n        /* \"#utility.yul\":4899:4900   */\n      0x00\n        /* \"#utility.yul\":4888:4897   */\n      dup4\n        /* \"#utility.yul\":4884:4901   */\n      add\n        /* \"#utility.yul\":4875:4881   */\n      dup6\n        /* \"#utility.yul\":4837:4902   */\n      tag_59\n      jump\t// in\n    tag_141:\n        /* \"#utility.yul\":4949:4958   */\n      dup2\n        /* \"#utility.yul\":4943:4947   */\n      dup2\n        /* \"#utility.yul\":4939:4959   */\n      sub\n        /* \"#utility.yul\":4934:4936   */\n      0x20\n        /* \"#utility.yul\":4923:4932   */\n      dup4\n        /* \"#utility.yul\":4919:4937   */\n      add\n        /* \"#utility.yul\":4912:4960   */\n      mstore\n        /* \"#utility.yul\":4977:5053   */\n      tag_142\n        /* \"#utility.yul\":5048:5052   */\n      dup2\n        /* \"#utility.yul\":5039:5045   */\n      dup5\n        /* \"#utility.yul\":4977:5053   */\n      tag_64\n      jump\t// in\n    tag_142:\n        /* \"#utility.yul\":4969:5053   */\n      swap1\n      pop\n        /* \"#utility.yul\":4653:5060   */\n      swap4\n      swap3\n      pop\n      pop\n      pop\n      jump\t// out\n        /* \"#utility.yul\":5066:5181   */\n    tag_65:\n        /* \"#utility.yul\":5151:5174   */\n      tag_144\n        /* \"#utility.yul\":5168:5173   */\n      dup2\n        /* \"#utility.yul\":5151:5174   */\n      tag_44\n      jump\t// in\n    tag_144:\n        /* \"#utility.yul\":5146:5149   */\n      dup3\n        /* \"#utility.yul\":5139:5175   */\n      mstore\n        /* \"#utility.yul\":5066:5181   */\n      pop\n      pop\n      jump\t// out\n        /* \"#utility.yul\":5187:5405   */\n    tag_16:\n        /* \"#utility.yul\":5278:5282   */\n      0x00\n        /* \"#utility.yul\":5316:5318   */\n      0x20\n        /* \"#utility.yul\":5305:5314   */\n      dup3\n        /* \"#utility.yul\":5301:5319   */\n      add\n        /* \"#utility.yul\":5293:5319   */\n      swap1\n      pop\n        /* \"#utility.yul\":5329:5398   */\n      tag_146\n        /* \"#utility.yul\":5395:5396   */\n      0x00\n        /* \"#utility.yul\":5384:5393   */\n      dup4\n        /* \"#utility.yul\":5380:5397   */\n      add\n        /* \"#utility.yul\":5371:5377   */\n      dup5\n        /* \"#utility.yul\":5329:5398   */\n      tag_65\n      jump\t// in\n    tag_146:\n        /* \"#utility.yul\":5187:5405   */\n      swap3\n      swap2\n      pop\n      pop\n      jump\t// out\n        /* \"#utility.yul\":5411:5528   */\n    tag_66:\n        /* \"#utility.yul\":5520:5521   */\n      0x00\n        /* \"#utility.yul\":5517:5518   */\n      dup1\n        /* \"#utility.yul\":5510:5522   */\n      revert\n        /* \"#utility.yul\":5534:5714   */\n    tag_67:\n        /* \"#utility.yul\":5582:5659   */\n      0x4e487b7100000000000000000000000000000000000000000000000000000000\n        /* \"#utility.yul\":5579:5580   */\n      0x00\n        /* \"#utility.yul\":5572:5660   */\n      mstore\n        /* \"#utility.yul\":5679:5683   */\n      0x41\n        /* \"#utility.yul\":5676:5677   */\n      0x04\n        /* \"#utility.yul\":5669:5684   */\n      mstore\n        /* \"#utility.yul\":5703:5707   */\n      0x24\n        /* \"#utility.yul\":5700:5701   */\n      0x00\n        /* \"#utility.yul\":5693:5708   */\n      revert\n        /* \"#utility.yul\":5720:6001   */\n    tag_68:\n        /* \"#utility.yul\":5803:5830   */\n      tag_150\n        /* \"#utility.yul\":5825:5829   */\n      dup3\n        /* \"#utility.yul\":5803:5830   */\n      tag_63\n      jump\t// in\n    tag_150:\n        /* \"#utility.yul\":5795:5801   */\n      dup2\n        /* \"#utility.yul\":5791:5831   */\n      add\n        /* \"#utility.yul\":5933:5939   */\n      dup2\n        /* \"#utility.yul\":5921:5931   */\n      dup2\n        /* \"#utility.yul\":5918:5940   */\n      lt\n        /* \"#utility.yul\":5897:5915   */\n      0xffffffffffffffff\n        /* \"#utility.yul\":5885:5895   */\n      dup3\n        /* \"#utility.yul\":5882:5916   */\n      gt\n        /* \"#utility.yul\":5879:5941   */\n      or\n        /* \"#utility.yul\":5876:5964   */\n      iszero\n      tag_151\n      jumpi\n        /* \"#utility.yul\":5944:5962   */\n      tag_152\n      tag_67\n      jump\t// in\n    tag_152:\n        /* \"#utility.yul\":5876:5964   */\n    tag_151:\n        /* \"#utility.yul\":5984:5994   */\n      dup1\n        /* \"#utility.yul\":5980:5982   */\n      0x40\n        /* \"#utility.yul\":5973:5995   */\n      mstore\n        /* \"#utility.yul\":5763:6001   */\n      pop\n        /* \"#utility.yul\":5720:6001   */\n      pop\n      pop\n      jump\t// out\n        /* \"#utility.yul\":6007:6136   */\n    tag_69:\n        /* \"#utility.yul\":6041:6047   */\n      0x00\n        /* \"#utility.yul\":6068:6088   */\n      tag_154\n      tag_41\n      jump\t// in\n    tag_154:\n        /* \"#utility.yul\":6058:6088   */\n      swap1\n      pop\n        /* \"#utility.yul\":6097:6130   */\n      tag_155\n        /* \"#utility.yul\":6125:6129   */\n      dup3\n        /* \"#utility.yul\":6117:6123   */\n      dup3\n        /* \"#utility.yul\":6097:6130   */\n      tag_68\n      jump\t// in\n    tag_155:\n        /* \"#utility.yul\":6007:6136   */\n      swap2\n      swap1\n      pop\n      jump\t// out\n        /* \"#utility.yul\":6142:6449   */\n    tag_70:\n        /* \"#utility.yul\":6203:6207   */\n      0x00\n        /* \"#utility.yul\":6293:6311   */\n      0xffffffffffffffff\n        /* \"#utility.yul\":6285:6291   */\n      dup3\n        /* \"#utility.yul\":6282:6312   */\n      gt\n        /* \"#utility.yul\":6279:6335   */\n      iszero\n      tag_157\n      jumpi\n        /* \"#utility.yul\":6315:6333   */\n      tag_158\n      tag_67\n      jump\t// in\n    tag_158:\n        /* \"#utility.yul\":6279:6335   */\n    tag_157:\n        /* \"#utility.yul\":6353:6382   */\n      tag_159\n        /* \"#utility.yul\":6375:6381   */\n      dup3\n        /* \"#utility.yul\":6353:6382   */\n      tag_63\n      jump\t// in\n    tag_159:\n        /* \"#utility.yul\":6345:6382   */\n      swap1\n      pop\n        /* \"#utility.yul\":6437:6441   */\n      0x20\n        /* \"#utility.yul\":6431:6435   */\n      dup2\n        /* \"#utility.yul\":6427:6442   */\n      add\n        /* \"#utility.yul\":6419:6442   */\n      swap1\n      pop\n        /* \"#utility.yul\":6142:6449   */\n      swap2\n      swap1\n      pop\n      jump\t// out\n        /* \"#utility.yul\":6455:6603   */\n    tag_71:\n        /* \"#utility.yul\":6553:6559   */\n      dup3\n        /* \"#utility.yul\":6548:6551   */\n      dup2\n        /* \"#utility.yul\":6543:6546   */\n      dup4\n        /* \"#utility.yul\":6530:6560   */\n      calldatacopy\n        /* \"#utility.yul\":6594:6595   */\n      0x00\n        /* \"#utility.yul\":6585:6591   */\n      dup4\n        /* \"#utility.yul\":6580:6583   */\n      dup4\n        /* \"#utility.yul\":6576:6592   */\n      add\n        /* \"#utility.yul\":6569:6596   */\n      mstore\n        /* \"#utility.yul\":6455:6603   */\n      pop\n      pop\n      pop\n      jump\t// out\n        /* \"#utility.yul\":6609:7032   */\n    tag_72:\n        /* \"#utility.yul\":6686:6691   */\n      0x00\n        /* \"#utility.yul\":6711:6776   */\n      tag_162\n        /* \"#utility.yul\":6727:6775   */\n      tag_163\n        /* \"#utility.yul\":6768:6774   */\n      dup5\n        /* \"#utility.yul\":6727:6775   */\n      tag_70\n      jump\t// in\n    tag_163:\n        /* \"#utility.yul\":6711:6776   */\n      tag_69\n      jump\t// in\n    tag_162:\n        /* \"#utility.yul\":6702:6776   */\n      swap1\n      pop\n        /* \"#utility.yul\":6799:6805   */\n      dup3\n        /* \"#utility.yul\":6792:6797   */\n      dup2\n        /* \"#utility.yul\":6785:6806   */\n      mstore\n        /* \"#utility.yul\":6837:6841   */\n      0x20\n        /* \"#utility.yul\":6830:6835   */\n      dup2\n        /* \"#utility.yul\":6826:6842   */\n      add\n        /* \"#utility.yul\":6875:6878   */\n      dup5\n        /* \"#utility.yul\":6866:6872   */\n      dup5\n        /* \"#utility.yul\":6861:6864   */\n      dup5\n        /* \"#utility.yul\":6857:6873   */\n      add\n        /* \"#utility.yul\":6854:6879   */\n      gt\n        /* \"#utility.yul\":6851:6963   */\n      iszero\n      tag_164\n      jumpi\n        /* \"#utility.yul\":6882:6961   */\n      tag_165\n      tag_66\n      jump\t// in\n    tag_165:\n        /* \"#utility.yul\":6851:6963   */\n    tag_164:\n        /* \"#utility.yul\":6972:7026   */\n      tag_166\n        /* \"#utility.yul\":7019:7025   */\n      dup5\n        /* \"#utility.yul\":7014:7017   */\n      dup3\n        /* \"#utility.yul\":7009:7012   */\n      dup6\n        /* \"#utility.yul\":6972:7026   */\n      tag_71\n      jump\t// in\n    tag_166:\n        /* \"#utility.yul\":6692:7032   */\n      pop\n        /* \"#utility.yul\":6609:7032   */\n      swap4\n      swap3\n      pop\n      pop\n      pop\n      jump\t// out\n        /* \"#utility.yul\":7051:7389   */\n    tag_73:\n        /* \"#utility.yul\":7106:7111   */\n      0x00\n        /* \"#utility.yul\":7155:7158   */\n      dup3\n        /* \"#utility.yul\":7148:7152   */\n      0x1f\n        /* \"#utility.yul\":7140:7146   */\n      dup4\n        /* \"#utility.yul\":7136:7153   */\n      add\n        /* \"#utility.yul\":7132:7159   */\n      slt\n        /* \"#utility.yul\":7122:7244   */\n      tag_168\n      jumpi\n        /* \"#utility.yul\":7163:7242   */\n      tag_169\n      tag_54\n      jump\t// in\n    tag_169:\n        /* \"#utility.yul\":7122:7244   */\n    tag_168:\n        /* \"#utility.yul\":7280:7286   */\n      dup2\n        /* \"#utility.yul\":7267:7287   */\n      calldataload\n        /* \"#utility.yul\":7305:7383   */\n      tag_170\n        /* \"#utility.yul\":7379:7382   */\n      dup5\n        /* \"#utility.yul\":7371:7377   */\n      dup3\n        /* \"#utility.yul\":7364:7368   */\n      0x20\n        /* \"#utility.yul\":7356:7362   */\n      dup7\n        /* \"#utility.yul\":7352:7369   */\n      add\n        /* \"#utility.yul\":7305:7383   */\n      tag_72\n      jump\t// in\n    tag_170:\n        /* \"#utility.yul\":7296:7383   */\n      swap2\n      pop\n        /* \"#utility.yul\":7112:7389   */\n      pop\n        /* \"#utility.yul\":7051:7389   */\n      swap3\n      swap2\n      pop\n      pop\n      jump\t// out\n        /* \"#utility.yul\":7395:7902   */\n    tag_19:\n        /* \"#utility.yul\":7463:7469   */\n      0x00\n        /* \"#utility.yul\":7512:7514   */\n      0x20\n        /* \"#utility.yul\":7500:7509   */\n      dup3\n        /* \"#utility.yul\":7491:7498   */\n      dup5\n        /* \"#utility.yul\":7487:7510   */\n      sub\n        /* \"#utility.yul\":7483:7515   */\n      slt\n        /* \"#utility.yul\":7480:7599   */\n      iszero\n      tag_172\n      jumpi\n        /* \"#utility.yul\":7518:7597   */\n      tag_173\n      tag_42\n      jump\t// in\n    tag_173:\n        /* \"#utility.yul\":7480:7599   */\n    tag_172:\n        /* \"#utility.yul\":7666:7667   */\n      0x00\n        /* \"#utility.yul\":7655:7664   */\n      dup3\n        /* \"#utility.yul\":7651:7668   */\n      add\n        /* \"#utility.yul\":7638:7669   */\n      calldataload\n        /* \"#utility.yul\":7696:7714   */\n      0xffffffffffffffff\n        /* \"#utility.yul\":7688:7694   */\n      dup2\n        /* \"#utility.yul\":7685:7715   */\n      gt\n        /* \"#utility.yul\":7682:7799   */\n      iszero\n      tag_174\n      jumpi\n        /* \"#utility.yul\":7718:7797   */\n      tag_175\n      tag_43\n      jump\t// in\n    tag_175:\n        /* \"#utility.yul\":7682:7799   */\n    tag_174:\n        /* \"#utility.yul\":7823:7885   */\n      tag_176\n        /* \"#utility.yul\":7877:7884   */\n      dup5\n        /* \"#utility.yul\":7868:7874   */\n      dup3\n        /* \"#utility.yul\":7857:7866   */\n      dup6\n        /* \"#utility.yul\":7853:7875   */\n      add\n        /* \"#utility.yul\":7823:7885   */\n      tag_73\n      jump\t// in\n    tag_176:\n        /* \"#utility.yul\":7813:7885   */\n      swap2\n      pop\n        /* \"#utility.yul\":7609:7895   */\n      pop\n        /* \"#utility.yul\":7395:7902   */\n      swap3\n      swap2\n      pop\n      pop\n      jump\t// out\n        /* \"#utility.yul\":7908:8007   */\n    tag_74:\n        /* \"#utility.yul\":7960:7966   */\n      0x00\n        /* \"#utility.yul\":7994:7999   */\n      dup2\n        /* \"#utility.yul\":7988:8000   */\n      mload\n        /* \"#utility.yul\":7978:8000   */\n      swap1\n      pop\n        /* \"#utility.yul\":7908:8007   */\n      swap2\n      swap1\n      pop\n      jump\t// out\n        /* \"#utility.yul\":8013:8182   */\n    tag_75:\n        /* \"#utility.yul\":8097:8108   */\n      0x00\n        /* \"#utility.yul\":8131:8137   */\n      dup3\n        /* \"#utility.yul\":8126:8129   */\n      dup3\n        /* \"#utility.yul\":8119:8138   */\n      mstore\n        /* \"#utility.yul\":8171:8175   */\n      0x20\n        /* \"#utility.yul\":8166:8169   */\n      dup3\n        /* \"#utility.yul\":8162:8176   */\n      add\n        /* \"#utility.yul\":8147:8176   */\n      swap1\n      pop\n        /* \"#utility.yul\":8013:8182   */\n      swap3\n      swap2\n      pop\n      pop\n      jump\t// out\n        /* \"#utility.yul\":8188:8565   */\n    tag_76:\n        /* \"#utility.yul\":8276:8279   */\n      0x00\n        /* \"#utility.yul\":8304:8343   */\n      tag_180\n        /* \"#utility.yul\":8337:8342   */\n      dup3\n        /* \"#utility.yul\":8304:8343   */\n      tag_74\n      jump\t// in\n    tag_180:\n        /* \"#utility.yul\":8359:8430   */\n      tag_181\n        /* \"#utility.yul\":8423:8429   */\n      dup2\n        /* \"#utility.yul\":8418:8421   */\n      dup6\n        /* \"#utility.yul\":8359:8430   */\n      tag_75\n      jump\t// in\n    tag_181:\n        /* \"#utility.yul\":8352:8430   */\n      swap4\n      pop\n        /* \"#utility.yul\":8439:8504   */\n      tag_182\n        /* \"#utility.yul\":8497:8503   */\n      dup2\n        /* \"#utility.yul\":8492:8495   */\n      dup6\n        /* \"#utility.yul\":8485:8489   */\n      0x20\n        /* \"#utility.yul\":8478:8483   */\n      dup7\n        /* \"#utility.yul\":8474:8490   */\n      add\n        /* \"#utility.yul\":8439:8504   */\n      tag_62\n      jump\t// in\n    tag_182:\n        /* \"#utility.yul\":8529:8558   */\n      tag_183\n        /* \"#utility.yul\":8551:8557   */\n      dup2\n        /* \"#utility.yul\":8529:8558   */\n      tag_63\n      jump\t// in\n    tag_183:\n        /* \"#utility.yul\":8524:8527   */\n      dup5\n        /* \"#utility.yul\":8520:8559   */\n      add\n        /* \"#utility.yul\":8513:8559   */\n      swap2\n      pop\n        /* \"#utility.yul\":8280:8565   */\n      pop\n        /* \"#utility.yul\":8188:8565   */\n      swap3\n      swap2\n      pop\n      pop\n      jump\t// out\n        /* \"#utility.yul\":8571:8884   */\n    tag_22:\n        /* \"#utility.yul\":8684:8688   */\n      0x00\n        /* \"#utility.yul\":8722:8724   */\n      0x20\n        /* \"#utility.yul\":8711:8720   */\n      dup3\n        /* \"#utility.yul\":8707:8725   */\n      add\n        /* \"#utility.yul\":8699:8725   */\n      swap1\n      pop\n        /* \"#utility.yul\":8771:8780   */\n      dup2\n        /* \"#utility.yul\":8765:8769   */\n      dup2\n        /* \"#utility.yul\":8761:8781   */\n      sub\n        /* \"#utility.yul\":8757:8758   */\n      0x00\n        /* \"#utility.yul\":8746:8755   */\n      dup4\n        /* \"#utility.yul\":8742:8759   */\n      add\n        /* \"#utility.yul\":8735:8782   */\n      mstore\n        /* \"#utility.yul\":8799:8877   */\n      tag_185\n        /* \"#utility.yul\":8872:8876   */\n      dup2\n        /* \"#utility.yul\":8863:8869   */\n      dup5\n        /* \"#utility.yul\":8799:8877   */\n      tag_76\n      jump\t// in\n    tag_185:\n        /* \"#utility.yul\":8791:8877   */\n      swap1\n      pop\n        /* \"#utility.yul\":8571:8884   */\n      swap3\n      swap2\n      pop\n      pop\n      jump\t// out\n        /* \"#utility.yul\":8890:9709   */\n    tag_25:\n        /* \"#utility.yul\":8979:8985   */\n      0x00\n        /* \"#utility.yul\":8987:8993   */\n      dup1\n        /* \"#utility.yul\":8995:9001   */\n      0x00\n        /* \"#utility.yul\":9003:9009   */\n      dup1\n        /* \"#utility.yul\":9052:9054   */\n      0x60\n        /* \"#utility.yul\":9040:9049   */\n      dup6\n        /* \"#utility.yul\":9031:9038   */\n      dup8\n        /* \"#utility.yul\":9027:9050   */\n      sub\n        /* \"#utility.yul\":9023:9055   */\n      slt\n        /* \"#utility.yul\":9020:9139   */\n      iszero\n      tag_187\n      jumpi\n        /* \"#utility.yul\":9058:9137   */\n      tag_188\n      tag_42\n      jump\t// in\n    tag_188:\n        /* \"#utility.yul\":9020:9139   */\n    tag_187:\n        /* \"#utility.yul\":9178:9179   */\n      0x00\n        /* \"#utility.yul\":9203:9256   */\n      tag_189\n        /* \"#utility.yul\":9248:9255   */\n      dup8\n        /* \"#utility.yul\":9239:9245   */\n      dup3\n        /* \"#utility.yul\":9228:9237   */\n      dup9\n        /* \"#utility.yul\":9224:9246   */\n      add\n        /* \"#utility.yul\":9203:9256   */\n      tag_50\n      jump\t// in\n    tag_189:\n        /* \"#utility.yul\":9193:9256   */\n      swap5\n      pop\n        /* \"#utility.yul\":9149:9266   */\n      pop\n        /* \"#utility.yul\":9305:9307   */\n      0x20\n        /* \"#utility.yul\":9331:9384   */\n      tag_190\n        /* \"#utility.yul\":9376:9383   */\n      dup8\n        /* \"#utility.yul\":9367:9373   */\n      dup3\n        /* \"#utility.yul\":9356:9365   */\n      dup9\n        /* \"#utility.yul\":9352:9374   */\n      add\n        /* \"#utility.yul\":9331:9384   */\n      tag_53\n      jump\t// in\n    tag_190:\n        /* \"#utility.yul\":9321:9384   */\n      swap4\n      pop\n        /* \"#utility.yul\":9276:9394   */\n      pop\n        /* \"#utility.yul\":9461:9463   */\n      0x40\n        /* \"#utility.yul\":9450:9459   */\n      dup6\n        /* \"#utility.yul\":9446:9464   */\n      add\n        /* \"#utility.yul\":9433:9465   */\n      calldataload\n        /* \"#utility.yul\":9492:9510   */\n      0xffffffffffffffff\n        /* \"#utility.yul\":9484:9490   */\n      dup2\n        /* \"#utility.yul\":9481:9511   */\n      gt\n        /* \"#utility.yul\":9478:9595   */\n      iszero\n      tag_191\n      jumpi\n        /* \"#utility.yul\":9514:9593   */\n      tag_192\n      tag_43\n      jump\t// in\n    tag_192:\n        /* \"#utility.yul\":9478:9595   */\n    tag_191:\n        /* \"#utility.yul\":9627:9692   */\n      tag_193\n        /* \"#utility.yul\":9684:9691   */\n      dup8\n        /* \"#utility.yul\":9675:9681   */\n      dup3\n        /* \"#utility.yul\":9664:9673   */\n      dup9\n        /* \"#utility.yul\":9660:9682   */\n      add\n        /* \"#utility.yul\":9627:9692   */\n      tag_57\n      jump\t// in\n    tag_193:\n        /* \"#utility.yul\":9609:9692   */\n      swap3\n      pop\n      swap3\n      pop\n        /* \"#utility.yul\":9404:9702   */\n      pop\n        /* \"#utility.yul\":8890:9709   */\n      swap3\n      swap6\n      swap2\n      swap5\n      pop\n      swap3\n      pop\n      jump\t// out\n        /* \"#utility.yul\":9715:9833   */\n    tag_77:\n        /* \"#utility.yul\":9802:9826   */\n      tag_195\n        /* \"#utility.yul\":9820:9825   */\n      dup2\n        /* \"#utility.yul\":9802:9826   */\n      tag_48\n      jump\t// in\n    tag_195:\n        /* \"#utility.yul\":9797:9800   */\n      dup3\n        /* \"#utility.yul\":9790:9827   */\n      mstore\n        /* \"#utility.yul\":9715:9833   */\n      pop\n      pop\n      jump\t// out\n        /* \"#utility.yul\":9839:9957   */\n    tag_78:\n        /* \"#utility.yul\":9926:9950   */\n      tag_197\n        /* \"#utility.yul\":9944:9949   */\n      dup2\n        /* \"#utility.yul\":9926:9950   */\n      tag_51\n      jump\t// in\n    tag_197:\n        /* \"#utility.yul\":9921:9924   */\n      dup3\n        /* \"#utility.yul\":9914:9951   */\n      mstore\n        /* \"#utility.yul\":9839:9957   */\n      pop\n      pop\n      jump\t// out\n        /* \"#utility.yul\":9987:10304   */\n    tag_79:\n        /* \"#utility.yul\":10085:10088   */\n      0x00\n        /* \"#utility.yul\":10106:10177   */\n      tag_199\n        /* \"#utility.yul\":10170:10176   */\n      dup4\n        /* \"#utility.yul\":10165:10168   */\n      dup6\n        /* \"#utility.yul\":10106:10177   */\n      tag_75\n      jump\t// in\n    tag_199:\n        /* \"#utility.yul\":10099:10177   */\n      swap4\n      pop\n        /* \"#utility.yul\":10187:10243   */\n      tag_200\n        /* \"#utility.yul\":10236:10242   */\n      dup4\n        /* \"#utility.yul\":10231:10234   */\n      dup6\n        /* \"#utility.yul\":10224:10229   */\n      dup5\n        /* \"#utility.yul\":10187:10243   */\n      tag_71\n      jump\t// in\n    tag_200:\n        /* \"#utility.yul\":10268:10297   */\n      tag_201\n        /* \"#utility.yul\":10290:10296   */\n      dup4\n        /* \"#utility.yul\":10268:10297   */\n      tag_63\n      jump\t// in\n    tag_201:\n        /* \"#utility.yul\":10263:10266   */\n      dup5\n        /* \"#utility.yul\":10259:10298   */\n      add\n        /* \"#utility.yul\":10252:10298   */\n      swap1\n      pop\n        /* \"#utility.yul\":9987:10304   */\n      swap4\n      swap3\n      pop\n      pop\n      pop\n      jump\t// out\n        /* \"#utility.yul\":10310:10863   */\n    tag_30:\n        /* \"#utility.yul\":10489:10493   */\n      0x00\n        /* \"#utility.yul\":10527:10529   */\n      0x60\n        /* \"#utility.yul\":10516:10525   */\n      dup3\n        /* \"#utility.yul\":10512:10530   */\n      add\n        /* \"#utility.yul\":10504:10530   */\n      swap1\n      pop\n        /* \"#utility.yul\":10540:10611   */\n      tag_203\n        /* \"#utility.yul\":10608:10609   */\n      0x00\n        /* \"#utility.yul\":10597:10606   */\n      dup4\n        /* \"#utility.yul\":10593:10610   */\n      add\n        /* \"#utility.yul\":10584:10590   */\n      dup8\n        /* \"#utility.yul\":10540:10611   */\n      tag_77\n      jump\t// in\n    tag_203:\n        /* \"#utility.yul\":10621:10693   */\n      tag_204\n        /* \"#utility.yul\":10689:10691   */\n      0x20\n        /* \"#utility.yul\":10678:10687   */\n      dup4\n        /* \"#utility.yul\":10674:10692   */\n      add\n        /* \"#utility.yul\":10665:10671   */\n      dup7\n        /* \"#utility.yul\":10621:10693   */\n      tag_78\n      jump\t// in\n    tag_204:\n        /* \"#utility.yul\":10740:10749   */\n      dup2\n        /* \"#utility.yul\":10734:10738   */\n      dup2\n        /* \"#utility.yul\":10730:10750   */\n      sub\n        /* \"#utility.yul\":10725:10727   */\n      0x40\n        /* \"#utility.yul\":10714:10723   */\n      dup4\n        /* \"#utility.yul\":10710:10728   */\n      add\n        /* \"#utility.yul\":10703:10751   */\n      mstore\n        /* \"#utility.yul\":10768:10856   */\n      tag_205\n        /* \"#utility.yul\":10851:10855   */\n      dup2\n        /* \"#utility.yul\":10842:10848   */\n      dup5\n        /* \"#utility.yul\":10834:10840   */\n      dup7\n        /* \"#utility.yul\":10768:10856   */\n      tag_79\n      jump\t// in\n    tag_205:\n        /* \"#utility.yul\":10760:10856   */\n      swap1\n      pop\n        /* \"#utility.yul\":10310:10863   */\n      swap6\n      swap5\n      pop\n      pop\n      pop\n      pop\n      pop\n      jump\t// out\n        /* \"#utility.yul\":10869:11016   */\n    tag_80:\n        /* \"#utility.yul\":10970:10981   */\n      0x00\n        /* \"#utility.yul\":11007:11010   */\n      dup2\n        /* \"#utility.yul\":10992:11010   */\n      swap1\n      pop\n        /* \"#utility.yul\":10869:11016   */\n      swap3\n      swap2\n      pop\n      pop\n      jump\t// out\n        /* \"#utility.yul\":11022:11408   */\n    tag_81:\n        /* \"#utility.yul\":11126:11129   */\n      0x00\n        /* \"#utility.yul\":11154:11192   */\n      tag_208\n        /* \"#utility.yul\":11186:11191   */\n      dup3\n        /* \"#utility.yul\":11154:11192   */\n      tag_60\n      jump\t// in\n    tag_208:\n        /* \"#utility.yul\":11208:11296   */\n      tag_209\n        /* \"#utility.yul\":11289:11295   */\n      dup2\n        /* \"#utility.yul\":11284:11287   */\n      dup6\n        /* \"#utility.yul\":11208:11296   */\n      tag_80\n      jump\t// in\n    tag_209:\n        /* \"#utility.yul\":11201:11296   */\n      swap4\n      pop\n        /* \"#utility.yul\":11305:11370   */\n      tag_210\n        /* \"#utility.yul\":11363:11369   */\n      dup2\n        /* \"#utility.yul\":11358:11361   */\n      dup6\n        /* \"#utility.yul\":11351:11355   */\n      0x20\n        /* \"#utility.yul\":11344:11349   */\n      dup7\n        /* \"#utility.yul\":11340:11356   */\n      add\n        /* \"#utility.yul\":11305:11370   */\n      tag_62\n      jump\t// in\n    tag_210:\n        /* \"#utility.yul\":11395:11401   */\n      dup1\n        /* \"#utility.yul\":11390:11393   */\n      dup5\n        /* \"#utility.yul\":11386:11402   */\n      add\n        /* \"#utility.yul\":11379:11402   */\n      swap2\n      pop\n        /* \"#utility.yul\":11130:11408   */\n      pop\n        /* \"#utility.yul\":11022:11408   */\n      swap3\n      swap2\n      pop\n      pop\n      jump\t// out\n        /* \"#utility.yul\":11414:11685   */\n    tag_32:\n        /* \"#utility.yul\":11544:11547   */\n      0x00\n        /* \"#utility.yul\":11566:11659   */\n      tag_212\n        /* \"#utility.yul\":11655:11658   */\n      dup3\n        /* \"#utility.yul\":11646:11652   */\n      dup5\n        /* \"#utility.yul\":11566:11659   */\n      tag_81\n      jump\t// in\n    tag_212:\n        /* \"#utility.yul\":11559:11659   */\n      swap2\n      pop\n        /* \"#utility.yul\":11676:11679   */\n      dup2\n        /* \"#utility.yul\":11669:11679   */\n      swap1\n      pop\n        /* \"#utility.yul\":11414:11685   */\n      swap3\n      swap2\n      pop\n      pop\n      jump\t// out\n        /* \"#utility.yul\":11691:11999   */\n    tag_82:\n        /* \"#utility.yul\":11753:11757   */\n      0x00\n        /* \"#utility.yul\":11843:11861   */\n      0xffffffffffffffff\n        /* \"#utility.yul\":11835:11841   */\n      dup3\n        /* \"#utility.yul\":11832:11862   */\n      gt\n        /* \"#utility.yul\":11829:11885   */\n      iszero\n      tag_214\n      jumpi\n        /* \"#utility.yul\":11865:11883   */\n      tag_215\n      tag_67\n      jump\t// in\n    tag_215:\n        /* \"#utility.yul\":11829:11885   */\n    tag_214:\n        /* \"#utility.yul\":11903:11932   */\n      tag_216\n        /* \"#utility.yul\":11925:11931   */\n      dup3\n        /* \"#utility.yul\":11903:11932   */\n      tag_63\n      jump\t// in\n    tag_216:\n        /* \"#utility.yul\":11895:11932   */\n      swap1\n      pop\n        /* \"#utility.yul\":11987:11991   */\n      0x20\n        /* \"#utility.yul\":11981:11985   */\n      dup2\n        /* \"#utility.yul\":11977:11992   */\n      add\n        /* \"#utility.yul\":11969:11992   */\n      swap1\n      pop\n        /* \"#utility.yul\":11691:11999   */\n      swap2\n      swap1\n      pop\n      jump\t// out\n        /* \"#utility.yul\":12005:12439   */\n    tag_83:\n        /* \"#utility.yul\":12094:12099   */\n      0x00\n        /* \"#utility.yul\":12119:12185   */\n      tag_218\n        /* \"#utility.yul\":12135:12184   */\n      tag_219\n        /* \"#utility.yul\":12177:12183   */\n      dup5\n        /* \"#utility.yul\":12135:12184   */\n      tag_82\n      jump\t// in\n    tag_219:\n        /* \"#utility.yul\":12119:12185   */\n      tag_69\n      jump\t// in\n    tag_218:\n        /* \"#utility.yul\":12110:12185   */\n      swap1\n      pop\n        /* \"#utility.yul\":12208:12214   */\n      dup3\n        /* \"#utility.yul\":12201:12206   */\n      dup2\n        /* \"#utility.yul\":12194:12215   */\n      mstore\n        /* \"#utility.yul\":12246:12250   */\n      0x20\n        /* \"#utility.yul\":12239:12244   */\n      dup2\n        /* \"#utility.yul\":12235:12251   */\n      add\n        /* \"#utility.yul\":12284:12287   */\n      dup5\n        /* \"#utility.yul\":12275:12281   */\n      dup5\n        /* \"#utility.yul\":12270:12273   */\n      dup5\n        /* \"#utility.yul\":12266:12282   */\n      add\n        /* \"#utility.yul\":12263:12288   */\n      gt\n        /* \"#utility.yul\":12260:12372   */\n      iszero\n      tag_220\n      jumpi\n        /* \"#utility.yul\":12291:12370   */\n      tag_221\n      tag_66\n      jump\t// in\n    tag_221:\n        /* \"#utility.yul\":12260:12372   */\n    tag_220:\n        /* \"#utility.yul\":12381:12433   */\n      tag_222\n        /* \"#utility.yul\":12426:12432   */\n      dup5\n        /* \"#utility.yul\":12421:12424   */\n      dup3\n        /* \"#utility.yul\":12416:12419   */\n      dup6\n        /* \"#utility.yul\":12381:12433   */\n      tag_62\n      jump\t// in\n    tag_222:\n        /* \"#utility.yul\":12100:12439   */\n      pop\n        /* \"#utility.yul\":12005:12439   */\n      swap4\n      swap3\n      pop\n      pop\n      pop\n      jump\t// out\n        /* \"#utility.yul\":12459:12814   */\n    tag_84:\n        /* \"#utility.yul\":12526:12531   */\n      0x00\n        /* \"#utility.yul\":12575:12578   */\n      dup3\n        /* \"#utility.yul\":12568:12572   */\n      0x1f\n        /* \"#utility.yul\":12560:12566   */\n      dup4\n        /* \"#utility.yul\":12556:12573   */\n      add\n        /* \"#utility.yul\":12552:12579   */\n      slt\n        /* \"#utility.yul\":12542:12664   */\n      tag_224\n      jumpi\n        /* \"#utility.yul\":12583:12662   */\n      tag_225\n      tag_54\n      jump\t// in\n    tag_225:\n        /* \"#utility.yul\":12542:12664   */\n    tag_224:\n        /* \"#utility.yul\":12693:12699   */\n      dup2\n        /* \"#utility.yul\":12687:12700   */\n      mload\n        /* \"#utility.yul\":12718:12808   */\n      tag_226\n        /* \"#utility.yul\":12804:12807   */\n      dup5\n        /* \"#utility.yul\":12796:12802   */\n      dup3\n        /* \"#utility.yul\":12789:12793   */\n      0x20\n        /* \"#utility.yul\":12781:12787   */\n      dup7\n        /* \"#utility.yul\":12777:12794   */\n      add\n        /* \"#utility.yul\":12718:12808   */\n      tag_83\n      jump\t// in\n    tag_226:\n        /* \"#utility.yul\":12709:12808   */\n      swap2\n      pop\n        /* \"#utility.yul\":12532:12814   */\n      pop\n        /* \"#utility.yul\":12459:12814   */\n      swap3\n      swap2\n      pop\n      pop\n      jump\t// out\n        /* \"#utility.yul\":12820:13344   */\n    tag_39:\n        /* \"#utility.yul\":12900:12906   */\n      0x00\n        /* \"#utility.yul\":12949:12951   */\n      0x20\n        /* \"#utility.yul\":12937:12946   */\n      dup3\n        /* \"#utility.yul\":12928:12935   */\n      dup5\n        /* \"#utility.yul\":12924:12947   */\n      sub\n        /* \"#utility.yul\":12920:12952   */\n      slt\n        /* \"#utility.yul\":12917:13036   */\n      iszero\n      tag_228\n      jumpi\n        /* \"#utility.yul\":12955:13034   */\n      tag_229\n      tag_42\n      jump\t// in\n    tag_229:\n        /* \"#utility.yul\":12917:13036   */\n    tag_228:\n        /* \"#utility.yul\":13096:13097   */\n      0x00\n        /* \"#utility.yul\":13085:13094   */\n      dup3\n        /* \"#utility.yul\":13081:13098   */\n      add\n        /* \"#utility.yul\":13075:13099   */\n      mload\n        /* \"#utility.yul\":13126:13144   */\n      0xffffffffffffffff\n        /* \"#utility.yul\":13118:13124   */\n      dup2\n        /* \"#utility.yul\":13115:13145   */\n      gt\n        /* \"#utility.yul\":13112:13229   */\n      iszero\n      tag_230\n      jumpi\n        /* \"#utility.yul\":13148:13227   */\n      tag_231\n      tag_43\n      jump\t// in\n    tag_231:\n        /* \"#utility.yul\":13112:13229   */\n    tag_230:\n        /* \"#utility.yul\":13253:13327   */\n      tag_232\n        /* \"#utility.yul\":13319:13326   */\n      dup5\n        /* \"#utility.yul\":13310:13316   */\n      dup3\n        /* \"#utility.yul\":13299:13308   */\n      dup6\n        /* \"#utility.yul\":13295:13317   */\n      add\n        /* \"#utility.yul\":13253:13327   */\n      tag_84\n      jump\t// in\n    tag_232:\n        /* \"#utility.yul\":13243:13327   */\n      swap2\n      pop\n        /* \"#utility.yul\":13046:13337   */\n      pop\n        /* \"#utility.yul\":12820:13344   */\n      swap3\n      swap2\n      pop\n      pop\n      jump\t// out\n\n    auxdata: 0xa264697066735822122005b01f17c786b795471477d737cb73c94d469843cadb296247f6b69de80f146664736f6c63430008190033\n}\n",
				"bytecode": {
					"linkReferences": {},
					"object": "6080604052348015600e575f80fd5b506109738061001c5f395ff3fe608060405234801561000f575f80fd5b506004361061004a575f3560e01c806349c23ef41461004e5780636acdda361461007f578063e5c5e9a31461009d578063e9d740fb146100cd575b5f80fd5b610068600480360381019061006391906103ca565b6100fd565b6040516100769291906104d8565b60405180910390f35b6100876101f0565b6040516100949190610515565b60405180910390f35b6100b760048036038101906100b29190610656565b610217565b6040516100c491906106ef565b60405180910390f35b6100e760048036038101906100e2919061070f565b610234565b6040516100f491906106ef565b60405180910390f35b5f60605f803073ffffffffffffffffffffffffffffffffffffffff16898989898960405160240161013194939291906107ca565b604051602081830303815290604052907bffffffffffffffffffffffffffffffffffffffffffffffffffffffff19166020820180517bffffffffffffffffffffffffffffffffffffffffffffffffffffffff838183161783525050505060405161019b9190610842565b5f604051808303815f865af19150503d805f81146101d4576040519150601f19603f3d011682016040523d82523d5f602084013e6101d9565b606091505b509150915081819350935050509550959350505050565b5f7fe9d740fb1d625751d852e2ad3bfa395bcd9c092fc2b1cd1df9eef9a9d389f104905090565b60608180602001905181019061022d91906108f6565b9050919050565b60606040518060400160405280600681526020017f31323334343500000000000000000000000000000000000000000000000000008152509050949350505050565b5f604051905090565b5f80fd5b5f80fd5b5f7fffffffff0000000000000000000000000000000000000000000000000000000082169050919050565b6102bb81610287565b81146102c5575f80fd5b50565b5f813590506102d6816102b2565b92915050565b5f73ffffffffffffffffffffffffffffffffffffffff82169050919050565b5f610305826102dc565b9050919050565b610315816102fb565b811461031f575f80fd5b50565b5f813590506103308161030c565b92915050565b5f819050919050565b61034881610336565b8114610352575f80fd5b50565b5f813590506103638161033f565b92915050565b5f80fd5b5f80fd5b5f80fd5b5f8083601f84011261038a57610389610369565b5b8235905067ffffffffffffffff8111156103a7576103a661036d565b5b6020830191508360018202830111156103c3576103c2610371565b5b9250929050565b5f805f805f608086880312156103e3576103e261027f565b5b5f6103f0888289016102c8565b955050602061040188828901610322565b945050604061041288828901610355565b935050606086013567ffffffffffffffff81111561043357610432610283565b5b61043f88828901610375565b92509250509295509295909350565b5f8115159050919050565b6104628161044e565b82525050565b5f81519050919050565b5f82825260208201905092915050565b8281835e5f83830152505050565b5f601f19601f8301169050919050565b5f6104aa82610468565b6104b48185610472565b93506104c4818560208601610482565b6104cd81610490565b840191505092915050565b5f6040820190506104eb5f830185610459565b81810360208301526104fd81846104a0565b90509392505050565b61050f81610287565b82525050565b5f6020820190506105285f830184610506565b92915050565b5f80fd5b7f4e487b71000000000000000000000000000000000000000000000000000000005f52604160045260245ffd5b61056882610490565b810181811067ffffffffffffffff8211171561058757610586610532565b5b80604052505050565b5f610599610276565b90506105a5828261055f565b919050565b5f67ffffffffffffffff8211156105c4576105c3610532565b5b6105cd82610490565b9050602081019050919050565b828183375f83830152505050565b5f6105fa6105f5846105aa565b610590565b9050828152602081018484840111156106165761061561052e565b5b6106218482856105da565b509392505050565b5f82601f83011261063d5761063c610369565b5b813561064d8482602086016105e8565b91505092915050565b5f6020828403121561066b5761066a61027f565b5b5f82013567ffffffffffffffff81111561068857610687610283565b5b61069484828501610629565b91505092915050565b5f81519050919050565b5f82825260208201905092915050565b5f6106c18261069d565b6106cb81856106a7565b93506106db818560208601610482565b6106e481610490565b840191505092915050565b5f6020820190508181035f83015261070781846106b7565b905092915050565b5f805f80606085870312156107275761072661027f565b5b5f61073487828801610322565b945050602061074587828801610355565b935050604085013567ffffffffffffffff81111561076657610765610283565b5b61077287828801610375565b925092505092959194509250565b610789816102fb565b82525050565b61079881610336565b82525050565b5f6107a983856106a7565b93506107b68385846105da565b6107bf83610490565b840190509392505050565b5f6060820190506107dd5f830187610780565b6107ea602083018661078f565b81810360408301526107fd81848661079e565b905095945050505050565b5f81905092915050565b5f61081c82610468565b6108268185610808565b9350610836818560208601610482565b80840191505092915050565b5f61084d8284610812565b915081905092915050565b5f67ffffffffffffffff82111561087257610871610532565b5b61087b82610490565b9050602081019050919050565b5f61089a61089584610858565b610590565b9050828152602081018484840111156108b6576108b561052e565b5b6108c1848285610482565b509392505050565b5f82601f8301126108dd576108dc610369565b5b81516108ed848260208601610888565b91505092915050565b5f6020828403121561090b5761090a61027f565b5b5f82015167ffffffffffffffff81111561092857610927610283565b5b610934848285016108c9565b9150509291505056fea264697066735822122005b01f17c786b795471477d737cb73c94d469843cadb296247f6b69de80f146664736f6c63430008190033",
					"opcodes": "PUSH1 0x80 PUSH1 0x40 MSTORE CALLVALUE DUP1 ISZERO PUSH1 0xE JUMPI PUSH0 DUP1 REVERT JUMPDEST POP PUSH2 0x973 DUP1 PUSH2 0x1C PUSH0 CODECOPY PUSH0 RETURN INVALID PUSH1 0x80 PUSH1 0x40 MSTORE CALLVALUE DUP1 ISZERO PUSH2 0xF JUMPI PUSH0 DUP1 REVERT JUMPDEST POP PUSH1 0x4 CALLDATASIZE LT PUSH2 0x4A JUMPI PUSH0 CALLDATALOAD PUSH1 0xE0 SHR DUP1 PUSH4 0x49C23EF4 EQ PUSH2 0x4E JUMPI DUP1 PUSH4 0x6ACDDA36 EQ PUSH2 0x7F JUMPI DUP1 PUSH4 0xE5C5E9A3 EQ PUSH2 0x9D JUMPI DUP1 PUSH4 0xE9D740FB EQ PUSH2 0xCD JUMPI JUMPDEST PUSH0 DUP1 REVERT JUMPDEST PUSH2 0x68 PUSH1 0x4 DUP1 CALLDATASIZE SUB DUP2 ADD SWAP1 PUSH2 0x63 SWAP2 SWAP1 PUSH2 0x3CA JUMP JUMPDEST PUSH2 0xFD JUMP JUMPDEST PUSH1 0x40 MLOAD PUSH2 0x76 SWAP3 SWAP2 SWAP1 PUSH2 0x4D8 JUMP JUMPDEST PUSH1 0x40 MLOAD DUP1 SWAP2 SUB SWAP1 RETURN JUMPDEST PUSH2 0x87 PUSH2 0x1F0 JUMP JUMPDEST PUSH1 0x40 MLOAD PUSH2 0x94 SWAP2 SWAP1 PUSH2 0x515 JUMP JUMPDEST PUSH1 0x40 MLOAD DUP1 SWAP2 SUB SWAP1 RETURN JUMPDEST PUSH2 0xB7 PUSH1 0x4 DUP1 CALLDATASIZE SUB DUP2 ADD SWAP1 PUSH2 0xB2 SWAP2 SWAP1 PUSH2 0x656 JUMP JUMPDEST PUSH2 0x217 JUMP JUMPDEST PUSH1 0x40 MLOAD PUSH2 0xC4 SWAP2 SWAP1 PUSH2 0x6EF JUMP JUMPDEST PUSH1 0x40 MLOAD DUP1 SWAP2 SUB SWAP1 RETURN JUMPDEST PUSH2 0xE7 PUSH1 0x4 DUP1 CALLDATASIZE SUB DUP2 ADD SWAP1 PUSH2 0xE2 SWAP2 SWAP1 PUSH2 0x70F JUMP JUMPDEST PUSH2 0x234 JUMP JUMPDEST PUSH1 0x40 MLOAD PUSH2 0xF4 SWAP2 SWAP1 PUSH2 0x6EF JUMP JUMPDEST PUSH1 0x40 MLOAD DUP1 SWAP2 SUB SWAP1 RETURN JUMPDEST PUSH0 PUSH1 0x60 PUSH0 DUP1 ADDRESS PUSH20 0xFFFFFFFFFFFFFFFFFFFFFFFFFFFFFFFFFFFFFFFF AND DUP10 DUP10 DUP10 DUP10 DUP10 PUSH1 0x40 MLOAD PUSH1 0x24 ADD PUSH2 0x131 SWAP5 SWAP4 SWAP3 SWAP2 SWAP1 PUSH2 0x7CA JUMP JUMPDEST PUSH1 0x40 MLOAD PUSH1 0x20 DUP2 DUP4 SUB SUB DUP2 MSTORE SWAP1 PUSH1 0x40 MSTORE SWAP1 PUSH28 0xFFFFFFFFFFFFFFFFFFFFFFFFFFFFFFFFFFFFFFFFFFFFFFFFFFFFFFFF NOT AND PUSH1 0x20 DUP3 ADD DUP1 MLOAD PUSH28 0xFFFFFFFFFFFFFFFFFFFFFFFFFFFFFFFFFFFFFFFFFFFFFFFFFFFFFFFF DUP4 DUP2 DUP4 AND OR DUP4 MSTORE POP POP POP POP PUSH1 0x40 MLOAD PUSH2 0x19B SWAP2 SWAP1 PUSH2 0x842 JUMP JUMPDEST PUSH0 PUSH1 0x40 MLOAD DUP1 DUP4 SUB DUP2 PUSH0 DUP7 GAS CALL SWAP2 POP POP RETURNDATASIZE DUP1 PUSH0 DUP2 EQ PUSH2 0x1D4 JUMPI PUSH1 0x40 MLOAD SWAP2 POP PUSH1 0x1F NOT PUSH1 0x3F RETURNDATASIZE ADD AND DUP3 ADD PUSH1 0x40 MSTORE RETURNDATASIZE DUP3 MSTORE RETURNDATASIZE PUSH0 PUSH1 0x20 DUP5 ADD RETURNDATACOPY PUSH2 0x1D9 JUMP JUMPDEST PUSH1 0x60 SWAP2 POP JUMPDEST POP SWAP2 POP SWAP2 POP DUP2 DUP2 SWAP4 POP SWAP4 POP POP POP SWAP6 POP SWAP6 SWAP4 POP POP POP POP JUMP JUMPDEST PUSH0 PUSH32 0xE9D740FB1D625751D852E2AD3BFA395BCD9C092FC2B1CD1DF9EEF9A9D389F104 SWAP1 POP SWAP1 JUMP JUMPDEST PUSH1 0x60 DUP2 DUP1 PUSH1 0x20 ADD SWAP1 MLOAD DUP2 ADD SWAP1 PUSH2 0x22D SWAP2 SWAP1 PUSH2 0x8F6 JUMP JUMPDEST SWAP1 POP SWAP2 SWAP1 POP JUMP JUMPDEST PUSH1 0x60 PUSH1 0x40 MLOAD DUP1 PUSH1 0x40 ADD PUSH1 0x40 MSTORE DUP1 PUSH1 0x6 DUP2 MSTORE PUSH1 0x20 ADD PUSH32 0x3132333434350000000000000000000000000000000000000000000000000000 DUP2 MSTORE POP SWAP1 POP SWAP5 SWAP4 POP POP POP POP JUMP JUMPDEST PUSH0 PUSH1 0x40 MLOAD SWAP1 POP SWAP1 JUMP JUMPDEST PUSH0 DUP1 REVERT JUMPDEST PUSH0 DUP1 REVERT JUMPDEST PUSH0 PUSH32 0xFFFFFFFF00000000000000000000000000000000000000000000000000000000 DUP3 AND SWAP1 POP SWAP2 SWAP1 POP JUMP JUMPDEST PUSH2 0x2BB DUP2 PUSH2 0x287 JUMP JUMPDEST DUP2 EQ PUSH2 0x2C5 JUMPI PUSH0 DUP1 REVERT JUMPDEST POP JUMP JUMPDEST PUSH0 DUP2 CALLDATALOAD SWAP1 POP PUSH2 0x2D6 DUP2 PUSH2 0x2B2 JUMP JUMPDEST SWAP3 SWAP2 POP POP JUMP JUMPDEST PUSH0 PUSH20 0xFFFFFFFFFFFFFFFFFFFFFFFFFFFFFFFFFFFFFFFF DUP3 AND SWAP1 POP SWAP2 SWAP1 POP JUMP JUMPDEST PUSH0 PUSH2 0x305 DUP3 PUSH2 0x2DC JUMP JUMPDEST SWAP1 POP SWAP2 SWAP1 POP JUMP JUMPDEST PUSH2 0x315 DUP2 PUSH2 0x2FB JUMP JUMPDEST DUP2 EQ PUSH2 0x31F JUMPI PUSH0 DUP1 REVERT JUMPDEST POP JUMP JUMPDEST PUSH0 DUP2 CALLDATALOAD SWAP1 POP PUSH2 0x330 DUP2 PUSH2 0x30C JUMP JUMPDEST SWAP3 SWAP2 POP POP JUMP JUMPDEST PUSH0 DUP2 SWAP1 POP SWAP2 SWAP1 POP JUMP JUMPDEST PUSH2 0x348 DUP2 PUSH2 0x336 JUMP JUMPDEST DUP2 EQ PUSH2 0x352 JUMPI PUSH0 DUP1 REVERT JUMPDEST POP JUMP JUMPDEST PUSH0 DUP2 CALLDATALOAD SWAP1 POP PUSH2 0x363 DUP2 PUSH2 0x33F JUMP JUMPDEST SWAP3 SWAP2 POP POP JUMP JUMPDEST PUSH0 DUP1 REVERT JUMPDEST PUSH0 DUP1 REVERT JUMPDEST PUSH0 DUP1 REVERT JUMPDEST PUSH0 DUP1 DUP4 PUSH1 0x1F DUP5 ADD SLT PUSH2 0x38A JUMPI PUSH2 0x389 PUSH2 0x369 JUMP JUMPDEST JUMPDEST DUP3 CALLDATALOAD SWAP1 POP PUSH8 0xFFFFFFFFFFFFFFFF DUP2 GT ISZERO PUSH2 0x3A7 JUMPI PUSH2 0x3A6 PUSH2 0x36D JUMP JUMPDEST JUMPDEST PUSH1 0x20 DUP4 ADD SWAP2 POP DUP4 PUSH1 0x1 DUP3 MUL DUP4 ADD GT ISZERO PUSH2 0x3C3 JUMPI PUSH2 0x3C2 PUSH2 0x371 JUMP JUMPDEST JUMPDEST SWAP3 POP SWAP3 SWAP1 POP JUMP JUMPDEST PUSH0 DUP1 PUSH0 DUP1 PUSH0 PUSH1 0x80 DUP7 DUP9 SUB SLT ISZERO PUSH2 0x3E3 JUMPI PUSH2 0x3E2 PUSH2 0x27F JUMP JUMPDEST JUMPDEST PUSH0 PUSH2 0x3F0 DUP9 DUP3 DUP10 ADD PUSH2 0x2C8 JUMP JUMPDEST SWAP6 POP POP PUSH1 0x20 PUSH2 0x401 DUP9 DUP3 DUP10 ADD PUSH2 0x322 JUMP JUMPDEST SWAP5 POP POP PUSH1 0x40 PUSH2 0x412 DUP9 DUP3 DUP10 ADD PUSH2 0x355 JUMP JUMPDEST SWAP4 POP POP PUSH1 0x60 DUP7 ADD CALLDATALOAD PUSH8 0xFFFFFFFFFFFFFFFF DUP2 GT ISZERO PUSH2 0x433 JUMPI PUSH2 0x432 PUSH2 0x283 JUMP JUMPDEST JUMPDEST PUSH2 0x43F DUP9 DUP3 DUP10 ADD PUSH2 0x375 JUMP JUMPDEST SWAP3 POP SWAP3 POP POP SWAP3 SWAP6 POP SWAP3 SWAP6 SWAP1 SWAP4 POP JUMP JUMPDEST PUSH0 DUP2 ISZERO ISZERO SWAP1 POP SWAP2 SWAP1 POP JUMP JUMPDEST PUSH2 0x462 DUP2 PUSH2 0x44E JUMP JUMPDEST DUP3 MSTORE POP POP JUMP JUMPDEST PUSH0 DUP2 MLOAD SWAP1 POP SWAP2 SWAP1 POP JUMP JUMPDEST PUSH0 DUP3 DUP3 MSTORE PUSH1 0x20 DUP3 ADD SWAP1 POP SWAP3 SWAP2 POP POP JUMP JUMPDEST DUP3 DUP2 DUP4 MCOPY PUSH0 DUP4 DUP4 ADD MSTORE POP POP POP JUMP JUMPDEST PUSH0 PUSH1 0x1F NOT PUSH1 0x1F DUP4 ADD AND SWAP1 POP SWAP2 SWAP1 POP JUMP JUMPDEST PUSH0 PUSH2 0x4AA DUP3 PUSH2 0x468 JUMP JUMPDEST PUSH2 0x4B4 DUP2 DUP6 PUSH2 0x472 JUMP JUMPDEST SWAP4 POP PUSH2 0x4C4 DUP2 DUP6 PUSH1 0x20 DUP7 ADD PUSH2 0x482 JUMP JUMPDEST PUSH2 0x4CD DUP2 PUSH2 0x490 JUMP JUMPDEST DUP5 ADD SWAP2 POP POP SWAP3 SWAP2 POP POP JUMP JUMPDEST PUSH0 PUSH1 0x40 DUP3 ADD SWAP1 POP PUSH2 0x4EB PUSH0 DUP4 ADD DUP6 PUSH2 0x459 JUMP JUMPDEST DUP2 DUP2 SUB PUSH1 0x20 DUP4 ADD MSTORE PUSH2 0x4FD DUP2 DUP5 PUSH2 0x4A0 JUMP JUMPDEST SWAP1 POP SWAP4 SWAP3 POP POP POP JUMP JUMPDEST PUSH2 0x50F DUP2 PUSH2 0x287 JUMP JUMPDEST DUP3 MSTORE POP POP JUMP JUMPDEST PUSH0 PUSH1 0x20 DUP3 ADD SWAP1 POP PUSH2 0x528 PUSH0 DUP4 ADD DUP5 PUSH2 0x506 JUMP JUMPDEST SWAP3 SWAP2 POP POP JUMP JUMPDEST PUSH0 DUP1 REVERT JUMPDEST PUSH32 0x4E487B7100000000000000000000000000000000000000000000000000000000 PUSH0 MSTORE PUSH1 0x41 PUSH1 0x4 MSTORE PUSH1 0x24 PUSH0 REVERT JUMPDEST PUSH2 0x568 DUP3 PUSH2 0x490 JUMP JUMPDEST DUP2 ADD DUP2 DUP2 LT PUSH8 0xFFFFFFFFFFFFFFFF DUP3 GT OR ISZERO PUSH2 0x587 JUMPI PUSH2 0x586 PUSH2 0x532 JUMP JUMPDEST JUMPDEST DUP1 PUSH1 0x40 MSTORE POP POP POP JUMP JUMPDEST PUSH0 PUSH2 0x599 PUSH2 0x276 JUMP JUMPDEST SWAP1 POP PUSH2 0x5A5 DUP3 DUP3 PUSH2 0x55F JUMP JUMPDEST SWAP2 SWAP1 POP JUMP JUMPDEST PUSH0 PUSH8 0xFFFFFFFFFFFFFFFF DUP3 GT ISZERO PUSH2 0x5C4 JUMPI PUSH2 0x5C3 PUSH2 0x532 JUMP JUMPDEST JUMPDEST PUSH2 0x5CD DUP3 PUSH2 0x490 JUMP JUMPDEST SWAP1 POP PUSH1 0x20 DUP2 ADD SWAP1 POP SWAP2 SWAP1 POP JUMP JUMPDEST DUP3 DUP2 DUP4 CALLDATACOPY PUSH0 DUP4 DUP4 ADD MSTORE POP POP POP JUMP JUMPDEST PUSH0 PUSH2 0x5FA PUSH2 0x5F5 DUP5 PUSH2 0x5AA JUMP JUMPDEST PUSH2 0x590 JUMP JUMPDEST SWAP1 POP DUP3 DUP2 MSTORE PUSH1 0x20 DUP2 ADD DUP5 DUP5 DUP5 ADD GT ISZERO PUSH2 0x616 JUMPI PUSH2 0x615 PUSH2 0x52E JUMP JUMPDEST JUMPDEST PUSH2 0x621 DUP5 DUP3 DUP6 PUSH2 0x5DA JUMP JUMPDEST POP SWAP4 SWAP3 POP POP POP JUMP JUMPDEST PUSH0 DUP3 PUSH1 0x1F DUP4 ADD SLT PUSH2 0x63D JUMPI PUSH2 0x63C PUSH2 0x369 JUMP JUMPDEST JUMPDEST DUP2 CALLDATALOAD PUSH2 0x64D DUP5 DUP3 PUSH1 0x20 DUP7 ADD PUSH2 0x5E8 JUMP JUMPDEST SWAP2 POP POP SWAP3 SWAP2 POP POP JUMP JUMPDEST PUSH0 PUSH1 0x20 DUP3 DUP5 SUB SLT ISZERO PUSH2 0x66B JUMPI PUSH2 0x66A PUSH2 0x27F JUMP JUMPDEST JUMPDEST PUSH0 DUP3 ADD CALLDATALOAD PUSH8 0xFFFFFFFFFFFFFFFF DUP2 GT ISZERO PUSH2 0x688 JUMPI PUSH2 0x687 PUSH2 0x283 JUMP JUMPDEST JUMPDEST PUSH2 0x694 DUP5 DUP3 DUP6 ADD PUSH2 0x629 JUMP JUMPDEST SWAP2 POP POP SWAP3 SWAP2 POP POP JUMP JUMPDEST PUSH0 DUP2 MLOAD SWAP1 POP SWAP2 SWAP1 POP JUMP JUMPDEST PUSH0 DUP3 DUP3 MSTORE PUSH1 0x20 DUP3 ADD SWAP1 POP SWAP3 SWAP2 POP POP JUMP JUMPDEST PUSH0 PUSH2 0x6C1 DUP3 PUSH2 0x69D JUMP JUMPDEST PUSH2 0x6CB DUP2 DUP6 PUSH2 0x6A7 JUMP JUMPDEST SWAP4 POP PUSH2 0x6DB DUP2 DUP6 PUSH1 0x20 DUP7 ADD PUSH2 0x482 JUMP JUMPDEST PUSH2 0x6E4 DUP2 PUSH2 0x490 JUMP JUMPDEST DUP5 ADD SWAP2 POP POP SWAP3 SWAP2 POP POP JUMP JUMPDEST PUSH0 PUSH1 0x20 DUP3 ADD SWAP1 POP DUP2 DUP2 SUB PUSH0 DUP4 ADD MSTORE PUSH2 0x707 DUP2 DUP5 PUSH2 0x6B7 JUMP JUMPDEST SWAP1 POP SWAP3 SWAP2 POP POP JUMP JUMPDEST PUSH0 DUP1 PUSH0 DUP1 PUSH1 0x60 DUP6 DUP8 SUB SLT ISZERO PUSH2 0x727 JUMPI PUSH2 0x726 PUSH2 0x27F JUMP JUMPDEST JUMPDEST PUSH0 PUSH2 0x734 DUP8 DUP3 DUP9 ADD PUSH2 0x322 JUMP JUMPDEST SWAP5 POP POP PUSH1 0x20 PUSH2 0x745 DUP8 DUP3 DUP9 ADD PUSH2 0x355 JUMP JUMPDEST SWAP4 POP POP PUSH1 0x40 DUP6 ADD CALLDATALOAD PUSH8 0xFFFFFFFFFFFFFFFF DUP2 GT ISZERO PUSH2 0x766 JUMPI PUSH2 0x765 PUSH2 0x283 JUMP JUMPDEST JUMPDEST PUSH2 0x772 DUP8 DUP3 DUP9 ADD PUSH2 0x375 JUMP JUMPDEST SWAP3 POP SWAP3 POP POP SWAP3 SWAP6 SWAP2 SWAP5 POP SWAP3 POP JUMP JUMPDEST PUSH2 0x789 DUP2 PUSH2 0x2FB JUMP JUMPDEST DUP3 MSTORE POP POP JUMP JUMPDEST PUSH2 0x798 DUP2 PUSH2 0x336 JUMP JUMPDEST DUP3 MSTORE POP POP JUMP JUMPDEST PUSH0 PUSH2 0x7A9 DUP4 DUP6 PUSH2 0x6A7 JUMP JUMPDEST SWAP4 POP PUSH2 0x7B6 DUP4 DUP6 DUP5 PUSH2 0x5DA JUMP JUMPDEST PUSH2 0x7BF DUP4 PUSH2 0x490 JUMP JUMPDEST DUP5 ADD SWAP1 POP SWAP4 SWAP3 POP POP POP JUMP JUMPDEST PUSH0 PUSH1 0x60 DUP3 ADD SWAP1 POP PUSH2 0x7DD PUSH0 DUP4 ADD DUP8 PUSH2 0x780 JUMP JUMPDEST PUSH2 0x7EA PUSH1 0x20 DUP4 ADD DUP7 PUSH2 0x78F JUMP JUMPDEST DUP2 DUP2 SUB PUSH1 0x40 DUP4 ADD MSTORE PUSH2 0x7FD DUP2 DUP5 DUP7 PUSH2 0x79E JUMP JUMPDEST SWAP1 POP SWAP6 SWAP5 POP POP POP POP POP JUMP JUMPDEST PUSH0 DUP2 SWAP1 POP SWAP3 SWAP2 POP POP JUMP JUMPDEST PUSH0 PUSH2 0x81C DUP3 PUSH2 0x468 JUMP JUMPDEST PUSH2 0x826 DUP2 DUP6 PUSH2 0x808 JUMP JUMPDEST SWAP4 POP PUSH2 0x836 DUP2 DUP6 PUSH1 0x20 DUP7 ADD PUSH2 0x482 JUMP JUMPDEST DUP1 DUP5 ADD SWAP2 POP POP SWAP3 SWAP2 POP POP JUMP JUMPDEST PUSH0 PUSH2 0x84D DUP3 DUP5 PUSH2 0x812 JUMP JUMPDEST SWAP2 POP DUP2 SWAP1 POP SWAP3 SWAP2 POP POP JUMP JUMPDEST PUSH0 PUSH8 0xFFFFFFFFFFFFFFFF DUP3 GT ISZERO PUSH2 0x872 JUMPI PUSH2 0x871 PUSH2 0x532 JUMP JUMPDEST JUMPDEST PUSH2 0x87B DUP3 PUSH2 0x490 JUMP JUMPDEST SWAP1 POP PUSH1 0x20 DUP2 ADD SWAP1 POP SWAP2 SWAP1 POP JUMP JUMPDEST PUSH0 PUSH2 0x89A PUSH2 0x895 DUP5 PUSH2 0x858 JUMP JUMPDEST PUSH2 0x590 JUMP JUMPDEST SWAP1 POP DUP3 DUP2 MSTORE PUSH1 0x20 DUP2 ADD DUP5 DUP5 DUP5 ADD GT ISZERO PUSH2 0x8B6 JUMPI PUSH2 0x8B5 PUSH2 0x52E JUMP JUMPDEST JUMPDEST PUSH2 0x8C1 DUP5 DUP3 DUP6 PUSH2 0x482 JUMP JUMPDEST POP SWAP4 SWAP3 POP POP POP JUMP JUMPDEST PUSH0 DUP3 PUSH1 0x1F DUP4 ADD SLT PUSH2 0x8DD JUMPI PUSH2 0x8DC PUSH2 0x369 JUMP JUMPDEST JUMPDEST DUP2 MLOAD PUSH2 0x8ED DUP5 DUP3 PUSH1 0x20 DUP7 ADD PUSH2 0x888 JUMP JUMPDEST SWAP2 POP POP SWAP3 SWAP2 POP POP JUMP JUMPDEST PUSH0 PUSH1 0x20 DUP3 DUP5 SUB SLT ISZERO PUSH2 0x90B JUMPI PUSH2 0x90A PUSH2 0x27F JUMP JUMPDEST JUMPDEST PUSH0 DUP3 ADD MLOAD PUSH8 0xFFFFFFFFFFFFFFFF DUP2 GT ISZERO PUSH2 0x928 JUMPI PUSH2 0x927 PUSH2 0x283 JUMP JUMPDEST JUMPDEST PUSH2 0x934 DUP5 DUP3 DUP6 ADD PUSH2 0x8C9 JUMP JUMPDEST SWAP2 POP POP SWAP3 SWAP2 POP POP JUMP INVALID LOG2 PUSH5 0x6970667358 0x22 SLT KECCAK256 SDIV 0xB0 0x1F OR 0xC7 DUP7 0xB7 SWAP6 SELFBALANCE EQ PUSH24 0xD737CB73C94D469843CADB296247F6B69DE80F146664736F PUSH13 0x63430008190033000000000000 "
				},
				"gasEstimates": {
					"creation": {
						"codeDepositCost": "483800",
						"executionCost": "516",
						"totalCost": "484316"
					},
					"external": {
						"callWithSignature(bytes4,address,uint256,string)": "infinite",
						"decode(bytes)": "infinite",
						"test(address,uint256,string)": "infinite",
						"testSelector()": "338"
					}
				},
				"methodIdentifiers": {
					"callWithSignature(bytes4,address,uint256,string)": "49c23ef4",
					"decode(bytes)": "e5c5e9a3",
					"test(address,uint256,string)": "e9d740fb",
					"testSelector()": "6acdda36"
				}
			},
			"storageLayout": {
				"storage": [],
				"types": null
			},
			"userdoc": {
				"kind": "user",
				"methods": {},
				"notice": "29 selector ",
				"version": 1
			}
		}
	}
}